{"project/contracts/erc8004/ReputationRegistry.sol":{"ReputationRegistry":{"abi":[{"inputs":[{"internalType":"address","name":"identityRegistry_","type":"address"}],"stateMutability":"nonpayable","type":"constructor"},{"anonymous":false,"inputs":[{"indexed":true,"internalType":"uint256","name":"agentId","type":"uint256"},{"indexed":true,"internalType":"address","name":"clientAddress","type":"address"},{"indexed":true,"internalType":"uint64","name":"feedbackIndex","type":"uint64"}],"name":"FeedbackRevoked","type":"event"},{"anonymous":false,"inputs":[{"indexed":true,"internalType":"uint256","name":"agentId","type":"uint256"},{"indexed":true,"internalType":"address","name":"clientAddress","type":"address"},{"indexed":false,"internalType":"uint64","name":"feedbackIndex","type":"uint64"},{"indexed":false,"internalType":"int128","name":"value","type":"int128"},{"indexed":false,"internalType":"uint8","name":"valueDecimals","type":"uint8"},{"indexed":true,"internalType":"string","name":"indexedTag1","type":"string"},{"indexed":false,"internalType":"string","name":"tag1","type":"string"},{"indexed":false,"internalType":"string","name":"tag2","type":"string"},{"indexed":false,"internalType":"string","name":"endpoint","type":"string"},{"indexed":false,"internalType":"string","name":"feedbackURI","type":"string"},{"indexed":false,"internalType":"bytes32","name":"feedbackHash","type":"bytes32"}],"name":"NewFeedback","type":"event"},{"anonymous":false,"inputs":[{"indexed":true,"internalType":"uint256","name":"agentId","type":"uint256"},{"indexed":true,"internalType":"address","name":"clientAddress","type":"address"},{"indexed":false,"internalType":"uint64","name":"feedbackIndex","type":"uint64"},{"indexed":true,"internalType":"address","name":"responder","type":"address"},{"indexed":false,"internalType":"string","name":"responseURI","type":"string"},{"indexed":false,"internalType":"bytes32","name":"responseHash","type":"bytes32"}],"name":"ResponseAppended","type":"event"},{"inputs":[{"internalType":"uint256","name":"agentId","type":"uint256"},{"internalType":"address","name":"clientAddress","type":"address"},{"internalType":"uint64","name":"feedbackIndex","type":"uint64"},{"internalType":"string","name":"responseURI","type":"string"},{"internalType":"bytes32","name":"responseHash","type":"bytes32"}],"name":"appendResponse","outputs":[],"stateMutability":"nonpayable","type":"function"},{"inputs":[{"internalType":"uint256","name":"agentId","type":"uint256"}],"name":"getClients","outputs":[{"internalType":"address[]","name":"","type":"address[]"}],"stateMutability":"view","type":"function"},{"inputs":[],"name":"getIdentityRegistry","outputs":[{"internalType":"address","name":"","type":"address"}],"stateMutability":"view","type":"function"},{"inputs":[{"internalType":"uint256","name":"agentId","type":"uint256"},{"internalType":"address","name":"clientAddress","type":"address"}],"name":"getLastIndex","outputs":[{"internalType":"uint64","name":"","type":"uint64"}],"stateMutability":"view","type":"function"},{"inputs":[{"internalType":"uint256","name":"agentId","type":"uint256"},{"internalType":"address","name":"clientAddress","type":"address"},{"internalType":"uint64","name":"feedbackIndex","type":"uint64"},{"internalType":"address[]","name":"","type":"address[]"}],"name":"getResponseCount","outputs":[{"internalType":"uint64","name":"count","type":"uint64"}],"stateMutability":"view","type":"function"},{"inputs":[{"internalType":"uint256","name":"agentId","type":"uint256"},{"internalType":"address[]","name":"clientAddresses","type":"address[]"},{"internalType":"string","name":"tag1","type":"string"},{"internalType":"string","name":"tag2","type":"string"}],"name":"getSummary","outputs":[{"internalType":"uint64","name":"count","type":"uint64"},{"internalType":"int128","name":"summaryValue","type":"int128"},{"internalType":"uint8","name":"summaryValueDecimals","type":"uint8"}],"stateMutability":"view","type":"function"},{"inputs":[{"internalType":"uint256","name":"agentId","type":"uint256"},{"internalType":"int128","name":"value","type":"int128"},{"internalType":"uint8","name":"valueDecimals","type":"uint8"},{"internalType":"string","name":"tag1","type":"string"},{"internalType":"string","name":"tag2","type":"string"},{"internalType":"string","name":"endpoint","type":"string"},{"internalType":"string","name":"feedbackURI","type":"string"},{"internalType":"bytes32","name":"feedbackHash","type":"bytes32"}],"name":"giveFeedback","outputs":[],"stateMutability":"nonpayable","type":"function"},{"inputs":[{"internalType":"uint256","name":"agentId","type":"uint256"},{"internalType":"address[]","name":"clientAddresses","type":"address[]"},{"internalType":"string","name":"tag1","type":"string"},{"internalType":"string","name":"tag2","type":"string"},{"internalType":"bool","name":"includeRevoked","type":"bool"}],"name":"readAllFeedback","outputs":[{"internalType":"address[]","name":"clients","type":"address[]"},{"internalType":"uint64[]","name":"feedbackIndexes","type":"uint64[]"},{"internalType":"int128[]","name":"values","type":"int128[]"},{"internalType":"uint8[]","name":"valueDecimals","type":"uint8[]"},{"internalType":"string[]","name":"tag1s","type":"string[]"},{"internalType":"string[]","name":"tag2s","type":"string[]"},{"internalType":"bool[]","name":"revokedStatuses","type":"bool[]"}],"stateMutability":"view","type":"function"},{"inputs":[{"internalType":"uint256","name":"agentId","type":"uint256"},{"internalType":"address","name":"clientAddress","type":"address"},{"internalType":"uint64","name":"feedbackIndex","type":"uint64"}],"name":"readFeedback","outputs":[{"internalType":"int128","name":"value","type":"int128"},{"internalType":"uint8","name":"valueDecimals","type":"uint8"},{"internalType":"string","name":"tag1","type":"string"},{"internalType":"string","name":"tag2","type":"string"},{"internalType":"bool","name":"isRevoked","type":"bool"}],"stateMutability":"view","type":"function"},{"inputs":[{"internalType":"uint256","name":"agentId","type":"uint256"},{"internalType":"uint64","name":"feedbackIndex","type":"uint64"}],"name":"revokeFeedback","outputs":[],"stateMutability":"nonpayable","type":"function"}],"evm":{"bytecode":{"linkReferences":{},"object":"60803461007357601f611f3438819003918201601f19168301916001600160401b038311848410176100775780849260209460405283398101031261007357516001600160a01b03811690819003610073575f80546001600160a01b031916919091179055604051611ea8908161008c8239f35b5f80fd5b634e487b7160e01b5f52604160045260245ffdfe610160806040526004361015610013575f80fd5b5f3560e01c908163232b081014611a02575080633c036a7e1461110857806342dd519c146110835780634ab3ca9914610f225780636e04cacd14610ea757806381bbba5814610b12578063bc4d861b14610aeb578063c2349ab214610852578063d9d84224146100dc5763f2d817591461008b575f80fd5b346100d85760403660031901126100d8576100a4611ad8565b6004355f52600260205260405f209060018060a01b03165f5260205260206001600160401b0360405f205416604051908152f35b5f80fd5b346100d85760a03660031901126100d8576024356001600160401b0381116100d85761010c903690600401611bab565b906044356001600160401b0381116100d85761012c903690600401611b42565b9290916064356001600160401b0381116100d85761014e903690600401611b42565b90926084359283151584036100d85781156107e55761016e913691611da9565b925b5f935f965b815188101561031b576004355f9081526002602052604090206001600160a01b036101a08a85611e07565b51165f526020526001600160401b0360405f205416965f965b886001600160401b038916101561030d576004355f5260018060205260405f2060018060a01b036101ea8d88611e07565b51165f5260205260405f206001600160401b038a165f5260205260405f2090881589156102ff575b6102ec5784151590816102b4575b506102a2578615159081610262575b506102515760016102476001600160401b0392611e1b565b985b0116966101b9565b9660016001600160401b0391610249565b600291506102819061027a6040518094819301611c6f565b0382611d00565b60208151910120610293368888611d3c565b6020815191012014158b61022f565b509660016001600160401b0391610249565b61027a91506102cb90604051928380928601611c6f565b602081519101206102dd368686611d3c565b6020815191012014158c610220565b50509660016001600160401b0391610249565b5060ff600683015416610212565b965096509660010196610175565b9593929190965061032b85611d92565b916103396040519384611d00565b85835261034586611d92565b601f190136602085013761036961035b87611d92565b604051608052608051611d00565b856080515261037786611d92565b601f1901366020608051013761039d61038f87611d92565b60405160a05260a051611d00565b8560a051526103ab86611d92565b601f190136602060a05101376103d16103c387611d92565b60405160c05260c051611d00565b8560c051526103df86611d92565b601f190136602060c05101376103f486611e29565b60e05261042b61040387611e29565b9661042061041082611d92565b6040516101005261010051611d00565b806101005152611d92565b601f19013660206101005101375f94855b895187101561068f576004355f9081526002602052604090206001600160a01b03610467898d611e07565b51165f526020526001600160401b0360405f205416610140525f610120525b610140516001600160401b0361012051161015610684576004355f9081526001602052604090206001600160a01b036104bf898d611e07565b51165f5260205260405f206001600160401b0361012051165f5260205260405f2086158715610676575b6106055789151580610641575b610605578315158061060c575b610605576105e991906001600160a01b0361051e8a8e611e07565b511661052a8389611e07565b526001600160401b03610120511661054483608051611e07565b52600681549182600f0b61055a8560a051611e07565b5260ff809360801c1661056f8560c051611e07565b526040516105848161027a8160018601611c6f565b6105908560e051611e07565b5261059d8460e051611e07565b506040516105c3858e6105be846105b78160028901611c6f565b0385611d00565b611e07565b526105ce848d611e07565b500154166105df8261010051611e07565b9015159052611e1b565b975b6001600160401b0360016101205101166101205297610486565b50976105eb565b506040516106218161027a8160028601611c6f565b60208151910120610633368688611d3c565b602081519101201415610503565b506040516106568161027a8160018601611c6f565b60208151910120610668368c86611d3c565b6020815191012014156104f6565b5060ff6006820154166104e9565b60019096019561043c565b6106a8858960405192839260e0845260e0840190611b6f565b8281036020840152602060805151918281520190602060805101905f5b8181106107c3575050508281036040840152602060a05151918281520190602060a05101905f5b8181106107a7575050508281036060840152602060c05151918281520190602060c05101905f5b81811061078b575050509061073582846107439403608086015260e051611bdb565b9083820360a0850152611bdb565b81810360c08301526020610100515191828152019060206101005101905f5b818110610770575050500390f35b82511515845285945060209384019390920191600101610762565b825160ff16845286955060209384019390920191600101610713565b8251600f0b8452869550602093840193909201916001016106ec565b82516001600160401b03168452869550602093840193909201916001016106c5565b50506004355f526020600360205260405f209060405180928391602082549182815201915f5260205f20935f905b82821061082f5750505061082992500382611d00565b92610170565b85546001600160a01b031684526001958601958795509381019390910190610813565b346100d85760a03660031901126100d85760043561086e611ad8565b610876611aee565b6001600160401b0392906064358481116100d857610898903690600401611b42565b60843595845f526020906005825260405f209660018060a01b0380911697885f5283528160405f20961695865f52835260405f20604051926060840184811082821117610ac3576040523384526108f0368789611d3c565b9185850192835260408501938c85528154600160401b811015610ac357600192838201808255821015610ad7575f526003885f209102019551166bffffffffffffffffffffffff60a01b86541617855580850192518051928311610ac3576109588454611c37565b601f8111610a7d575b508690601f84116001146109ec579383806109d39a9895600295606099957fb1c6be0b5b8aef6539e2fac0fd131a2faa7b49edf8e505b5eb0ad487d56051d49f9e9c995f946109e1575b50501b915f199060031b1c19161790555b519101556040519586528501526060840191611d72565b9460408201528033950390a4005b015192505f806109ab565b90601f93929319831691855f52885f20925f5b818110610a68575093606097937fb1c6be0b5b8aef6539e2fac0fd131a2faa7b49edf8e505b5eb0ad487d56051d49d9c9a97936109d39c9a97938360029810610a50575b505050811b0190556109bc565b01515f1960f88460031b161c191690555f8080610a43565b82840151855593860193928a01928a016109ff565b845f52875f20601f850160051c810191898610610ab9575b601f0160051c019083905b828110610aae575050610961565b5f8155018390610aa0565b9091508190610a95565b634e487b7160e01b5f52604160045260245ffd5b634e487b7160e01b5f52603260045260245ffd5b346100d8575f3660031901126100d8575f546040516001600160a01b039091168152602090f35b346100d85760803660031901126100d857602480356001600160401b0381116100d857610b43903690600401611bab565b916044356001600160401b0381116100d857610b63903690600401611b42565b6064356001600160401b0381116100d857610b82903690600401611b42565b955f958115610e3957610b96913691611da9565b92955b5f965f945f905b8051821015610dbb576004355f9081526002602052604090209699966001600160a01b03610bce8484611e07565b51165f526020526001600160401b0360405f205416995f975b8b6001600160401b038a161015610dac576004355f9081526001602052604090206001600160a01b03610c1a8686611e07565b51165f5260205260405f206001600160401b038a165f5260205260405f2060ff600682015416610d2f5788151580610d77575b610d2f5786151580610d42575b610d2f57549081600f0b9160ff60129160801c168103908111610d1c57604d8111610d1c57600a0a82810292905f8212600160ff1b821416610d09578184051490151715610cf65781808201125f8212908015821691151617610cf65701906001600160401b0380821614610ce3576001806001600160401b0380931601995b01169790610be7565b89634e487b7160e01b5f5260116004525ffd5b8a634e487b7160e01b5f5260116004525ffd5b8c634e487b7160e01b5f5260116004525ffd5b8b634e487b7160e01b5f5260116004525ffd5b50909760016001600160401b0391610cda565b50604051610d578161027a8160028601611c6f565b60208151910120610d6936898b611d3c565b602081519101201415610c5a565b50604051610d8c8161027a8160018601611c6f565b60208151910120610d9e368b89611d3c565b602081519101201415610c4d565b9a509650600190910190610ba0565b896001600160401b0388168a8a82158015610dec575b60608484604051918252600f0b602082015260126040820152f35b909150610e2657600160ff1b83145f19831416610e1357508060609205600f0b8380610dd1565b634e487b7160e01b5f9081526011600452fd5b634e487b7160e01b5f9081526012600452fd5b50506004355f526020600360205260405f209060405180928391602082549182815201915f5260205f20935f905b828210610e8457505050610e7d92500382611d00565b9295610b99565b85546001600160a01b031684526001958601958795509381019390910190610e67565b346100d85760803660031901126100d857610ec0611ad8565b610ec8611aee565b90606435916001600160401b03918284116100d857610eed6020943690600401611bab565b50506004355f526005845260405f209060018060a01b03165f5283528160405f2091165f52825260405f205416604051908152f35b346100d85760403660031901126100d857600435602435906001600160401b0382168092036100d857805f52600160205260405f20335f5260205260405f20825f5260205260405f20805460ff8160801c161590811591611076575b508015611061575b801561104c575b1561100757600601805460ff8116610fd05760ff1916600117905533907f25156fd3288212246d8b008d5921fde376c71ed14ac2e072a506eb06fde6d09d5f80a4005b60405162461bcd60e51b815260206004820152600f60248201526e105b1c9958591e481c995d9bdad959608a1b6044820152606490fd5b60405162461bcd60e51b815260206004820152601760248201527f466565646261636b20646f6573206e6f742065786973740000000000000000006044820152606490fd5b5061105a6004820154611c37565b1515610f8d565b5061106f6001820154611c37565b1515610f86565b9050600f0b151584610f7e565b346100d8576020806003193601126100d8576004355f526003815260405f20906040518083838295549384815201905f52835f20925f5b858282106110e9575050506110d192500383611d00565b6110e5604051928284938452830190611b6f565b0390f35b85546001600160a01b03168452600195860195889550930192016110ba565b346100d8576101003660031901126100d85760243580600f0b81036100d85760443560ff811681036100d8576064356001600160401b0381116100d857611153903690600401611b42565b906084356001600160401b0381116100d857611173903690600401611b42565b9060a4356001600160401b0381116100d857611193903690600401611b42565b91909260c4356001600160401b0381116100d8576111b5903690600401611b42565b95909660018060a01b035f5416604051906331a9108f60e11b60208301526004356024830152602482528160608101106001600160401b03606084011117610ac357815f92916060849301604052602082519201905afa3d156119fa573d9061121d82611d21565b9161122b6040519384611d00565b82523d5f602084013e5b806119ee575b61197b575b506004355f52600460205260405f20335f5260205260ff60405f2054161561190a575b6004355f52600260205260405f20335f526020526001600160401b0360405f20541698604051806101008101106001600160401b0361010083011117610ac35761010081016040528b600f0b81526020810160ff831681526112c6368587611d3c565b604083019081526112d836888a611d3c565b60608401526112e8368a8c611d3c565b60808401526112f8368c8e611d3c565b60a084015260e43560c08401525f60e08401526004355f52600160205260405f20335f5260205260405f208d5f5260205260405f20918351906fffffffffffffffffffffffffffffffff84549160ff60801b905160801b1692169070ffffffffffffffffffffffffffffffffff191617178255518051906001600160401b038211610ac357819061138c6001850154611c37565b601f81116118ba575b50602090601f831160011461184f575f92611844575b50508160011b915f199060031b1c19161760018201555b60608201518051906001600160401b038211610ac35781906113e76002850154611c37565b601f81116117f4575b50602090601f8311600114611789575f9261177e575b50508160011b915f199060031b1c19161760028201555b60808201518051906001600160401b038211610ac35781906114426003850154611c37565b601f811161172e575b50602090601f83116001146116c3575f926116b8575b50508160011b915f199060031b1c19161760038201555b60a08201518051906001600160401b038211610ac35761149b6004840154611c37565b601f8111611674575b50602090601f831160011461160557918060e094926006945f926115fa575b50508160011b915f199060031b1c19161760048201555b60c0840151600582015501910151151560ff801983541691161790556001600160401b0360018b01116115e6576004355f52600260205260405f20335f5260205260405f2060018b016001600160401b03166001600160401b031982541617905560405182848237808381015f81520390209a6040519a8b52600f0b60208b015260ff1660408a015260608901610100905261010089019061157b92611d72565b90878203608089015261158d92611d72565b9085820360a087015261159f92611d72565b9083820360c08501526115b192611d72565b60e43560e083015233918060043592037f6a4a61743519c9d648a14e6493f47dbe3ff1aa29e7785c96c8326a205e58febc91a4005b634e487b7160e01b5f52601160045260245ffd5b015190505f806114c3565b90601f19831691600485015f5260205f20925f5b81811061165c575092600192859260069660e0989610611644575b505050811b0160048201556114da565b01515f1960f88460031b161c191690555f8080611634565b92936020600181928786015181550195019301611619565b600484015f5260205f20601f840160051c8101602085106116b1575b601f830160051c820181106116a65750506114a4565b5f8155600101611690565b5080611690565b015190508f80611461565b600385015f908152602081209350601f198516905b81811061171657509084600195949392106116fe575b505050811b016003820155611478565b01515f1960f88460031b161c191690558f80806116ee565b929360206001819287860151815501950193016116d8565b909150600384015f5260205f20601f840160051c810160208510611777575b90849392915b601f830160051c8201811061176957505061144b565b5f8155859450600101611753565b508061174d565b015190508f80611406565b600285015f908152602081209350601f198516905b8181106117dc57509084600195949392106117c4575b505050811b01600282015561141d565b01515f1960f88460031b161c191690558f80806117b4565b9293602060018192878601518155019501930161179e565b909150600284015f5260205f20601f840160051c81016020851061183d575b90849392915b601f830160051c8201811061182f5750506113f0565b5f8155859450600101611819565b5080611813565b015190508f806113ab565b600185015f908152602081209350601f198516905b8181106118a2575090846001959493921061188a575b505050811b0160018201556113c2565b01515f1960f88460031b161c191690558f808061187a565b92936020600181928786015181550195019301611864565b909150600184015f5260205f20601f840160051c810160208510611903575b90849392915b601f830160051c820181106118f5575050611395565b5f81558594506001016118df565b50806118d9565b6004355f52600360205260405f20805490600160401b821015610ac35760018201808255821015610ad7575f5260205f2001336bffffffffffffffffffffffff60a01b8254161790556004355f52600460205260405f20335f5260205260405f20600160ff19825416179055611263565b6020818051810103126100d857602001516001600160a01b038116908190036100d85733146119aa578a611240565b606460405162461bcd60e51b815260206004820152602060248201527f4167656e74206f776e65722063616e6e6f742073656c662d666565646261636b6044820152fd5b5060208151101561123b565b606090611235565b346100d85760603660031901126100d85760ff90611a1e611ad8565b611a26611aee565b906004355f52600160205260405f209060018060a01b03165f526020526001600160401b0360405f2091165f5260205260405f20611acc6002611abe835494611a988760068701541695611a8883611a818160018501611c6f565b0384611d00565b611a816040518096819301611c6f565b60405196868897600f0b885260801c16602087015260a0604087015260a0860190611b04565b908482036060860152611b04565b90151560808301520390f35b602435906001600160a01b03821682036100d857565b604435906001600160401b03821682036100d857565b91908251928382525f5b848110611b2e575050825f602080949584010152601f8019910116010190565b602081830181015184830182015201611b0e565b9181601f840112156100d8578235916001600160401b0383116100d857602083818601950101116100d857565b9081518082526020808093019301915f5b828110611b8e575050505090565b83516001600160a01b031685529381019392810192600101611b80565b9181601f840112156100d8578235916001600160401b0383116100d8576020808501948460051b0101116100d857565b90808251908181526020809101926020808460051b8301019501935f915b848310611c095750505050505090565b9091929394958480611c27600193601f198682030187528a51611b04565b9801930193019194939290611bf9565b90600182811c92168015611c65575b6020831014611c5157565b634e487b7160e01b5f52602260045260245ffd5b91607f1691611c46565b80545f9392611c7d82611c37565b918282526020936001916001811690815f14611ce15750600114611ca3575b5050505050565b90939495505f92919252835f2092845f945b838610611ccd57505050500101905f80808080611c9c565b805485870183015294019385908201611cb5565b60ff19168685015250505090151560051b010191505f80808080611c9c565b90601f801991011681019081106001600160401b03821117610ac357604052565b6001600160401b038111610ac357601f01601f191660200190565b929192611d4882611d21565b91611d566040519384611d00565b8294818452818301116100d8578281602093845f960137010152565b908060209392818452848401375f828201840152601f01601f1916010190565b6001600160401b038111610ac35760051b60200190565b9291611db482611d92565b91611dc26040519384611d00565b829481845260208094019160051b81019283116100d857905b828210611de85750505050565b81356001600160a01b03811681036100d8578152908301908301611ddb565b8051821015610ad75760209160051b010190565b5f1981146115e65760010190565b90611e3382611d92565b611e406040519182611d00565b8281528092611e51601f1991611d92565b01905f5b828110611e6157505050565b806060602080938501015201611e5556fea2646970667358221220b1dbc2e829aa6776e19e868352b4cede5d88c96437f457ad9dda9c3d896fe38164736f6c63430008180033","opcodes":"PUSH1 0x80 CALLVALUE PUSH2 0x73 JUMPI PUSH1 0x1F PUSH2 0x1F34 CODESIZE DUP2 SWAP1 SUB SWAP2 DUP3 ADD PUSH1 0x1F NOT AND DUP4 ADD SWAP2 PUSH1 0x1 PUSH1 0x1 PUSH1 0x40 SHL SUB DUP4 GT DUP5 DUP5 LT OR PUSH2 0x77 JUMPI DUP1 DUP5 SWAP3 PUSH1 0x20 SWAP5 PUSH1 0x40 MSTORE DUP4 CODECOPY DUP2 ADD SUB SLT PUSH2 0x73 JUMPI MLOAD PUSH1 0x1 PUSH1 0x1 PUSH1 0xA0 SHL SUB DUP2 AND SWAP1 DUP2 SWAP1 SUB PUSH2 0x73 JUMPI PUSH0 DUP1 SLOAD PUSH1 0x1 PUSH1 0x1 PUSH1 0xA0 SHL SUB NOT AND SWAP2 SWAP1 SWAP2 OR SWAP1 SSTORE PUSH1 0x40 MLOAD PUSH2 0x1EA8 SWAP1 DUP2 PUSH2 0x8C DUP3 CODECOPY RETURN JUMPDEST PUSH0 DUP1 REVERT JUMPDEST PUSH4 0x4E487B71 PUSH1 0xE0 SHL PUSH0 MSTORE PUSH1 0x41 PUSH1 0x4 MSTORE PUSH1 0x24 PUSH0 REVERT INVALID PUSH2 0x160 DUP1 PUSH1 0x40 MSTORE PUSH1 0x4 CALLDATASIZE LT ISZERO PUSH2 0x13 JUMPI PUSH0 DUP1 REVERT JUMPDEST PUSH0 CALLDATALOAD PUSH1 0xE0 SHR SWAP1 DUP2 PUSH4 0x232B0810 EQ PUSH2 0x1A02 JUMPI POP DUP1 PUSH4 0x3C036A7E EQ PUSH2 0x1108 JUMPI DUP1 PUSH4 0x42DD519C EQ PUSH2 0x1083 JUMPI DUP1 PUSH4 0x4AB3CA99 EQ PUSH2 0xF22 JUMPI DUP1 PUSH4 0x6E04CACD EQ PUSH2 0xEA7 JUMPI DUP1 PUSH4 0x81BBBA58 EQ PUSH2 0xB12 JUMPI DUP1 PUSH4 0xBC4D861B EQ PUSH2 0xAEB JUMPI DUP1 PUSH4 0xC2349AB2 EQ PUSH2 0x852 JUMPI DUP1 PUSH4 0xD9D84224 EQ PUSH2 0xDC JUMPI PUSH4 0xF2D81759 EQ PUSH2 0x8B JUMPI PUSH0 DUP1 REVERT JUMPDEST CALLVALUE PUSH2 0xD8 JUMPI PUSH1 0x40 CALLDATASIZE PUSH1 0x3 NOT ADD SLT PUSH2 0xD8 JUMPI PUSH2 0xA4 PUSH2 0x1AD8 JUMP JUMPDEST PUSH1 0x4 CALLDATALOAD PUSH0 MSTORE PUSH1 0x2 PUSH1 0x20 MSTORE PUSH1 0x40 PUSH0 KECCAK256 SWAP1 PUSH1 0x1 DUP1 PUSH1 0xA0 SHL SUB AND PUSH0 MSTORE PUSH1 0x20 MSTORE PUSH1 0x20 PUSH1 0x1 PUSH1 0x1 PUSH1 0x40 SHL SUB PUSH1 0x40 PUSH0 KECCAK256 SLOAD AND PUSH1 0x40 MLOAD SWAP1 DUP2 MSTORE RETURN JUMPDEST PUSH0 DUP1 REVERT JUMPDEST CALLVALUE PUSH2 0xD8 JUMPI PUSH1 0xA0 CALLDATASIZE PUSH1 0x3 NOT ADD SLT PUSH2 0xD8 JUMPI PUSH1 0x24 CALLDATALOAD PUSH1 0x1 PUSH1 0x1 PUSH1 0x40 SHL SUB DUP2 GT PUSH2 0xD8 JUMPI PUSH2 0x10C SWAP1 CALLDATASIZE SWAP1 PUSH1 0x4 ADD PUSH2 0x1BAB JUMP JUMPDEST SWAP1 PUSH1 0x44 CALLDATALOAD PUSH1 0x1 PUSH1 0x1 PUSH1 0x40 SHL SUB DUP2 GT PUSH2 0xD8 JUMPI PUSH2 0x12C SWAP1 CALLDATASIZE SWAP1 PUSH1 0x4 ADD PUSH2 0x1B42 JUMP JUMPDEST SWAP3 SWAP1 SWAP2 PUSH1 0x64 CALLDATALOAD PUSH1 0x1 PUSH1 0x1 PUSH1 0x40 SHL SUB DUP2 GT PUSH2 0xD8 JUMPI PUSH2 0x14E SWAP1 CALLDATASIZE SWAP1 PUSH1 0x4 ADD PUSH2 0x1B42 JUMP JUMPDEST SWAP1 SWAP3 PUSH1 0x84 CALLDATALOAD SWAP3 DUP4 ISZERO ISZERO DUP5 SUB PUSH2 0xD8 JUMPI DUP2 ISZERO PUSH2 0x7E5 JUMPI PUSH2 0x16E SWAP2 CALLDATASIZE SWAP2 PUSH2 0x1DA9 JUMP JUMPDEST SWAP3 JUMPDEST PUSH0 SWAP4 PUSH0 SWAP7 JUMPDEST DUP2 MLOAD DUP9 LT ISZERO PUSH2 0x31B JUMPI PUSH1 0x4 CALLDATALOAD PUSH0 SWAP1 DUP2 MSTORE PUSH1 0x2 PUSH1 0x20 MSTORE PUSH1 0x40 SWAP1 KECCAK256 PUSH1 0x1 PUSH1 0x1 PUSH1 0xA0 SHL SUB PUSH2 0x1A0 DUP11 DUP6 PUSH2 0x1E07 JUMP JUMPDEST MLOAD AND PUSH0 MSTORE PUSH1 0x20 MSTORE PUSH1 0x1 PUSH1 0x1 PUSH1 0x40 SHL SUB PUSH1 0x40 PUSH0 KECCAK256 SLOAD AND SWAP7 PUSH0 SWAP7 JUMPDEST DUP9 PUSH1 0x1 PUSH1 0x1 PUSH1 0x40 SHL SUB DUP10 AND LT ISZERO PUSH2 0x30D JUMPI PUSH1 0x4 CALLDATALOAD PUSH0 MSTORE PUSH1 0x1 DUP1 PUSH1 0x20 MSTORE PUSH1 0x40 PUSH0 KECCAK256 PUSH1 0x1 DUP1 PUSH1 0xA0 SHL SUB PUSH2 0x1EA DUP14 DUP9 PUSH2 0x1E07 JUMP JUMPDEST MLOAD AND PUSH0 MSTORE PUSH1 0x20 MSTORE PUSH1 0x40 PUSH0 KECCAK256 PUSH1 0x1 PUSH1 0x1 PUSH1 0x40 SHL SUB DUP11 AND PUSH0 MSTORE PUSH1 0x20 MSTORE PUSH1 0x40 PUSH0 KECCAK256 SWAP1 DUP9 ISZERO DUP10 ISZERO PUSH2 0x2FF JUMPI JUMPDEST PUSH2 0x2EC JUMPI DUP5 ISZERO ISZERO SWAP1 DUP2 PUSH2 0x2B4 JUMPI JUMPDEST POP PUSH2 0x2A2 JUMPI DUP7 ISZERO ISZERO SWAP1 DUP2 PUSH2 0x262 JUMPI JUMPDEST POP PUSH2 0x251 JUMPI PUSH1 0x1 PUSH2 0x247 PUSH1 0x1 PUSH1 0x1 PUSH1 0x40 SHL SUB SWAP3 PUSH2 0x1E1B JUMP JUMPDEST SWAP9 JUMPDEST ADD AND SWAP7 PUSH2 0x1B9 JUMP JUMPDEST SWAP7 PUSH1 0x1 PUSH1 0x1 PUSH1 0x1 PUSH1 0x40 SHL SUB SWAP2 PUSH2 0x249 JUMP JUMPDEST PUSH1 0x2 SWAP2 POP PUSH2 0x281 SWAP1 PUSH2 0x27A PUSH1 0x40 MLOAD DUP1 SWAP5 DUP2 SWAP4 ADD PUSH2 0x1C6F JUMP JUMPDEST SUB DUP3 PUSH2 0x1D00 JUMP JUMPDEST PUSH1 0x20 DUP2 MLOAD SWAP2 ADD KECCAK256 PUSH2 0x293 CALLDATASIZE DUP9 DUP9 PUSH2 0x1D3C JUMP JUMPDEST PUSH1 0x20 DUP2 MLOAD SWAP2 ADD KECCAK256 EQ ISZERO DUP12 PUSH2 0x22F JUMP JUMPDEST POP SWAP7 PUSH1 0x1 PUSH1 0x1 PUSH1 0x1 PUSH1 0x40 SHL SUB SWAP2 PUSH2 0x249 JUMP JUMPDEST PUSH2 0x27A SWAP2 POP PUSH2 0x2CB SWAP1 PUSH1 0x40 MLOAD SWAP3 DUP4 DUP1 SWAP3 DUP7 ADD PUSH2 0x1C6F JUMP JUMPDEST PUSH1 0x20 DUP2 MLOAD SWAP2 ADD KECCAK256 PUSH2 0x2DD CALLDATASIZE DUP7 DUP7 PUSH2 0x1D3C JUMP JUMPDEST PUSH1 0x20 DUP2 MLOAD SWAP2 ADD KECCAK256 EQ ISZERO DUP13 PUSH2 0x220 JUMP JUMPDEST POP POP SWAP7 PUSH1 0x1 PUSH1 0x1 PUSH1 0x1 PUSH1 0x40 SHL SUB SWAP2 PUSH2 0x249 JUMP JUMPDEST POP PUSH1 0xFF PUSH1 0x6 DUP4 ADD SLOAD AND PUSH2 0x212 JUMP JUMPDEST SWAP7 POP SWAP7 POP SWAP7 PUSH1 0x1 ADD SWAP7 PUSH2 0x175 JUMP JUMPDEST SWAP6 SWAP4 SWAP3 SWAP2 SWAP1 SWAP7 POP PUSH2 0x32B DUP6 PUSH2 0x1D92 JUMP JUMPDEST SWAP2 PUSH2 0x339 PUSH1 0x40 MLOAD SWAP4 DUP5 PUSH2 0x1D00 JUMP JUMPDEST DUP6 DUP4 MSTORE PUSH2 0x345 DUP7 PUSH2 0x1D92 JUMP JUMPDEST PUSH1 0x1F NOT ADD CALLDATASIZE PUSH1 0x20 DUP6 ADD CALLDATACOPY PUSH2 0x369 PUSH2 0x35B DUP8 PUSH2 0x1D92 JUMP JUMPDEST PUSH1 0x40 MLOAD PUSH1 0x80 MSTORE PUSH1 0x80 MLOAD PUSH2 0x1D00 JUMP JUMPDEST DUP6 PUSH1 0x80 MLOAD MSTORE PUSH2 0x377 DUP7 PUSH2 0x1D92 JUMP JUMPDEST PUSH1 0x1F NOT ADD CALLDATASIZE PUSH1 0x20 PUSH1 0x80 MLOAD ADD CALLDATACOPY PUSH2 0x39D PUSH2 0x38F DUP8 PUSH2 0x1D92 JUMP JUMPDEST PUSH1 0x40 MLOAD PUSH1 0xA0 MSTORE PUSH1 0xA0 MLOAD PUSH2 0x1D00 JUMP JUMPDEST DUP6 PUSH1 0xA0 MLOAD MSTORE PUSH2 0x3AB DUP7 PUSH2 0x1D92 JUMP JUMPDEST PUSH1 0x1F NOT ADD CALLDATASIZE PUSH1 0x20 PUSH1 0xA0 MLOAD ADD CALLDATACOPY PUSH2 0x3D1 PUSH2 0x3C3 DUP8 PUSH2 0x1D92 JUMP JUMPDEST PUSH1 0x40 MLOAD PUSH1 0xC0 MSTORE PUSH1 0xC0 MLOAD PUSH2 0x1D00 JUMP JUMPDEST DUP6 PUSH1 0xC0 MLOAD MSTORE PUSH2 0x3DF DUP7 PUSH2 0x1D92 JUMP JUMPDEST PUSH1 0x1F NOT ADD CALLDATASIZE PUSH1 0x20 PUSH1 0xC0 MLOAD ADD CALLDATACOPY PUSH2 0x3F4 DUP7 PUSH2 0x1E29 JUMP JUMPDEST PUSH1 0xE0 MSTORE PUSH2 0x42B PUSH2 0x403 DUP8 PUSH2 0x1E29 JUMP JUMPDEST SWAP7 PUSH2 0x420 PUSH2 0x410 DUP3 PUSH2 0x1D92 JUMP JUMPDEST PUSH1 0x40 MLOAD PUSH2 0x100 MSTORE PUSH2 0x100 MLOAD PUSH2 0x1D00 JUMP JUMPDEST DUP1 PUSH2 0x100 MLOAD MSTORE PUSH2 0x1D92 JUMP JUMPDEST PUSH1 0x1F NOT ADD CALLDATASIZE PUSH1 0x20 PUSH2 0x100 MLOAD ADD CALLDATACOPY PUSH0 SWAP5 DUP6 JUMPDEST DUP10 MLOAD DUP8 LT ISZERO PUSH2 0x68F JUMPI PUSH1 0x4 CALLDATALOAD PUSH0 SWAP1 DUP2 MSTORE PUSH1 0x2 PUSH1 0x20 MSTORE PUSH1 0x40 SWAP1 KECCAK256 PUSH1 0x1 PUSH1 0x1 PUSH1 0xA0 SHL SUB PUSH2 0x467 DUP10 DUP14 PUSH2 0x1E07 JUMP JUMPDEST MLOAD AND PUSH0 MSTORE PUSH1 0x20 MSTORE PUSH1 0x1 PUSH1 0x1 PUSH1 0x40 SHL SUB PUSH1 0x40 PUSH0 KECCAK256 SLOAD AND PUSH2 0x140 MSTORE PUSH0 PUSH2 0x120 MSTORE JUMPDEST PUSH2 0x140 MLOAD PUSH1 0x1 PUSH1 0x1 PUSH1 0x40 SHL SUB PUSH2 0x120 MLOAD AND LT ISZERO PUSH2 0x684 JUMPI PUSH1 0x4 CALLDATALOAD PUSH0 SWAP1 DUP2 MSTORE PUSH1 0x1 PUSH1 0x20 MSTORE PUSH1 0x40 SWAP1 KECCAK256 PUSH1 0x1 PUSH1 0x1 PUSH1 0xA0 SHL SUB PUSH2 0x4BF DUP10 DUP14 PUSH2 0x1E07 JUMP JUMPDEST MLOAD AND PUSH0 MSTORE PUSH1 0x20 MSTORE PUSH1 0x40 PUSH0 KECCAK256 PUSH1 0x1 PUSH1 0x1 PUSH1 0x40 SHL SUB PUSH2 0x120 MLOAD AND PUSH0 MSTORE PUSH1 0x20 MSTORE PUSH1 0x40 PUSH0 KECCAK256 DUP7 ISZERO DUP8 ISZERO PUSH2 0x676 JUMPI JUMPDEST PUSH2 0x605 JUMPI DUP10 ISZERO ISZERO DUP1 PUSH2 0x641 JUMPI JUMPDEST PUSH2 0x605 JUMPI DUP4 ISZERO ISZERO DUP1 PUSH2 0x60C JUMPI JUMPDEST PUSH2 0x605 JUMPI PUSH2 0x5E9 SWAP2 SWAP1 PUSH1 0x1 PUSH1 0x1 PUSH1 0xA0 SHL SUB PUSH2 0x51E DUP11 DUP15 PUSH2 0x1E07 JUMP JUMPDEST MLOAD AND PUSH2 0x52A DUP4 DUP10 PUSH2 0x1E07 JUMP JUMPDEST MSTORE PUSH1 0x1 PUSH1 0x1 PUSH1 0x40 SHL SUB PUSH2 0x120 MLOAD AND PUSH2 0x544 DUP4 PUSH1 0x80 MLOAD PUSH2 0x1E07 JUMP JUMPDEST MSTORE PUSH1 0x6 DUP2 SLOAD SWAP2 DUP3 PUSH1 0xF SIGNEXTEND PUSH2 0x55A DUP6 PUSH1 0xA0 MLOAD PUSH2 0x1E07 JUMP JUMPDEST MSTORE PUSH1 0xFF DUP1 SWAP4 PUSH1 0x80 SHR AND PUSH2 0x56F DUP6 PUSH1 0xC0 MLOAD PUSH2 0x1E07 JUMP JUMPDEST MSTORE PUSH1 0x40 MLOAD PUSH2 0x584 DUP2 PUSH2 0x27A DUP2 PUSH1 0x1 DUP7 ADD PUSH2 0x1C6F JUMP JUMPDEST PUSH2 0x590 DUP6 PUSH1 0xE0 MLOAD PUSH2 0x1E07 JUMP JUMPDEST MSTORE PUSH2 0x59D DUP5 PUSH1 0xE0 MLOAD PUSH2 0x1E07 JUMP JUMPDEST POP PUSH1 0x40 MLOAD PUSH2 0x5C3 DUP6 DUP15 PUSH2 0x5BE DUP5 PUSH2 0x5B7 DUP2 PUSH1 0x2 DUP10 ADD PUSH2 0x1C6F JUMP JUMPDEST SUB DUP6 PUSH2 0x1D00 JUMP JUMPDEST PUSH2 0x1E07 JUMP JUMPDEST MSTORE PUSH2 0x5CE DUP5 DUP14 PUSH2 0x1E07 JUMP JUMPDEST POP ADD SLOAD AND PUSH2 0x5DF DUP3 PUSH2 0x100 MLOAD PUSH2 0x1E07 JUMP JUMPDEST SWAP1 ISZERO ISZERO SWAP1 MSTORE PUSH2 0x1E1B JUMP JUMPDEST SWAP8 JUMPDEST PUSH1 0x1 PUSH1 0x1 PUSH1 0x40 SHL SUB PUSH1 0x1 PUSH2 0x120 MLOAD ADD AND PUSH2 0x120 MSTORE SWAP8 PUSH2 0x486 JUMP JUMPDEST POP SWAP8 PUSH2 0x5EB JUMP JUMPDEST POP PUSH1 0x40 MLOAD PUSH2 0x621 DUP2 PUSH2 0x27A DUP2 PUSH1 0x2 DUP7 ADD PUSH2 0x1C6F JUMP JUMPDEST PUSH1 0x20 DUP2 MLOAD SWAP2 ADD KECCAK256 PUSH2 0x633 CALLDATASIZE DUP7 DUP9 PUSH2 0x1D3C JUMP JUMPDEST PUSH1 0x20 DUP2 MLOAD SWAP2 ADD KECCAK256 EQ ISZERO PUSH2 0x503 JUMP JUMPDEST POP PUSH1 0x40 MLOAD PUSH2 0x656 DUP2 PUSH2 0x27A DUP2 PUSH1 0x1 DUP7 ADD PUSH2 0x1C6F JUMP JUMPDEST PUSH1 0x20 DUP2 MLOAD SWAP2 ADD KECCAK256 PUSH2 0x668 CALLDATASIZE DUP13 DUP7 PUSH2 0x1D3C JUMP JUMPDEST PUSH1 0x20 DUP2 MLOAD SWAP2 ADD KECCAK256 EQ ISZERO PUSH2 0x4F6 JUMP JUMPDEST POP PUSH1 0xFF PUSH1 0x6 DUP3 ADD SLOAD AND PUSH2 0x4E9 JUMP JUMPDEST PUSH1 0x1 SWAP1 SWAP7 ADD SWAP6 PUSH2 0x43C JUMP JUMPDEST PUSH2 0x6A8 DUP6 DUP10 PUSH1 0x40 MLOAD SWAP3 DUP4 SWAP3 PUSH1 0xE0 DUP5 MSTORE PUSH1 0xE0 DUP5 ADD SWAP1 PUSH2 0x1B6F JUMP JUMPDEST DUP3 DUP2 SUB PUSH1 0x20 DUP5 ADD MSTORE PUSH1 0x20 PUSH1 0x80 MLOAD MLOAD SWAP2 DUP3 DUP2 MSTORE ADD SWAP1 PUSH1 0x20 PUSH1 0x80 MLOAD ADD SWAP1 PUSH0 JUMPDEST DUP2 DUP2 LT PUSH2 0x7C3 JUMPI POP POP POP DUP3 DUP2 SUB PUSH1 0x40 DUP5 ADD MSTORE PUSH1 0x20 PUSH1 0xA0 MLOAD MLOAD SWAP2 DUP3 DUP2 MSTORE ADD SWAP1 PUSH1 0x20 PUSH1 0xA0 MLOAD ADD SWAP1 PUSH0 JUMPDEST DUP2 DUP2 LT PUSH2 0x7A7 JUMPI POP POP POP DUP3 DUP2 SUB PUSH1 0x60 DUP5 ADD MSTORE PUSH1 0x20 PUSH1 0xC0 MLOAD MLOAD SWAP2 DUP3 DUP2 MSTORE ADD SWAP1 PUSH1 0x20 PUSH1 0xC0 MLOAD ADD SWAP1 PUSH0 JUMPDEST DUP2 DUP2 LT PUSH2 0x78B JUMPI POP POP POP SWAP1 PUSH2 0x735 DUP3 DUP5 PUSH2 0x743 SWAP5 SUB PUSH1 0x80 DUP7 ADD MSTORE PUSH1 0xE0 MLOAD PUSH2 0x1BDB JUMP JUMPDEST SWAP1 DUP4 DUP3 SUB PUSH1 0xA0 DUP6 ADD MSTORE PUSH2 0x1BDB JUMP JUMPDEST DUP2 DUP2 SUB PUSH1 0xC0 DUP4 ADD MSTORE PUSH1 0x20 PUSH2 0x100 MLOAD MLOAD SWAP2 DUP3 DUP2 MSTORE ADD SWAP1 PUSH1 0x20 PUSH2 0x100 MLOAD ADD SWAP1 PUSH0 JUMPDEST DUP2 DUP2 LT PUSH2 0x770 JUMPI POP POP POP SUB SWAP1 RETURN JUMPDEST DUP3 MLOAD ISZERO ISZERO DUP5 MSTORE DUP6 SWAP5 POP PUSH1 0x20 SWAP4 DUP5 ADD SWAP4 SWAP1 SWAP3 ADD SWAP2 PUSH1 0x1 ADD PUSH2 0x762 JUMP JUMPDEST DUP3 MLOAD PUSH1 0xFF AND DUP5 MSTORE DUP7 SWAP6 POP PUSH1 0x20 SWAP4 DUP5 ADD SWAP4 SWAP1 SWAP3 ADD SWAP2 PUSH1 0x1 ADD PUSH2 0x713 JUMP JUMPDEST DUP3 MLOAD PUSH1 0xF SIGNEXTEND DUP5 MSTORE DUP7 SWAP6 POP PUSH1 0x20 SWAP4 DUP5 ADD SWAP4 SWAP1 SWAP3 ADD SWAP2 PUSH1 0x1 ADD PUSH2 0x6EC JUMP JUMPDEST DUP3 MLOAD PUSH1 0x1 PUSH1 0x1 PUSH1 0x40 SHL SUB AND DUP5 MSTORE DUP7 SWAP6 POP PUSH1 0x20 SWAP4 DUP5 ADD SWAP4 SWAP1 SWAP3 ADD SWAP2 PUSH1 0x1 ADD PUSH2 0x6C5 JUMP JUMPDEST POP POP PUSH1 0x4 CALLDATALOAD PUSH0 MSTORE PUSH1 0x20 PUSH1 0x3 PUSH1 0x20 MSTORE PUSH1 0x40 PUSH0 KECCAK256 SWAP1 PUSH1 0x40 MLOAD DUP1 SWAP3 DUP4 SWAP2 PUSH1 0x20 DUP3 SLOAD SWAP2 DUP3 DUP2 MSTORE ADD SWAP2 PUSH0 MSTORE PUSH1 0x20 PUSH0 KECCAK256 SWAP4 PUSH0 SWAP1 JUMPDEST DUP3 DUP3 LT PUSH2 0x82F JUMPI POP POP POP PUSH2 0x829 SWAP3 POP SUB DUP3 PUSH2 0x1D00 JUMP JUMPDEST SWAP3 PUSH2 0x170 JUMP JUMPDEST DUP6 SLOAD PUSH1 0x1 PUSH1 0x1 PUSH1 0xA0 SHL SUB AND DUP5 MSTORE PUSH1 0x1 SWAP6 DUP7 ADD SWAP6 DUP8 SWAP6 POP SWAP4 DUP2 ADD SWAP4 SWAP1 SWAP2 ADD SWAP1 PUSH2 0x813 JUMP JUMPDEST CALLVALUE PUSH2 0xD8 JUMPI PUSH1 0xA0 CALLDATASIZE PUSH1 0x3 NOT ADD SLT PUSH2 0xD8 JUMPI PUSH1 0x4 CALLDATALOAD PUSH2 0x86E PUSH2 0x1AD8 JUMP JUMPDEST PUSH2 0x876 PUSH2 0x1AEE JUMP JUMPDEST PUSH1 0x1 PUSH1 0x1 PUSH1 0x40 SHL SUB SWAP3 SWAP1 PUSH1 0x64 CALLDATALOAD DUP5 DUP2 GT PUSH2 0xD8 JUMPI PUSH2 0x898 SWAP1 CALLDATASIZE SWAP1 PUSH1 0x4 ADD PUSH2 0x1B42 JUMP JUMPDEST PUSH1 0x84 CALLDATALOAD SWAP6 DUP5 PUSH0 MSTORE PUSH1 0x20 SWAP1 PUSH1 0x5 DUP3 MSTORE PUSH1 0x40 PUSH0 KECCAK256 SWAP7 PUSH1 0x1 DUP1 PUSH1 0xA0 SHL SUB DUP1 SWAP2 AND SWAP8 DUP9 PUSH0 MSTORE DUP4 MSTORE DUP2 PUSH1 0x40 PUSH0 KECCAK256 SWAP7 AND SWAP6 DUP7 PUSH0 MSTORE DUP4 MSTORE PUSH1 0x40 PUSH0 KECCAK256 PUSH1 0x40 MLOAD SWAP3 PUSH1 0x60 DUP5 ADD DUP5 DUP2 LT DUP3 DUP3 GT OR PUSH2 0xAC3 JUMPI PUSH1 0x40 MSTORE CALLER DUP5 MSTORE PUSH2 0x8F0 CALLDATASIZE DUP8 DUP10 PUSH2 0x1D3C JUMP JUMPDEST SWAP2 DUP6 DUP6 ADD SWAP3 DUP4 MSTORE PUSH1 0x40 DUP6 ADD SWAP4 DUP13 DUP6 MSTORE DUP2 SLOAD PUSH1 0x1 PUSH1 0x40 SHL DUP2 LT ISZERO PUSH2 0xAC3 JUMPI PUSH1 0x1 SWAP3 DUP4 DUP3 ADD DUP1 DUP3 SSTORE DUP3 LT ISZERO PUSH2 0xAD7 JUMPI PUSH0 MSTORE PUSH1 0x3 DUP9 PUSH0 KECCAK256 SWAP2 MUL ADD SWAP6 MLOAD AND PUSH12 0xFFFFFFFFFFFFFFFFFFFFFFFF PUSH1 0xA0 SHL DUP7 SLOAD AND OR DUP6 SSTORE DUP1 DUP6 ADD SWAP3 MLOAD DUP1 MLOAD SWAP3 DUP4 GT PUSH2 0xAC3 JUMPI PUSH2 0x958 DUP5 SLOAD PUSH2 0x1C37 JUMP JUMPDEST PUSH1 0x1F DUP2 GT PUSH2 0xA7D JUMPI JUMPDEST POP DUP7 SWAP1 PUSH1 0x1F DUP5 GT PUSH1 0x1 EQ PUSH2 0x9EC JUMPI SWAP4 DUP4 DUP1 PUSH2 0x9D3 SWAP11 SWAP9 SWAP6 PUSH1 0x2 SWAP6 PUSH1 0x60 SWAP10 SWAP6 PUSH32 0xB1C6BE0B5B8AEF6539E2FAC0FD131A2FAA7B49EDF8E505B5EB0AD487D56051D4 SWAP16 SWAP15 SWAP13 SWAP10 PUSH0 SWAP5 PUSH2 0x9E1 JUMPI JUMPDEST POP POP SHL SWAP2 PUSH0 NOT SWAP1 PUSH1 0x3 SHL SHR NOT AND OR SWAP1 SSTORE JUMPDEST MLOAD SWAP2 ADD SSTORE PUSH1 0x40 MLOAD SWAP6 DUP7 MSTORE DUP6 ADD MSTORE PUSH1 0x60 DUP5 ADD SWAP2 PUSH2 0x1D72 JUMP JUMPDEST SWAP5 PUSH1 0x40 DUP3 ADD MSTORE DUP1 CALLER SWAP6 SUB SWAP1 LOG4 STOP JUMPDEST ADD MLOAD SWAP3 POP PUSH0 DUP1 PUSH2 0x9AB JUMP JUMPDEST SWAP1 PUSH1 0x1F SWAP4 SWAP3 SWAP4 NOT DUP4 AND SWAP2 DUP6 PUSH0 MSTORE DUP9 PUSH0 KECCAK256 SWAP3 PUSH0 JUMPDEST DUP2 DUP2 LT PUSH2 0xA68 JUMPI POP SWAP4 PUSH1 0x60 SWAP8 SWAP4 PUSH32 0xB1C6BE0B5B8AEF6539E2FAC0FD131A2FAA7B49EDF8E505B5EB0AD487D56051D4 SWAP14 SWAP13 SWAP11 SWAP8 SWAP4 PUSH2 0x9D3 SWAP13 SWAP11 SWAP8 SWAP4 DUP4 PUSH1 0x2 SWAP9 LT PUSH2 0xA50 JUMPI JUMPDEST POP POP POP DUP2 SHL ADD SWAP1 SSTORE PUSH2 0x9BC JUMP JUMPDEST ADD MLOAD PUSH0 NOT PUSH1 0xF8 DUP5 PUSH1 0x3 SHL AND SHR NOT AND SWAP1 SSTORE PUSH0 DUP1 DUP1 PUSH2 0xA43 JUMP JUMPDEST DUP3 DUP5 ADD MLOAD DUP6 SSTORE SWAP4 DUP7 ADD SWAP4 SWAP3 DUP11 ADD SWAP3 DUP11 ADD PUSH2 0x9FF JUMP JUMPDEST DUP5 PUSH0 MSTORE DUP8 PUSH0 KECCAK256 PUSH1 0x1F DUP6 ADD PUSH1 0x5 SHR DUP2 ADD SWAP2 DUP10 DUP7 LT PUSH2 0xAB9 JUMPI JUMPDEST PUSH1 0x1F ADD PUSH1 0x5 SHR ADD SWAP1 DUP4 SWAP1 JUMPDEST DUP3 DUP2 LT PUSH2 0xAAE JUMPI POP POP PUSH2 0x961 JUMP JUMPDEST PUSH0 DUP2 SSTORE ADD DUP4 SWAP1 PUSH2 0xAA0 JUMP JUMPDEST SWAP1 SWAP2 POP DUP2 SWAP1 PUSH2 0xA95 JUMP JUMPDEST PUSH4 0x4E487B71 PUSH1 0xE0 SHL PUSH0 MSTORE PUSH1 0x41 PUSH1 0x4 MSTORE PUSH1 0x24 PUSH0 REVERT JUMPDEST PUSH4 0x4E487B71 PUSH1 0xE0 SHL PUSH0 MSTORE PUSH1 0x32 PUSH1 0x4 MSTORE PUSH1 0x24 PUSH0 REVERT JUMPDEST CALLVALUE PUSH2 0xD8 JUMPI PUSH0 CALLDATASIZE PUSH1 0x3 NOT ADD SLT PUSH2 0xD8 JUMPI PUSH0 SLOAD PUSH1 0x40 MLOAD PUSH1 0x1 PUSH1 0x1 PUSH1 0xA0 SHL SUB SWAP1 SWAP2 AND DUP2 MSTORE PUSH1 0x20 SWAP1 RETURN JUMPDEST CALLVALUE PUSH2 0xD8 JUMPI PUSH1 0x80 CALLDATASIZE PUSH1 0x3 NOT ADD SLT PUSH2 0xD8 JUMPI PUSH1 0x24 DUP1 CALLDATALOAD PUSH1 0x1 PUSH1 0x1 PUSH1 0x40 SHL SUB DUP2 GT PUSH2 0xD8 JUMPI PUSH2 0xB43 SWAP1 CALLDATASIZE SWAP1 PUSH1 0x4 ADD PUSH2 0x1BAB JUMP JUMPDEST SWAP2 PUSH1 0x44 CALLDATALOAD PUSH1 0x1 PUSH1 0x1 PUSH1 0x40 SHL SUB DUP2 GT PUSH2 0xD8 JUMPI PUSH2 0xB63 SWAP1 CALLDATASIZE SWAP1 PUSH1 0x4 ADD PUSH2 0x1B42 JUMP JUMPDEST PUSH1 0x64 CALLDATALOAD PUSH1 0x1 PUSH1 0x1 PUSH1 0x40 SHL SUB DUP2 GT PUSH2 0xD8 JUMPI PUSH2 0xB82 SWAP1 CALLDATASIZE SWAP1 PUSH1 0x4 ADD PUSH2 0x1B42 JUMP JUMPDEST SWAP6 PUSH0 SWAP6 DUP2 ISZERO PUSH2 0xE39 JUMPI PUSH2 0xB96 SWAP2 CALLDATASIZE SWAP2 PUSH2 0x1DA9 JUMP JUMPDEST SWAP3 SWAP6 JUMPDEST PUSH0 SWAP7 PUSH0 SWAP5 PUSH0 SWAP1 JUMPDEST DUP1 MLOAD DUP3 LT ISZERO PUSH2 0xDBB JUMPI PUSH1 0x4 CALLDATALOAD PUSH0 SWAP1 DUP2 MSTORE PUSH1 0x2 PUSH1 0x20 MSTORE PUSH1 0x40 SWAP1 KECCAK256 SWAP7 SWAP10 SWAP7 PUSH1 0x1 PUSH1 0x1 PUSH1 0xA0 SHL SUB PUSH2 0xBCE DUP5 DUP5 PUSH2 0x1E07 JUMP JUMPDEST MLOAD AND PUSH0 MSTORE PUSH1 0x20 MSTORE PUSH1 0x1 PUSH1 0x1 PUSH1 0x40 SHL SUB PUSH1 0x40 PUSH0 KECCAK256 SLOAD AND SWAP10 PUSH0 SWAP8 JUMPDEST DUP12 PUSH1 0x1 PUSH1 0x1 PUSH1 0x40 SHL SUB DUP11 AND LT ISZERO PUSH2 0xDAC JUMPI PUSH1 0x4 CALLDATALOAD PUSH0 SWAP1 DUP2 MSTORE PUSH1 0x1 PUSH1 0x20 MSTORE PUSH1 0x40 SWAP1 KECCAK256 PUSH1 0x1 PUSH1 0x1 PUSH1 0xA0 SHL SUB PUSH2 0xC1A DUP7 DUP7 PUSH2 0x1E07 JUMP JUMPDEST MLOAD AND PUSH0 MSTORE PUSH1 0x20 MSTORE PUSH1 0x40 PUSH0 KECCAK256 PUSH1 0x1 PUSH1 0x1 PUSH1 0x40 SHL SUB DUP11 AND PUSH0 MSTORE PUSH1 0x20 MSTORE PUSH1 0x40 PUSH0 KECCAK256 PUSH1 0xFF PUSH1 0x6 DUP3 ADD SLOAD AND PUSH2 0xD2F JUMPI DUP9 ISZERO ISZERO DUP1 PUSH2 0xD77 JUMPI JUMPDEST PUSH2 0xD2F JUMPI DUP7 ISZERO ISZERO DUP1 PUSH2 0xD42 JUMPI JUMPDEST PUSH2 0xD2F JUMPI SLOAD SWAP1 DUP2 PUSH1 0xF SIGNEXTEND SWAP2 PUSH1 0xFF PUSH1 0x12 SWAP2 PUSH1 0x80 SHR AND DUP2 SUB SWAP1 DUP2 GT PUSH2 0xD1C JUMPI PUSH1 0x4D DUP2 GT PUSH2 0xD1C JUMPI PUSH1 0xA EXP DUP3 DUP2 MUL SWAP3 SWAP1 PUSH0 DUP3 SLT PUSH1 0x1 PUSH1 0xFF SHL DUP3 EQ AND PUSH2 0xD09 JUMPI DUP2 DUP5 SDIV EQ SWAP1 ISZERO OR ISZERO PUSH2 0xCF6 JUMPI DUP2 DUP1 DUP3 ADD SLT PUSH0 DUP3 SLT SWAP1 DUP1 ISZERO DUP3 AND SWAP2 ISZERO AND OR PUSH2 0xCF6 JUMPI ADD SWAP1 PUSH1 0x1 PUSH1 0x1 PUSH1 0x40 SHL SUB DUP1 DUP3 AND EQ PUSH2 0xCE3 JUMPI PUSH1 0x1 DUP1 PUSH1 0x1 PUSH1 0x1 PUSH1 0x40 SHL SUB DUP1 SWAP4 AND ADD SWAP10 JUMPDEST ADD AND SWAP8 SWAP1 PUSH2 0xBE7 JUMP JUMPDEST DUP10 PUSH4 0x4E487B71 PUSH1 0xE0 SHL PUSH0 MSTORE PUSH1 0x11 PUSH1 0x4 MSTORE PUSH0 REVERT JUMPDEST DUP11 PUSH4 0x4E487B71 PUSH1 0xE0 SHL PUSH0 MSTORE PUSH1 0x11 PUSH1 0x4 MSTORE PUSH0 REVERT JUMPDEST DUP13 PUSH4 0x4E487B71 PUSH1 0xE0 SHL PUSH0 MSTORE PUSH1 0x11 PUSH1 0x4 MSTORE PUSH0 REVERT JUMPDEST DUP12 PUSH4 0x4E487B71 PUSH1 0xE0 SHL PUSH0 MSTORE PUSH1 0x11 PUSH1 0x4 MSTORE PUSH0 REVERT JUMPDEST POP SWAP1 SWAP8 PUSH1 0x1 PUSH1 0x1 PUSH1 0x1 PUSH1 0x40 SHL SUB SWAP2 PUSH2 0xCDA JUMP JUMPDEST POP PUSH1 0x40 MLOAD PUSH2 0xD57 DUP2 PUSH2 0x27A DUP2 PUSH1 0x2 DUP7 ADD PUSH2 0x1C6F JUMP JUMPDEST PUSH1 0x20 DUP2 MLOAD SWAP2 ADD KECCAK256 PUSH2 0xD69 CALLDATASIZE DUP10 DUP12 PUSH2 0x1D3C JUMP JUMPDEST PUSH1 0x20 DUP2 MLOAD SWAP2 ADD KECCAK256 EQ ISZERO PUSH2 0xC5A JUMP JUMPDEST POP PUSH1 0x40 MLOAD PUSH2 0xD8C DUP2 PUSH2 0x27A DUP2 PUSH1 0x1 DUP7 ADD PUSH2 0x1C6F JUMP JUMPDEST PUSH1 0x20 DUP2 MLOAD SWAP2 ADD KECCAK256 PUSH2 0xD9E CALLDATASIZE DUP12 DUP10 PUSH2 0x1D3C JUMP JUMPDEST PUSH1 0x20 DUP2 MLOAD SWAP2 ADD KECCAK256 EQ ISZERO PUSH2 0xC4D JUMP JUMPDEST SWAP11 POP SWAP7 POP PUSH1 0x1 SWAP1 SWAP2 ADD SWAP1 PUSH2 0xBA0 JUMP JUMPDEST DUP10 PUSH1 0x1 PUSH1 0x1 PUSH1 0x40 SHL SUB DUP9 AND DUP11 DUP11 DUP3 ISZERO DUP1 ISZERO PUSH2 0xDEC JUMPI JUMPDEST PUSH1 0x60 DUP5 DUP5 PUSH1 0x40 MLOAD SWAP2 DUP3 MSTORE PUSH1 0xF SIGNEXTEND PUSH1 0x20 DUP3 ADD MSTORE PUSH1 0x12 PUSH1 0x40 DUP3 ADD MSTORE RETURN JUMPDEST SWAP1 SWAP2 POP PUSH2 0xE26 JUMPI PUSH1 0x1 PUSH1 0xFF SHL DUP4 EQ PUSH0 NOT DUP4 EQ AND PUSH2 0xE13 JUMPI POP DUP1 PUSH1 0x60 SWAP3 SDIV PUSH1 0xF SIGNEXTEND DUP4 DUP1 PUSH2 0xDD1 JUMP JUMPDEST PUSH4 0x4E487B71 PUSH1 0xE0 SHL PUSH0 SWAP1 DUP2 MSTORE PUSH1 0x11 PUSH1 0x4 MSTORE REVERT JUMPDEST PUSH4 0x4E487B71 PUSH1 0xE0 SHL PUSH0 SWAP1 DUP2 MSTORE PUSH1 0x12 PUSH1 0x4 MSTORE REVERT JUMPDEST POP POP PUSH1 0x4 CALLDATALOAD PUSH0 MSTORE PUSH1 0x20 PUSH1 0x3 PUSH1 0x20 MSTORE PUSH1 0x40 PUSH0 KECCAK256 SWAP1 PUSH1 0x40 MLOAD DUP1 SWAP3 DUP4 SWAP2 PUSH1 0x20 DUP3 SLOAD SWAP2 DUP3 DUP2 MSTORE ADD SWAP2 PUSH0 MSTORE PUSH1 0x20 PUSH0 KECCAK256 SWAP4 PUSH0 SWAP1 JUMPDEST DUP3 DUP3 LT PUSH2 0xE84 JUMPI POP POP POP PUSH2 0xE7D SWAP3 POP SUB DUP3 PUSH2 0x1D00 JUMP JUMPDEST SWAP3 SWAP6 PUSH2 0xB99 JUMP JUMPDEST DUP6 SLOAD PUSH1 0x1 PUSH1 0x1 PUSH1 0xA0 SHL SUB AND DUP5 MSTORE PUSH1 0x1 SWAP6 DUP7 ADD SWAP6 DUP8 SWAP6 POP SWAP4 DUP2 ADD SWAP4 SWAP1 SWAP2 ADD SWAP1 PUSH2 0xE67 JUMP JUMPDEST CALLVALUE PUSH2 0xD8 JUMPI PUSH1 0x80 CALLDATASIZE PUSH1 0x3 NOT ADD SLT PUSH2 0xD8 JUMPI PUSH2 0xEC0 PUSH2 0x1AD8 JUMP JUMPDEST PUSH2 0xEC8 PUSH2 0x1AEE JUMP JUMPDEST SWAP1 PUSH1 0x64 CALLDATALOAD SWAP2 PUSH1 0x1 PUSH1 0x1 PUSH1 0x40 SHL SUB SWAP2 DUP3 DUP5 GT PUSH2 0xD8 JUMPI PUSH2 0xEED PUSH1 0x20 SWAP5 CALLDATASIZE SWAP1 PUSH1 0x4 ADD PUSH2 0x1BAB JUMP JUMPDEST POP POP PUSH1 0x4 CALLDATALOAD PUSH0 MSTORE PUSH1 0x5 DUP5 MSTORE PUSH1 0x40 PUSH0 KECCAK256 SWAP1 PUSH1 0x1 DUP1 PUSH1 0xA0 SHL SUB AND PUSH0 MSTORE DUP4 MSTORE DUP2 PUSH1 0x40 PUSH0 KECCAK256 SWAP2 AND PUSH0 MSTORE DUP3 MSTORE PUSH1 0x40 PUSH0 KECCAK256 SLOAD AND PUSH1 0x40 MLOAD SWAP1 DUP2 MSTORE RETURN JUMPDEST CALLVALUE PUSH2 0xD8 JUMPI PUSH1 0x40 CALLDATASIZE PUSH1 0x3 NOT ADD SLT PUSH2 0xD8 JUMPI PUSH1 0x4 CALLDATALOAD PUSH1 0x24 CALLDATALOAD SWAP1 PUSH1 0x1 PUSH1 0x1 PUSH1 0x40 SHL SUB DUP3 AND DUP1 SWAP3 SUB PUSH2 0xD8 JUMPI DUP1 PUSH0 MSTORE PUSH1 0x1 PUSH1 0x20 MSTORE PUSH1 0x40 PUSH0 KECCAK256 CALLER PUSH0 MSTORE PUSH1 0x20 MSTORE PUSH1 0x40 PUSH0 KECCAK256 DUP3 PUSH0 MSTORE PUSH1 0x20 MSTORE PUSH1 0x40 PUSH0 KECCAK256 DUP1 SLOAD PUSH1 0xFF DUP2 PUSH1 0x80 SHR AND ISZERO SWAP1 DUP2 ISZERO SWAP2 PUSH2 0x1076 JUMPI JUMPDEST POP DUP1 ISZERO PUSH2 0x1061 JUMPI JUMPDEST DUP1 ISZERO PUSH2 0x104C JUMPI JUMPDEST ISZERO PUSH2 0x1007 JUMPI PUSH1 0x6 ADD DUP1 SLOAD PUSH1 0xFF DUP2 AND PUSH2 0xFD0 JUMPI PUSH1 0xFF NOT AND PUSH1 0x1 OR SWAP1 SSTORE CALLER SWAP1 PUSH32 0x25156FD3288212246D8B008D5921FDE376C71ED14AC2E072A506EB06FDE6D09D PUSH0 DUP1 LOG4 STOP JUMPDEST PUSH1 0x40 MLOAD PUSH3 0x461BCD PUSH1 0xE5 SHL DUP2 MSTORE PUSH1 0x20 PUSH1 0x4 DUP3 ADD MSTORE PUSH1 0xF PUSH1 0x24 DUP3 ADD MSTORE PUSH15 0x105B1C9958591E481C995D9BDAD959 PUSH1 0x8A SHL PUSH1 0x44 DUP3 ADD MSTORE PUSH1 0x64 SWAP1 REVERT JUMPDEST PUSH1 0x40 MLOAD PUSH3 0x461BCD PUSH1 0xE5 SHL DUP2 MSTORE PUSH1 0x20 PUSH1 0x4 DUP3 ADD MSTORE PUSH1 0x17 PUSH1 0x24 DUP3 ADD MSTORE PUSH32 0x466565646261636B20646F6573206E6F74206578697374000000000000000000 PUSH1 0x44 DUP3 ADD MSTORE PUSH1 0x64 SWAP1 REVERT JUMPDEST POP PUSH2 0x105A PUSH1 0x4 DUP3 ADD SLOAD PUSH2 0x1C37 JUMP JUMPDEST ISZERO ISZERO PUSH2 0xF8D JUMP JUMPDEST POP PUSH2 0x106F PUSH1 0x1 DUP3 ADD SLOAD PUSH2 0x1C37 JUMP JUMPDEST ISZERO ISZERO PUSH2 0xF86 JUMP JUMPDEST SWAP1 POP PUSH1 0xF SIGNEXTEND ISZERO ISZERO DUP5 PUSH2 0xF7E JUMP JUMPDEST CALLVALUE PUSH2 0xD8 JUMPI PUSH1 0x20 DUP1 PUSH1 0x3 NOT CALLDATASIZE ADD SLT PUSH2 0xD8 JUMPI PUSH1 0x4 CALLDATALOAD PUSH0 MSTORE PUSH1 0x3 DUP2 MSTORE PUSH1 0x40 PUSH0 KECCAK256 SWAP1 PUSH1 0x40 MLOAD DUP1 DUP4 DUP4 DUP3 SWAP6 SLOAD SWAP4 DUP5 DUP2 MSTORE ADD SWAP1 PUSH0 MSTORE DUP4 PUSH0 KECCAK256 SWAP3 PUSH0 JUMPDEST DUP6 DUP3 DUP3 LT PUSH2 0x10E9 JUMPI POP POP POP PUSH2 0x10D1 SWAP3 POP SUB DUP4 PUSH2 0x1D00 JUMP JUMPDEST PUSH2 0x10E5 PUSH1 0x40 MLOAD SWAP3 DUP3 DUP5 SWAP4 DUP5 MSTORE DUP4 ADD SWAP1 PUSH2 0x1B6F JUMP JUMPDEST SUB SWAP1 RETURN JUMPDEST DUP6 SLOAD PUSH1 0x1 PUSH1 0x1 PUSH1 0xA0 SHL SUB AND DUP5 MSTORE PUSH1 0x1 SWAP6 DUP7 ADD SWAP6 DUP9 SWAP6 POP SWAP4 ADD SWAP3 ADD PUSH2 0x10BA JUMP JUMPDEST CALLVALUE PUSH2 0xD8 JUMPI PUSH2 0x100 CALLDATASIZE PUSH1 0x3 NOT ADD SLT PUSH2 0xD8 JUMPI PUSH1 0x24 CALLDATALOAD DUP1 PUSH1 0xF SIGNEXTEND DUP2 SUB PUSH2 0xD8 JUMPI PUSH1 0x44 CALLDATALOAD PUSH1 0xFF DUP2 AND DUP2 SUB PUSH2 0xD8 JUMPI PUSH1 0x64 CALLDATALOAD PUSH1 0x1 PUSH1 0x1 PUSH1 0x40 SHL SUB DUP2 GT PUSH2 0xD8 JUMPI PUSH2 0x1153 SWAP1 CALLDATASIZE SWAP1 PUSH1 0x4 ADD PUSH2 0x1B42 JUMP JUMPDEST SWAP1 PUSH1 0x84 CALLDATALOAD PUSH1 0x1 PUSH1 0x1 PUSH1 0x40 SHL SUB DUP2 GT PUSH2 0xD8 JUMPI PUSH2 0x1173 SWAP1 CALLDATASIZE SWAP1 PUSH1 0x4 ADD PUSH2 0x1B42 JUMP JUMPDEST SWAP1 PUSH1 0xA4 CALLDATALOAD PUSH1 0x1 PUSH1 0x1 PUSH1 0x40 SHL SUB DUP2 GT PUSH2 0xD8 JUMPI PUSH2 0x1193 SWAP1 CALLDATASIZE SWAP1 PUSH1 0x4 ADD PUSH2 0x1B42 JUMP JUMPDEST SWAP2 SWAP1 SWAP3 PUSH1 0xC4 CALLDATALOAD PUSH1 0x1 PUSH1 0x1 PUSH1 0x40 SHL SUB DUP2 GT PUSH2 0xD8 JUMPI PUSH2 0x11B5 SWAP1 CALLDATASIZE SWAP1 PUSH1 0x4 ADD PUSH2 0x1B42 JUMP JUMPDEST SWAP6 SWAP1 SWAP7 PUSH1 0x1 DUP1 PUSH1 0xA0 SHL SUB PUSH0 SLOAD AND PUSH1 0x40 MLOAD SWAP1 PUSH4 0x31A9108F PUSH1 0xE1 SHL PUSH1 0x20 DUP4 ADD MSTORE PUSH1 0x4 CALLDATALOAD PUSH1 0x24 DUP4 ADD MSTORE PUSH1 0x24 DUP3 MSTORE DUP2 PUSH1 0x60 DUP2 ADD LT PUSH1 0x1 PUSH1 0x1 PUSH1 0x40 SHL SUB PUSH1 0x60 DUP5 ADD GT OR PUSH2 0xAC3 JUMPI DUP2 PUSH0 SWAP3 SWAP2 PUSH1 0x60 DUP5 SWAP4 ADD PUSH1 0x40 MSTORE PUSH1 0x20 DUP3 MLOAD SWAP3 ADD SWAP1 GAS STATICCALL RETURNDATASIZE ISZERO PUSH2 0x19FA JUMPI RETURNDATASIZE SWAP1 PUSH2 0x121D DUP3 PUSH2 0x1D21 JUMP JUMPDEST SWAP2 PUSH2 0x122B PUSH1 0x40 MLOAD SWAP4 DUP5 PUSH2 0x1D00 JUMP JUMPDEST DUP3 MSTORE RETURNDATASIZE PUSH0 PUSH1 0x20 DUP5 ADD RETURNDATACOPY JUMPDEST DUP1 PUSH2 0x19EE JUMPI JUMPDEST PUSH2 0x197B JUMPI JUMPDEST POP PUSH1 0x4 CALLDATALOAD PUSH0 MSTORE PUSH1 0x4 PUSH1 0x20 MSTORE PUSH1 0x40 PUSH0 KECCAK256 CALLER PUSH0 MSTORE PUSH1 0x20 MSTORE PUSH1 0xFF PUSH1 0x40 PUSH0 KECCAK256 SLOAD AND ISZERO PUSH2 0x190A JUMPI JUMPDEST PUSH1 0x4 CALLDATALOAD PUSH0 MSTORE PUSH1 0x2 PUSH1 0x20 MSTORE PUSH1 0x40 PUSH0 KECCAK256 CALLER PUSH0 MSTORE PUSH1 0x20 MSTORE PUSH1 0x1 PUSH1 0x1 PUSH1 0x40 SHL SUB PUSH1 0x40 PUSH0 KECCAK256 SLOAD AND SWAP9 PUSH1 0x40 MLOAD DUP1 PUSH2 0x100 DUP2 ADD LT PUSH1 0x1 PUSH1 0x1 PUSH1 0x40 SHL SUB PUSH2 0x100 DUP4 ADD GT OR PUSH2 0xAC3 JUMPI PUSH2 0x100 DUP2 ADD PUSH1 0x40 MSTORE DUP12 PUSH1 0xF SIGNEXTEND DUP2 MSTORE PUSH1 0x20 DUP2 ADD PUSH1 0xFF DUP4 AND DUP2 MSTORE PUSH2 0x12C6 CALLDATASIZE DUP6 DUP8 PUSH2 0x1D3C JUMP JUMPDEST PUSH1 0x40 DUP4 ADD SWAP1 DUP2 MSTORE PUSH2 0x12D8 CALLDATASIZE DUP9 DUP11 PUSH2 0x1D3C JUMP JUMPDEST PUSH1 0x60 DUP5 ADD MSTORE PUSH2 0x12E8 CALLDATASIZE DUP11 DUP13 PUSH2 0x1D3C JUMP JUMPDEST PUSH1 0x80 DUP5 ADD MSTORE PUSH2 0x12F8 CALLDATASIZE DUP13 DUP15 PUSH2 0x1D3C JUMP JUMPDEST PUSH1 0xA0 DUP5 ADD MSTORE PUSH1 0xE4 CALLDATALOAD PUSH1 0xC0 DUP5 ADD MSTORE PUSH0 PUSH1 0xE0 DUP5 ADD MSTORE PUSH1 0x4 CALLDATALOAD PUSH0 MSTORE PUSH1 0x1 PUSH1 0x20 MSTORE PUSH1 0x40 PUSH0 KECCAK256 CALLER PUSH0 MSTORE PUSH1 0x20 MSTORE PUSH1 0x40 PUSH0 KECCAK256 DUP14 PUSH0 MSTORE PUSH1 0x20 MSTORE PUSH1 0x40 PUSH0 KECCAK256 SWAP2 DUP4 MLOAD SWAP1 PUSH16 0xFFFFFFFFFFFFFFFFFFFFFFFFFFFFFFFF DUP5 SLOAD SWAP2 PUSH1 0xFF PUSH1 0x80 SHL SWAP1 MLOAD PUSH1 0x80 SHL AND SWAP3 AND SWAP1 PUSH17 0xFFFFFFFFFFFFFFFFFFFFFFFFFFFFFFFFFF NOT AND OR OR DUP3 SSTORE MLOAD DUP1 MLOAD SWAP1 PUSH1 0x1 PUSH1 0x1 PUSH1 0x40 SHL SUB DUP3 GT PUSH2 0xAC3 JUMPI DUP2 SWAP1 PUSH2 0x138C PUSH1 0x1 DUP6 ADD SLOAD PUSH2 0x1C37 JUMP JUMPDEST PUSH1 0x1F DUP2 GT PUSH2 0x18BA JUMPI JUMPDEST POP PUSH1 0x20 SWAP1 PUSH1 0x1F DUP4 GT PUSH1 0x1 EQ PUSH2 0x184F JUMPI PUSH0 SWAP3 PUSH2 0x1844 JUMPI JUMPDEST POP POP DUP2 PUSH1 0x1 SHL SWAP2 PUSH0 NOT SWAP1 PUSH1 0x3 SHL SHR NOT AND OR PUSH1 0x1 DUP3 ADD SSTORE JUMPDEST PUSH1 0x60 DUP3 ADD MLOAD DUP1 MLOAD SWAP1 PUSH1 0x1 PUSH1 0x1 PUSH1 0x40 SHL SUB DUP3 GT PUSH2 0xAC3 JUMPI DUP2 SWAP1 PUSH2 0x13E7 PUSH1 0x2 DUP6 ADD SLOAD PUSH2 0x1C37 JUMP JUMPDEST PUSH1 0x1F DUP2 GT PUSH2 0x17F4 JUMPI JUMPDEST POP PUSH1 0x20 SWAP1 PUSH1 0x1F DUP4 GT PUSH1 0x1 EQ PUSH2 0x1789 JUMPI PUSH0 SWAP3 PUSH2 0x177E JUMPI JUMPDEST POP POP DUP2 PUSH1 0x1 SHL SWAP2 PUSH0 NOT SWAP1 PUSH1 0x3 SHL SHR NOT AND OR PUSH1 0x2 DUP3 ADD SSTORE JUMPDEST PUSH1 0x80 DUP3 ADD MLOAD DUP1 MLOAD SWAP1 PUSH1 0x1 PUSH1 0x1 PUSH1 0x40 SHL SUB DUP3 GT PUSH2 0xAC3 JUMPI DUP2 SWAP1 PUSH2 0x1442 PUSH1 0x3 DUP6 ADD SLOAD PUSH2 0x1C37 JUMP JUMPDEST PUSH1 0x1F DUP2 GT PUSH2 0x172E JUMPI JUMPDEST POP PUSH1 0x20 SWAP1 PUSH1 0x1F DUP4 GT PUSH1 0x1 EQ PUSH2 0x16C3 JUMPI PUSH0 SWAP3 PUSH2 0x16B8 JUMPI JUMPDEST POP POP DUP2 PUSH1 0x1 SHL SWAP2 PUSH0 NOT SWAP1 PUSH1 0x3 SHL SHR NOT AND OR PUSH1 0x3 DUP3 ADD SSTORE JUMPDEST PUSH1 0xA0 DUP3 ADD MLOAD DUP1 MLOAD SWAP1 PUSH1 0x1 PUSH1 0x1 PUSH1 0x40 SHL SUB DUP3 GT PUSH2 0xAC3 JUMPI PUSH2 0x149B PUSH1 0x4 DUP5 ADD SLOAD PUSH2 0x1C37 JUMP JUMPDEST PUSH1 0x1F DUP2 GT PUSH2 0x1674 JUMPI JUMPDEST POP PUSH1 0x20 SWAP1 PUSH1 0x1F DUP4 GT PUSH1 0x1 EQ PUSH2 0x1605 JUMPI SWAP2 DUP1 PUSH1 0xE0 SWAP5 SWAP3 PUSH1 0x6 SWAP5 PUSH0 SWAP3 PUSH2 0x15FA JUMPI JUMPDEST POP POP DUP2 PUSH1 0x1 SHL SWAP2 PUSH0 NOT SWAP1 PUSH1 0x3 SHL SHR NOT AND OR PUSH1 0x4 DUP3 ADD SSTORE JUMPDEST PUSH1 0xC0 DUP5 ADD MLOAD PUSH1 0x5 DUP3 ADD SSTORE ADD SWAP2 ADD MLOAD ISZERO ISZERO PUSH1 0xFF DUP1 NOT DUP4 SLOAD AND SWAP2 AND OR SWAP1 SSTORE PUSH1 0x1 PUSH1 0x1 PUSH1 0x40 SHL SUB PUSH1 0x1 DUP12 ADD GT PUSH2 0x15E6 JUMPI PUSH1 0x4 CALLDATALOAD PUSH0 MSTORE PUSH1 0x2 PUSH1 0x20 MSTORE PUSH1 0x40 PUSH0 KECCAK256 CALLER PUSH0 MSTORE PUSH1 0x20 MSTORE PUSH1 0x40 PUSH0 KECCAK256 PUSH1 0x1 DUP12 ADD PUSH1 0x1 PUSH1 0x1 PUSH1 0x40 SHL SUB AND PUSH1 0x1 PUSH1 0x1 PUSH1 0x40 SHL SUB NOT DUP3 SLOAD AND OR SWAP1 SSTORE PUSH1 0x40 MLOAD DUP3 DUP5 DUP3 CALLDATACOPY DUP1 DUP4 DUP2 ADD PUSH0 DUP2 MSTORE SUB SWAP1 KECCAK256 SWAP11 PUSH1 0x40 MLOAD SWAP11 DUP12 MSTORE PUSH1 0xF SIGNEXTEND PUSH1 0x20 DUP12 ADD MSTORE PUSH1 0xFF AND PUSH1 0x40 DUP11 ADD MSTORE PUSH1 0x60 DUP10 ADD PUSH2 0x100 SWAP1 MSTORE PUSH2 0x100 DUP10 ADD SWAP1 PUSH2 0x157B SWAP3 PUSH2 0x1D72 JUMP JUMPDEST SWAP1 DUP8 DUP3 SUB PUSH1 0x80 DUP10 ADD MSTORE PUSH2 0x158D SWAP3 PUSH2 0x1D72 JUMP JUMPDEST SWAP1 DUP6 DUP3 SUB PUSH1 0xA0 DUP8 ADD MSTORE PUSH2 0x159F SWAP3 PUSH2 0x1D72 JUMP JUMPDEST SWAP1 DUP4 DUP3 SUB PUSH1 0xC0 DUP6 ADD MSTORE PUSH2 0x15B1 SWAP3 PUSH2 0x1D72 JUMP JUMPDEST PUSH1 0xE4 CALLDATALOAD PUSH1 0xE0 DUP4 ADD MSTORE CALLER SWAP2 DUP1 PUSH1 0x4 CALLDATALOAD SWAP3 SUB PUSH32 0x6A4A61743519C9D648A14E6493F47DBE3FF1AA29E7785C96C8326A205E58FEBC SWAP2 LOG4 STOP JUMPDEST PUSH4 0x4E487B71 PUSH1 0xE0 SHL PUSH0 MSTORE PUSH1 0x11 PUSH1 0x4 MSTORE PUSH1 0x24 PUSH0 REVERT JUMPDEST ADD MLOAD SWAP1 POP PUSH0 DUP1 PUSH2 0x14C3 JUMP JUMPDEST SWAP1 PUSH1 0x1F NOT DUP4 AND SWAP2 PUSH1 0x4 DUP6 ADD PUSH0 MSTORE PUSH1 0x20 PUSH0 KECCAK256 SWAP3 PUSH0 JUMPDEST DUP2 DUP2 LT PUSH2 0x165C JUMPI POP SWAP3 PUSH1 0x1 SWAP3 DUP6 SWAP3 PUSH1 0x6 SWAP7 PUSH1 0xE0 SWAP9 SWAP7 LT PUSH2 0x1644 JUMPI JUMPDEST POP POP POP DUP2 SHL ADD PUSH1 0x4 DUP3 ADD SSTORE PUSH2 0x14DA JUMP JUMPDEST ADD MLOAD PUSH0 NOT PUSH1 0xF8 DUP5 PUSH1 0x3 SHL AND SHR NOT AND SWAP1 SSTORE PUSH0 DUP1 DUP1 PUSH2 0x1634 JUMP JUMPDEST SWAP3 SWAP4 PUSH1 0x20 PUSH1 0x1 DUP2 SWAP3 DUP8 DUP7 ADD MLOAD DUP2 SSTORE ADD SWAP6 ADD SWAP4 ADD PUSH2 0x1619 JUMP JUMPDEST PUSH1 0x4 DUP5 ADD PUSH0 MSTORE PUSH1 0x20 PUSH0 KECCAK256 PUSH1 0x1F DUP5 ADD PUSH1 0x5 SHR DUP2 ADD PUSH1 0x20 DUP6 LT PUSH2 0x16B1 JUMPI JUMPDEST PUSH1 0x1F DUP4 ADD PUSH1 0x5 SHR DUP3 ADD DUP2 LT PUSH2 0x16A6 JUMPI POP POP PUSH2 0x14A4 JUMP JUMPDEST PUSH0 DUP2 SSTORE PUSH1 0x1 ADD PUSH2 0x1690 JUMP JUMPDEST POP DUP1 PUSH2 0x1690 JUMP JUMPDEST ADD MLOAD SWAP1 POP DUP16 DUP1 PUSH2 0x1461 JUMP JUMPDEST PUSH1 0x3 DUP6 ADD PUSH0 SWAP1 DUP2 MSTORE PUSH1 0x20 DUP2 KECCAK256 SWAP4 POP PUSH1 0x1F NOT DUP6 AND SWAP1 JUMPDEST DUP2 DUP2 LT PUSH2 0x1716 JUMPI POP SWAP1 DUP5 PUSH1 0x1 SWAP6 SWAP5 SWAP4 SWAP3 LT PUSH2 0x16FE JUMPI JUMPDEST POP POP POP DUP2 SHL ADD PUSH1 0x3 DUP3 ADD SSTORE PUSH2 0x1478 JUMP JUMPDEST ADD MLOAD PUSH0 NOT PUSH1 0xF8 DUP5 PUSH1 0x3 SHL AND SHR NOT AND SWAP1 SSTORE DUP16 DUP1 DUP1 PUSH2 0x16EE JUMP JUMPDEST SWAP3 SWAP4 PUSH1 0x20 PUSH1 0x1 DUP2 SWAP3 DUP8 DUP7 ADD MLOAD DUP2 SSTORE ADD SWAP6 ADD SWAP4 ADD PUSH2 0x16D8 JUMP JUMPDEST SWAP1 SWAP2 POP PUSH1 0x3 DUP5 ADD PUSH0 MSTORE PUSH1 0x20 PUSH0 KECCAK256 PUSH1 0x1F DUP5 ADD PUSH1 0x5 SHR DUP2 ADD PUSH1 0x20 DUP6 LT PUSH2 0x1777 JUMPI JUMPDEST SWAP1 DUP5 SWAP4 SWAP3 SWAP2 JUMPDEST PUSH1 0x1F DUP4 ADD PUSH1 0x5 SHR DUP3 ADD DUP2 LT PUSH2 0x1769 JUMPI POP POP PUSH2 0x144B JUMP JUMPDEST PUSH0 DUP2 SSTORE DUP6 SWAP5 POP PUSH1 0x1 ADD PUSH2 0x1753 JUMP JUMPDEST POP DUP1 PUSH2 0x174D JUMP JUMPDEST ADD MLOAD SWAP1 POP DUP16 DUP1 PUSH2 0x1406 JUMP JUMPDEST PUSH1 0x2 DUP6 ADD PUSH0 SWAP1 DUP2 MSTORE PUSH1 0x20 DUP2 KECCAK256 SWAP4 POP PUSH1 0x1F NOT DUP6 AND SWAP1 JUMPDEST DUP2 DUP2 LT PUSH2 0x17DC JUMPI POP SWAP1 DUP5 PUSH1 0x1 SWAP6 SWAP5 SWAP4 SWAP3 LT PUSH2 0x17C4 JUMPI JUMPDEST POP POP POP DUP2 SHL ADD PUSH1 0x2 DUP3 ADD SSTORE PUSH2 0x141D JUMP JUMPDEST ADD MLOAD PUSH0 NOT PUSH1 0xF8 DUP5 PUSH1 0x3 SHL AND SHR NOT AND SWAP1 SSTORE DUP16 DUP1 DUP1 PUSH2 0x17B4 JUMP JUMPDEST SWAP3 SWAP4 PUSH1 0x20 PUSH1 0x1 DUP2 SWAP3 DUP8 DUP7 ADD MLOAD DUP2 SSTORE ADD SWAP6 ADD SWAP4 ADD PUSH2 0x179E JUMP JUMPDEST SWAP1 SWAP2 POP PUSH1 0x2 DUP5 ADD PUSH0 MSTORE PUSH1 0x20 PUSH0 KECCAK256 PUSH1 0x1F DUP5 ADD PUSH1 0x5 SHR DUP2 ADD PUSH1 0x20 DUP6 LT PUSH2 0x183D JUMPI JUMPDEST SWAP1 DUP5 SWAP4 SWAP3 SWAP2 JUMPDEST PUSH1 0x1F DUP4 ADD PUSH1 0x5 SHR DUP3 ADD DUP2 LT PUSH2 0x182F JUMPI POP POP PUSH2 0x13F0 JUMP JUMPDEST PUSH0 DUP2 SSTORE DUP6 SWAP5 POP PUSH1 0x1 ADD PUSH2 0x1819 JUMP JUMPDEST POP DUP1 PUSH2 0x1813 JUMP JUMPDEST ADD MLOAD SWAP1 POP DUP16 DUP1 PUSH2 0x13AB JUMP JUMPDEST PUSH1 0x1 DUP6 ADD PUSH0 SWAP1 DUP2 MSTORE PUSH1 0x20 DUP2 KECCAK256 SWAP4 POP PUSH1 0x1F NOT DUP6 AND SWAP1 JUMPDEST DUP2 DUP2 LT PUSH2 0x18A2 JUMPI POP SWAP1 DUP5 PUSH1 0x1 SWAP6 SWAP5 SWAP4 SWAP3 LT PUSH2 0x188A JUMPI JUMPDEST POP POP POP DUP2 SHL ADD PUSH1 0x1 DUP3 ADD SSTORE PUSH2 0x13C2 JUMP JUMPDEST ADD MLOAD PUSH0 NOT PUSH1 0xF8 DUP5 PUSH1 0x3 SHL AND SHR NOT AND SWAP1 SSTORE DUP16 DUP1 DUP1 PUSH2 0x187A JUMP JUMPDEST SWAP3 SWAP4 PUSH1 0x20 PUSH1 0x1 DUP2 SWAP3 DUP8 DUP7 ADD MLOAD DUP2 SSTORE ADD SWAP6 ADD SWAP4 ADD PUSH2 0x1864 JUMP JUMPDEST SWAP1 SWAP2 POP PUSH1 0x1 DUP5 ADD PUSH0 MSTORE PUSH1 0x20 PUSH0 KECCAK256 PUSH1 0x1F DUP5 ADD PUSH1 0x5 SHR DUP2 ADD PUSH1 0x20 DUP6 LT PUSH2 0x1903 JUMPI JUMPDEST SWAP1 DUP5 SWAP4 SWAP3 SWAP2 JUMPDEST PUSH1 0x1F DUP4 ADD PUSH1 0x5 SHR DUP3 ADD DUP2 LT PUSH2 0x18F5 JUMPI POP POP PUSH2 0x1395 JUMP JUMPDEST PUSH0 DUP2 SSTORE DUP6 SWAP5 POP PUSH1 0x1 ADD PUSH2 0x18DF JUMP JUMPDEST POP DUP1 PUSH2 0x18D9 JUMP JUMPDEST PUSH1 0x4 CALLDATALOAD PUSH0 MSTORE PUSH1 0x3 PUSH1 0x20 MSTORE PUSH1 0x40 PUSH0 KECCAK256 DUP1 SLOAD SWAP1 PUSH1 0x1 PUSH1 0x40 SHL DUP3 LT ISZERO PUSH2 0xAC3 JUMPI PUSH1 0x1 DUP3 ADD DUP1 DUP3 SSTORE DUP3 LT ISZERO PUSH2 0xAD7 JUMPI PUSH0 MSTORE PUSH1 0x20 PUSH0 KECCAK256 ADD CALLER PUSH12 0xFFFFFFFFFFFFFFFFFFFFFFFF PUSH1 0xA0 SHL DUP3 SLOAD AND OR SWAP1 SSTORE PUSH1 0x4 CALLDATALOAD PUSH0 MSTORE PUSH1 0x4 PUSH1 0x20 MSTORE PUSH1 0x40 PUSH0 KECCAK256 CALLER PUSH0 MSTORE PUSH1 0x20 MSTORE PUSH1 0x40 PUSH0 KECCAK256 PUSH1 0x1 PUSH1 0xFF NOT DUP3 SLOAD AND OR SWAP1 SSTORE PUSH2 0x1263 JUMP JUMPDEST PUSH1 0x20 DUP2 DUP1 MLOAD DUP2 ADD SUB SLT PUSH2 0xD8 JUMPI PUSH1 0x20 ADD MLOAD PUSH1 0x1 PUSH1 0x1 PUSH1 0xA0 SHL SUB DUP2 AND SWAP1 DUP2 SWAP1 SUB PUSH2 0xD8 JUMPI CALLER EQ PUSH2 0x19AA JUMPI DUP11 PUSH2 0x1240 JUMP JUMPDEST PUSH1 0x64 PUSH1 0x40 MLOAD PUSH3 0x461BCD PUSH1 0xE5 SHL DUP2 MSTORE PUSH1 0x20 PUSH1 0x4 DUP3 ADD MSTORE PUSH1 0x20 PUSH1 0x24 DUP3 ADD MSTORE PUSH32 0x4167656E74206F776E65722063616E6E6F742073656C662D666565646261636B PUSH1 0x44 DUP3 ADD MSTORE REVERT JUMPDEST POP PUSH1 0x20 DUP2 MLOAD LT ISZERO PUSH2 0x123B JUMP JUMPDEST PUSH1 0x60 SWAP1 PUSH2 0x1235 JUMP JUMPDEST CALLVALUE PUSH2 0xD8 JUMPI PUSH1 0x60 CALLDATASIZE PUSH1 0x3 NOT ADD SLT PUSH2 0xD8 JUMPI PUSH1 0xFF SWAP1 PUSH2 0x1A1E PUSH2 0x1AD8 JUMP JUMPDEST PUSH2 0x1A26 PUSH2 0x1AEE JUMP JUMPDEST SWAP1 PUSH1 0x4 CALLDATALOAD PUSH0 MSTORE PUSH1 0x1 PUSH1 0x20 MSTORE PUSH1 0x40 PUSH0 KECCAK256 SWAP1 PUSH1 0x1 DUP1 PUSH1 0xA0 SHL SUB AND PUSH0 MSTORE PUSH1 0x20 MSTORE PUSH1 0x1 PUSH1 0x1 PUSH1 0x40 SHL SUB PUSH1 0x40 PUSH0 KECCAK256 SWAP2 AND PUSH0 MSTORE PUSH1 0x20 MSTORE PUSH1 0x40 PUSH0 KECCAK256 PUSH2 0x1ACC PUSH1 0x2 PUSH2 0x1ABE DUP4 SLOAD SWAP5 PUSH2 0x1A98 DUP8 PUSH1 0x6 DUP8 ADD SLOAD AND SWAP6 PUSH2 0x1A88 DUP4 PUSH2 0x1A81 DUP2 PUSH1 0x1 DUP6 ADD PUSH2 0x1C6F JUMP JUMPDEST SUB DUP5 PUSH2 0x1D00 JUMP JUMPDEST PUSH2 0x1A81 PUSH1 0x40 MLOAD DUP1 SWAP7 DUP2 SWAP4 ADD PUSH2 0x1C6F JUMP JUMPDEST PUSH1 0x40 MLOAD SWAP7 DUP7 DUP9 SWAP8 PUSH1 0xF SIGNEXTEND DUP9 MSTORE PUSH1 0x80 SHR AND PUSH1 0x20 DUP8 ADD MSTORE PUSH1 0xA0 PUSH1 0x40 DUP8 ADD MSTORE PUSH1 0xA0 DUP7 ADD SWAP1 PUSH2 0x1B04 JUMP JUMPDEST SWAP1 DUP5 DUP3 SUB PUSH1 0x60 DUP7 ADD MSTORE PUSH2 0x1B04 JUMP JUMPDEST SWAP1 ISZERO ISZERO PUSH1 0x80 DUP4 ADD MSTORE SUB SWAP1 RETURN JUMPDEST PUSH1 0x24 CALLDATALOAD SWAP1 PUSH1 0x1 PUSH1 0x1 PUSH1 0xA0 SHL SUB DUP3 AND DUP3 SUB PUSH2 0xD8 JUMPI JUMP JUMPDEST PUSH1 0x44 CALLDATALOAD SWAP1 PUSH1 0x1 PUSH1 0x1 PUSH1 0x40 SHL SUB DUP3 AND DUP3 SUB PUSH2 0xD8 JUMPI JUMP JUMPDEST SWAP2 SWAP1 DUP3 MLOAD SWAP3 DUP4 DUP3 MSTORE PUSH0 JUMPDEST DUP5 DUP2 LT PUSH2 0x1B2E JUMPI POP POP DUP3 PUSH0 PUSH1 0x20 DUP1 SWAP5 SWAP6 DUP5 ADD ADD MSTORE PUSH1 0x1F DUP1 NOT SWAP2 ADD AND ADD ADD SWAP1 JUMP JUMPDEST PUSH1 0x20 DUP2 DUP4 ADD DUP2 ADD MLOAD DUP5 DUP4 ADD DUP3 ADD MSTORE ADD PUSH2 0x1B0E JUMP JUMPDEST SWAP2 DUP2 PUSH1 0x1F DUP5 ADD SLT ISZERO PUSH2 0xD8 JUMPI DUP3 CALLDATALOAD SWAP2 PUSH1 0x1 PUSH1 0x1 PUSH1 0x40 SHL SUB DUP4 GT PUSH2 0xD8 JUMPI PUSH1 0x20 DUP4 DUP2 DUP7 ADD SWAP6 ADD ADD GT PUSH2 0xD8 JUMPI JUMP JUMPDEST SWAP1 DUP2 MLOAD DUP1 DUP3 MSTORE PUSH1 0x20 DUP1 DUP1 SWAP4 ADD SWAP4 ADD SWAP2 PUSH0 JUMPDEST DUP3 DUP2 LT PUSH2 0x1B8E JUMPI POP POP POP POP SWAP1 JUMP JUMPDEST DUP4 MLOAD PUSH1 0x1 PUSH1 0x1 PUSH1 0xA0 SHL SUB AND DUP6 MSTORE SWAP4 DUP2 ADD SWAP4 SWAP3 DUP2 ADD SWAP3 PUSH1 0x1 ADD PUSH2 0x1B80 JUMP JUMPDEST SWAP2 DUP2 PUSH1 0x1F DUP5 ADD SLT ISZERO PUSH2 0xD8 JUMPI DUP3 CALLDATALOAD SWAP2 PUSH1 0x1 PUSH1 0x1 PUSH1 0x40 SHL SUB DUP4 GT PUSH2 0xD8 JUMPI PUSH1 0x20 DUP1 DUP6 ADD SWAP5 DUP5 PUSH1 0x5 SHL ADD ADD GT PUSH2 0xD8 JUMPI JUMP JUMPDEST SWAP1 DUP1 DUP3 MLOAD SWAP1 DUP2 DUP2 MSTORE PUSH1 0x20 DUP1 SWAP2 ADD SWAP3 PUSH1 0x20 DUP1 DUP5 PUSH1 0x5 SHL DUP4 ADD ADD SWAP6 ADD SWAP4 PUSH0 SWAP2 JUMPDEST DUP5 DUP4 LT PUSH2 0x1C09 JUMPI POP POP POP POP POP POP SWAP1 JUMP JUMPDEST SWAP1 SWAP2 SWAP3 SWAP4 SWAP5 SWAP6 DUP5 DUP1 PUSH2 0x1C27 PUSH1 0x1 SWAP4 PUSH1 0x1F NOT DUP7 DUP3 SUB ADD DUP8 MSTORE DUP11 MLOAD PUSH2 0x1B04 JUMP JUMPDEST SWAP9 ADD SWAP4 ADD SWAP4 ADD SWAP2 SWAP5 SWAP4 SWAP3 SWAP1 PUSH2 0x1BF9 JUMP JUMPDEST SWAP1 PUSH1 0x1 DUP3 DUP2 SHR SWAP3 AND DUP1 ISZERO PUSH2 0x1C65 JUMPI JUMPDEST PUSH1 0x20 DUP4 LT EQ PUSH2 0x1C51 JUMPI JUMP JUMPDEST PUSH4 0x4E487B71 PUSH1 0xE0 SHL PUSH0 MSTORE PUSH1 0x22 PUSH1 0x4 MSTORE PUSH1 0x24 PUSH0 REVERT JUMPDEST SWAP2 PUSH1 0x7F AND SWAP2 PUSH2 0x1C46 JUMP JUMPDEST DUP1 SLOAD PUSH0 SWAP4 SWAP3 PUSH2 0x1C7D DUP3 PUSH2 0x1C37 JUMP JUMPDEST SWAP2 DUP3 DUP3 MSTORE PUSH1 0x20 SWAP4 PUSH1 0x1 SWAP2 PUSH1 0x1 DUP2 AND SWAP1 DUP2 PUSH0 EQ PUSH2 0x1CE1 JUMPI POP PUSH1 0x1 EQ PUSH2 0x1CA3 JUMPI JUMPDEST POP POP POP POP POP JUMP JUMPDEST SWAP1 SWAP4 SWAP5 SWAP6 POP PUSH0 SWAP3 SWAP2 SWAP3 MSTORE DUP4 PUSH0 KECCAK256 SWAP3 DUP5 PUSH0 SWAP5 JUMPDEST DUP4 DUP7 LT PUSH2 0x1CCD JUMPI POP POP POP POP ADD ADD SWAP1 PUSH0 DUP1 DUP1 DUP1 DUP1 PUSH2 0x1C9C JUMP JUMPDEST DUP1 SLOAD DUP6 DUP8 ADD DUP4 ADD MSTORE SWAP5 ADD SWAP4 DUP6 SWAP1 DUP3 ADD PUSH2 0x1CB5 JUMP JUMPDEST PUSH1 0xFF NOT AND DUP7 DUP6 ADD MSTORE POP POP POP SWAP1 ISZERO ISZERO PUSH1 0x5 SHL ADD ADD SWAP2 POP PUSH0 DUP1 DUP1 DUP1 DUP1 PUSH2 0x1C9C JUMP JUMPDEST SWAP1 PUSH1 0x1F DUP1 NOT SWAP2 ADD AND DUP2 ADD SWAP1 DUP2 LT PUSH1 0x1 PUSH1 0x1 PUSH1 0x40 SHL SUB DUP3 GT OR PUSH2 0xAC3 JUMPI PUSH1 0x40 MSTORE JUMP JUMPDEST PUSH1 0x1 PUSH1 0x1 PUSH1 0x40 SHL SUB DUP2 GT PUSH2 0xAC3 JUMPI PUSH1 0x1F ADD PUSH1 0x1F NOT AND PUSH1 0x20 ADD SWAP1 JUMP JUMPDEST SWAP3 SWAP2 SWAP3 PUSH2 0x1D48 DUP3 PUSH2 0x1D21 JUMP JUMPDEST SWAP2 PUSH2 0x1D56 PUSH1 0x40 MLOAD SWAP4 DUP5 PUSH2 0x1D00 JUMP JUMPDEST DUP3 SWAP5 DUP2 DUP5 MSTORE DUP2 DUP4 ADD GT PUSH2 0xD8 JUMPI DUP3 DUP2 PUSH1 0x20 SWAP4 DUP5 PUSH0 SWAP7 ADD CALLDATACOPY ADD ADD MSTORE JUMP JUMPDEST SWAP1 DUP1 PUSH1 0x20 SWAP4 SWAP3 DUP2 DUP5 MSTORE DUP5 DUP5 ADD CALLDATACOPY PUSH0 DUP3 DUP3 ADD DUP5 ADD MSTORE PUSH1 0x1F ADD PUSH1 0x1F NOT AND ADD ADD SWAP1 JUMP JUMPDEST PUSH1 0x1 PUSH1 0x1 PUSH1 0x40 SHL SUB DUP2 GT PUSH2 0xAC3 JUMPI PUSH1 0x5 SHL PUSH1 0x20 ADD SWAP1 JUMP JUMPDEST SWAP3 SWAP2 PUSH2 0x1DB4 DUP3 PUSH2 0x1D92 JUMP JUMPDEST SWAP2 PUSH2 0x1DC2 PUSH1 0x40 MLOAD SWAP4 DUP5 PUSH2 0x1D00 JUMP JUMPDEST DUP3 SWAP5 DUP2 DUP5 MSTORE PUSH1 0x20 DUP1 SWAP5 ADD SWAP2 PUSH1 0x5 SHL DUP2 ADD SWAP3 DUP4 GT PUSH2 0xD8 JUMPI SWAP1 JUMPDEST DUP3 DUP3 LT PUSH2 0x1DE8 JUMPI POP POP POP POP JUMP JUMPDEST DUP2 CALLDATALOAD PUSH1 0x1 PUSH1 0x1 PUSH1 0xA0 SHL SUB DUP2 AND DUP2 SUB PUSH2 0xD8 JUMPI DUP2 MSTORE SWAP1 DUP4 ADD SWAP1 DUP4 ADD PUSH2 0x1DDB JUMP JUMPDEST DUP1 MLOAD DUP3 LT ISZERO PUSH2 0xAD7 JUMPI PUSH1 0x20 SWAP2 PUSH1 0x5 SHL ADD ADD SWAP1 JUMP JUMPDEST PUSH0 NOT DUP2 EQ PUSH2 0x15E6 JUMPI PUSH1 0x1 ADD SWAP1 JUMP JUMPDEST SWAP1 PUSH2 0x1E33 DUP3 PUSH2 0x1D92 JUMP JUMPDEST PUSH2 0x1E40 PUSH1 0x40 MLOAD SWAP2 DUP3 PUSH2 0x1D00 JUMP JUMPDEST DUP3 DUP2 MSTORE DUP1 SWAP3 PUSH2 0x1E51 PUSH1 0x1F NOT SWAP2 PUSH2 0x1D92 JUMP JUMPDEST ADD SWAP1 PUSH0 JUMPDEST DUP3 DUP2 LT PUSH2 0x1E61 JUMPI POP POP POP JUMP JUMPDEST DUP1 PUSH1 0x60 PUSH1 0x20 DUP1 SWAP4 DUP6 ADD ADD MSTORE ADD PUSH2 0x1E55 JUMP INVALID LOG2 PUSH5 0x6970667358 0x22 SLT KECCAK256 0xB1 0xDB 0xC2 0xE8 0x29 0xAA PUSH8 0x76E19E868352B4CE 0xDE TSTORE DUP9 0xC9 PUSH5 0x37F457AD9D 0xDA SWAP13 RETURNDATASIZE DUP10 PUSH16 0xE38164736F6C63430008180033000000 "},"methodIdentifiers":{"appendResponse(uint256,address,uint64,string,bytes32)":"c2349ab2","getClients(uint256)":"42dd519c","getIdentityRegistry()":"bc4d861b","getLastIndex(uint256,address)":"f2d81759","getResponseCount(uint256,address,uint64,address[])":"6e04cacd","getSummary(uint256,address[],string,string)":"81bbba58","giveFeedback(uint256,int128,uint8,string,string,string,string,bytes32)":"3c036a7e","readAllFeedback(uint256,address[],string,string,bool)":"d9d84224","readFeedback(uint256,address,uint64)":"232b0810","revokeFeedback(uint256,uint64)":"4ab3ca99"}}}}}