{"project/contracts/erc8004/ValidationRegistry.sol":{"ValidationRegistry":{"abi":[{"inputs":[{"internalType":"address","name":"identityRegistry_","type":"address"}],"stateMutability":"nonpayable","type":"constructor"},{"anonymous":false,"inputs":[{"indexed":true,"internalType":"address","name":"validatorAddress","type":"address"},{"indexed":true,"internalType":"uint256","name":"agentId","type":"uint256"},{"indexed":false,"internalType":"string","name":"requestURI","type":"string"},{"indexed":true,"internalType":"bytes32","name":"requestHash","type":"bytes32"}],"name":"ValidationRequest","type":"event"},{"anonymous":false,"inputs":[{"indexed":true,"internalType":"address","name":"validatorAddress","type":"address"},{"indexed":true,"internalType":"uint256","name":"agentId","type":"uint256"},{"indexed":true,"internalType":"bytes32","name":"requestHash","type":"bytes32"},{"indexed":false,"internalType":"uint8","name":"response","type":"uint8"},{"indexed":false,"internalType":"string","name":"responseURI","type":"string"},{"indexed":false,"internalType":"bytes32","name":"responseHash","type":"bytes32"},{"indexed":false,"internalType":"string","name":"tag","type":"string"}],"name":"ValidationResponse","type":"event"},{"inputs":[{"internalType":"uint256","name":"agentId","type":"uint256"}],"name":"getAgentValidations","outputs":[{"internalType":"bytes32[]","name":"","type":"bytes32[]"}],"stateMutability":"view","type":"function"},{"inputs":[],"name":"getIdentityRegistry","outputs":[{"internalType":"address","name":"","type":"address"}],"stateMutability":"view","type":"function"},{"inputs":[{"internalType":"uint256","name":"agentId","type":"uint256"},{"internalType":"address[]","name":"validatorAddresses","type":"address[]"},{"internalType":"string","name":"tag","type":"string"}],"name":"getSummary","outputs":[{"internalType":"uint64","name":"count","type":"uint64"},{"internalType":"uint8","name":"avgResponse","type":"uint8"}],"stateMutability":"view","type":"function"},{"inputs":[{"internalType":"bytes32","name":"requestHash","type":"bytes32"}],"name":"getValidationStatus","outputs":[{"internalType":"address","name":"validatorAddress","type":"address"},{"internalType":"uint256","name":"agentId","type":"uint256"},{"internalType":"uint8","name":"response","type":"uint8"},{"internalType":"bytes32","name":"responseHash","type":"bytes32"},{"internalType":"string","name":"tag","type":"string"},{"internalType":"uint256","name":"lastUpdate","type":"uint256"}],"stateMutability":"view","type":"function"},{"inputs":[{"internalType":"address","name":"validatorAddress","type":"address"}],"name":"getValidatorRequests","outputs":[{"internalType":"bytes32[]","name":"","type":"bytes32[]"}],"stateMutability":"view","type":"function"},{"inputs":[{"internalType":"address","name":"validatorAddress","type":"address"},{"internalType":"uint256","name":"agentId","type":"uint256"},{"internalType":"string","name":"requestURI","type":"string"},{"internalType":"bytes32","name":"requestHash","type":"bytes32"}],"name":"validationRequest","outputs":[],"stateMutability":"nonpayable","type":"function"},{"inputs":[{"internalType":"bytes32","name":"requestHash","type":"bytes32"},{"internalType":"uint8","name":"response","type":"uint8"},{"internalType":"string","name":"responseURI","type":"string"},{"internalType":"bytes32","name":"responseHash","type":"bytes32"},{"internalType":"string","name":"tag","type":"string"}],"name":"validationResponse","outputs":[],"stateMutability":"nonpayable","type":"function"}],"evm":{"bytecode":{"linkReferences":{},"object":"60803461007357601f610ed538819003918201601f19168301916001600160401b038311848410176100775780849260209460405283398101031261007357516001600160a01b03811690819003610073575f80546001600160a01b031916919091179055604051610e49908161008c8239f35b5f80fd5b634e487b7160e01b5f52604160045260245ffdfe60806040526004361015610011575f80fd5b60e05f3560e01c80631b7cabd61461096b5780633d659a961461061a5780634bf3158c146105a45780638d5d0c2d1461052c578063aaf400c41461015f578063bc4d861b146101385763ff2febfc14610068575f80fd5b3461013457602090602060031936011261013457906004355f52600160205260405f209160018060a01b0383541690600184015493600560ff6002830154166003830154906100cd6006850154946100c66040518096819301610c9e565b0384610d4a565b604051978896875260208701526040860152606085015260c060808501528051928360c08601525f5b84811061011e5750505060e093505f84838501015260a0830152601f80199101168101030190f35b80830187015188820183015287955086016100f6565b5f80fd5b34610134575f366003190112610134575f546040516001600160a01b039091168152602090f35b3461013457608036600319011261013457610178610bec565b6024356044356001600160401b0381116101345761019a903690600401610bbf565b60649291923592835f52600160205260ff600760405f200154166104ee576040519161010083018381106001600160401b038211176104615760405260018060a01b03809616928381526020810185815260408201905f8252606083015f81526040519161020783610d2f565b5f83526080850192835260405161021d81610d2f565b5f815260a08601524260c0860152600160e0860152895f52600160205260405f209a8551166bffffffffffffffffffffffff60a01b8c5416178b555160018b015560ff60028b019351169260ff1993848254161790555160038a0155518051906001600160401b038211610461576102a58261029c60048d0154610c66565b60048d01610d6b565b602090601f8311600114610480576102d492915f9183610475575b50508160011b915f199060031b1c19161790565b60048901555b6005880160a08301518051906001600160401b03821161046157610308826103028554610c66565b85610d6b565b602090601f83116001146103d1579a60ff936103648460e0957f530436c3634a98e1e626b0898be2f1e9980cc1bd2a78c07a0aba52d0a48a50599c9d9e9f956007965f926103c65750508160011b915f199060031b1c19161790565b90555b60c08601516006820155019301511515918354169116179055845f5260026020526103958660405f20610dda565b835f5260036020526103aa8660405f20610dda565b6103c1604051928392602084526020840191610dba565b0390a4005b015190505f806102c0565b90601f19831691845f5260205f20925f5b8181106104495750846007947f530436c3634a98e1e626b0898be2f1e9980cc1bd2a78c07a0aba52d0a48a50599c9d9e9f9460ff989460e09860019510610431575b505050811b019055610367565b01515f1960f88460031b161c191690558f8080610424565b929360206001819287860151815501950193016103e2565b634e487b7160e01b5f52604160045260245ffd5b015190508b806102c0565b919060048b015f5260205f20905f935b601f19841685106104d3576001945083601f198116106104bb575b505050811b0160048901556102da565b01515f1960f88460031b161c191690558a80806104ab565b81810151835560209485019460019093019290910190610490565b60405162461bcd60e51b81526020600482015260166024820152755265717565737420616c72656164792065786973747360501b6044820152606490fd5b3461013457602080600319360112610134576004355f52600260205260405f20906040519081602084549182815201935f5260205f20915f905b82821061058d576105898561057d81890382610d4a565b60405191829182610c02565b0390f35b835486529485019460019384019390910190610566565b3461013457602080600319360112610134576001600160a01b036105c6610bec565b165f52600360205260405f20906040519081602084549182815201935f5260205f20915f905b828210610603576105898561057d81890382610d4a565b8354865294850194600193840193909101906105ec565b346101345760a03660031901126101345760043560243560ff81168103610134576044356001600160401b0381116101345761065a903690600401610bbf565b916084356001600160401b0381116101345761067a903690600401610bbf565b9092855f52600160205260405f2060ff6007820154161561092d5780546001600160a01b031633036108e85760028101805460ff191660ff86161790556001600160401b038611610461576106df866106d66004840154610c66565b60048401610d6b565b5f86601f811160011461087f578061070b925f91610874575b508160011b915f199060031b1c19161790565b60048201555b6064356003820155600581016001600160401b0384116104615761073f846107398354610c66565b83610d6b565b5f601f85116001146107e3577fafddf629e874ccc3963b6a888c477bd464a6c8525024fc88759ea3b2326349ae959360016103c194879461079a8660ff9a6107c0975f916107d857508160011b915f199060031b1c19161790565b90555b426006820155015498604051968796168652608060208701526080860191610dba565b90606435604085015283820360608501523396610dba565b90508d01355f6106f8565b601f19851690825f5260205f20915f5b81811061085c57506103c19487946107c0947fafddf629e874ccc3963b6a888c477bd464a6c8525024fc88759ea3b2326349ae9a989460ff9a60019510610843575b50508286811b01905561079d565b8c01355f19600389901b60f8161c191690558d80610835565b9192602060018192868d0135815501940192016107f3565b90508401358a6106f8565b50600482015f5260205f20905f5b601f19891681106108d0575087601f198116106108b7575b5050600186811b016004820155610711565b8301355f19600389901b60f8161c1916905587806108a5565b9091602060018192858801358155019301910161088d565b60405162461bcd60e51b815260206004820152601760248201527f4f6e6c792061737369676e65642076616c696461746f720000000000000000006044820152606490fd5b60405162461bcd60e51b815260206004820152601660248201527514995c5d595cdd08191bd95cc81b9bdd08195e1a5cdd60521b6044820152606490fd5b34610134576060366003190112610134576001600160401b036024351161013457366023602435011215610134576001600160401b0360243560040135116101345736602480356004013560051b8135010111610134576044356001600160401b038111610134576109e1903690600401610bbf565b905f916004355f52600260205260405f20905f915f935f928254925b838510610a555787878781158015610a2b575b604080516001600160401b038516815260ff86166020820152f35b909250610a415760ff8082604094041692610a10565b634e487b7160e01b5f52601260045260245ffd5b909192939594610a658783610c3d565b90549060031b1c5f52600160205260405f2060ff600282015416908115610b7a5760243560040135610b56575b8415159081610ae3575b50610ad8578101809111610ac457945f198114610ac4576001809101965b01939291906109fd565b634e487b7160e01b5f52601160045260245ffd5b509495600190610aba565b60059150610b0290610afb6040518094819301610c9e565b0382610d4a565b602081519101206001600160401b03851161046157604051610b2e601f8701601f191660200182610d4a565b8581526020810190368789011161013457868883375f6020888301015251902014158a610a9c565b80545f906001600160a01b0316815b602435600401358110610b86575b5050610a92575b50509495600190610aba565b6001600160a01b0360248035600584901b01013590811690819003610134578214610bb357600101610b65565b50505060018b80610b73565b9181601f84011215610134578235916001600160401b038311610134576020838186019501011161013457565b600435906001600160a01b038216820361013457565b60209060206040818301928281528551809452019301915f5b828110610c29575050505090565b835185529381019392810192600101610c1b565b8054821015610c52575f5260205f2001905f90565b634e487b7160e01b5f52603260045260245ffd5b90600182811c92168015610c94575b6020831014610c8057565b634e487b7160e01b5f52602260045260245ffd5b91607f1691610c75565b80545f9392610cac82610c66565b918282526020936001916001811690815f14610d105750600114610cd2575b5050505050565b90939495505f92919252835f2092845f945b838610610cfc57505050500101905f80808080610ccb565b805485870183015294019385908201610ce4565b60ff19168685015250505090151560051b010191505f80808080610ccb565b602081019081106001600160401b0382111761046157604052565b90601f801991011681019081106001600160401b0382111761046157604052565b601f8211610d7857505050565b5f5260205f20906020601f840160051c83019310610db0575b601f0160051c01905b818110610da5575050565b5f8155600101610d9a565b9091508190610d91565b908060209392818452848401375f828201840152601f01601f1916010190565b80546801000000000000000081101561046157610dfc91600182018155610c3d565b819291549060031b91821b915f19901b191617905556fea2646970667358221220111394ea757386add59148e527b9e8b9c9cfde215eacf108cb0d2bdadc9b82bb64736f6c63430008180033","opcodes":"PUSH1 0x80 CALLVALUE PUSH2 0x73 JUMPI PUSH1 0x1F PUSH2 0xED5 CODESIZE DUP2 SWAP1 SUB SWAP2 DUP3 ADD PUSH1 0x1F NOT AND DUP4 ADD SWAP2 PUSH1 0x1 PUSH1 0x1 PUSH1 0x40 SHL SUB DUP4 GT DUP5 DUP5 LT OR PUSH2 0x77 JUMPI DUP1 DUP5 SWAP3 PUSH1 0x20 SWAP5 PUSH1 0x40 MSTORE DUP4 CODECOPY DUP2 ADD SUB SLT PUSH2 0x73 JUMPI MLOAD PUSH1 0x1 PUSH1 0x1 PUSH1 0xA0 SHL SUB DUP2 AND SWAP1 DUP2 SWAP1 SUB PUSH2 0x73 JUMPI PUSH0 DUP1 SLOAD PUSH1 0x1 PUSH1 0x1 PUSH1 0xA0 SHL SUB NOT AND SWAP2 SWAP1 SWAP2 OR SWAP1 SSTORE PUSH1 0x40 MLOAD PUSH2 0xE49 SWAP1 DUP2 PUSH2 0x8C DUP3 CODECOPY RETURN JUMPDEST PUSH0 DUP1 REVERT JUMPDEST PUSH4 0x4E487B71 PUSH1 0xE0 SHL PUSH0 MSTORE PUSH1 0x41 PUSH1 0x4 MSTORE PUSH1 0x24 PUSH0 REVERT INVALID PUSH1 0x80 PUSH1 0x40 MSTORE PUSH1 0x4 CALLDATASIZE LT ISZERO PUSH2 0x11 JUMPI PUSH0 DUP1 REVERT JUMPDEST PUSH1 0xE0 PUSH0 CALLDATALOAD PUSH1 0xE0 SHR DUP1 PUSH4 0x1B7CABD6 EQ PUSH2 0x96B JUMPI DUP1 PUSH4 0x3D659A96 EQ PUSH2 0x61A JUMPI DUP1 PUSH4 0x4BF3158C EQ PUSH2 0x5A4 JUMPI DUP1 PUSH4 0x8D5D0C2D EQ PUSH2 0x52C JUMPI DUP1 PUSH4 0xAAF400C4 EQ PUSH2 0x15F JUMPI DUP1 PUSH4 0xBC4D861B EQ PUSH2 0x138 JUMPI PUSH4 0xFF2FEBFC EQ PUSH2 0x68 JUMPI PUSH0 DUP1 REVERT JUMPDEST CALLVALUE PUSH2 0x134 JUMPI PUSH1 0x20 SWAP1 PUSH1 0x20 PUSH1 0x3 NOT CALLDATASIZE ADD SLT PUSH2 0x134 JUMPI SWAP1 PUSH1 0x4 CALLDATALOAD PUSH0 MSTORE PUSH1 0x1 PUSH1 0x20 MSTORE PUSH1 0x40 PUSH0 KECCAK256 SWAP2 PUSH1 0x1 DUP1 PUSH1 0xA0 SHL SUB DUP4 SLOAD AND SWAP1 PUSH1 0x1 DUP5 ADD SLOAD SWAP4 PUSH1 0x5 PUSH1 0xFF PUSH1 0x2 DUP4 ADD SLOAD AND PUSH1 0x3 DUP4 ADD SLOAD SWAP1 PUSH2 0xCD PUSH1 0x6 DUP6 ADD SLOAD SWAP5 PUSH2 0xC6 PUSH1 0x40 MLOAD DUP1 SWAP7 DUP2 SWAP4 ADD PUSH2 0xC9E JUMP JUMPDEST SUB DUP5 PUSH2 0xD4A JUMP JUMPDEST PUSH1 0x40 MLOAD SWAP8 DUP9 SWAP7 DUP8 MSTORE PUSH1 0x20 DUP8 ADD MSTORE PUSH1 0x40 DUP7 ADD MSTORE PUSH1 0x60 DUP6 ADD MSTORE PUSH1 0xC0 PUSH1 0x80 DUP6 ADD MSTORE DUP1 MLOAD SWAP3 DUP4 PUSH1 0xC0 DUP7 ADD MSTORE PUSH0 JUMPDEST DUP5 DUP2 LT PUSH2 0x11E JUMPI POP POP POP PUSH1 0xE0 SWAP4 POP PUSH0 DUP5 DUP4 DUP6 ADD ADD MSTORE PUSH1 0xA0 DUP4 ADD MSTORE PUSH1 0x1F DUP1 NOT SWAP2 ADD AND DUP2 ADD SUB ADD SWAP1 RETURN JUMPDEST DUP1 DUP4 ADD DUP8 ADD MLOAD DUP9 DUP3 ADD DUP4 ADD MSTORE DUP8 SWAP6 POP DUP7 ADD PUSH2 0xF6 JUMP JUMPDEST PUSH0 DUP1 REVERT JUMPDEST CALLVALUE PUSH2 0x134 JUMPI PUSH0 CALLDATASIZE PUSH1 0x3 NOT ADD SLT PUSH2 0x134 JUMPI PUSH0 SLOAD PUSH1 0x40 MLOAD PUSH1 0x1 PUSH1 0x1 PUSH1 0xA0 SHL SUB SWAP1 SWAP2 AND DUP2 MSTORE PUSH1 0x20 SWAP1 RETURN JUMPDEST CALLVALUE PUSH2 0x134 JUMPI PUSH1 0x80 CALLDATASIZE PUSH1 0x3 NOT ADD SLT PUSH2 0x134 JUMPI PUSH2 0x178 PUSH2 0xBEC JUMP JUMPDEST PUSH1 0x24 CALLDATALOAD PUSH1 0x44 CALLDATALOAD PUSH1 0x1 PUSH1 0x1 PUSH1 0x40 SHL SUB DUP2 GT PUSH2 0x134 JUMPI PUSH2 0x19A SWAP1 CALLDATASIZE SWAP1 PUSH1 0x4 ADD PUSH2 0xBBF JUMP JUMPDEST PUSH1 0x64 SWAP3 SWAP2 SWAP3 CALLDATALOAD SWAP3 DUP4 PUSH0 MSTORE PUSH1 0x1 PUSH1 0x20 MSTORE PUSH1 0xFF PUSH1 0x7 PUSH1 0x40 PUSH0 KECCAK256 ADD SLOAD AND PUSH2 0x4EE JUMPI PUSH1 0x40 MLOAD SWAP2 PUSH2 0x100 DUP4 ADD DUP4 DUP2 LT PUSH1 0x1 PUSH1 0x1 PUSH1 0x40 SHL SUB DUP3 GT OR PUSH2 0x461 JUMPI PUSH1 0x40 MSTORE PUSH1 0x1 DUP1 PUSH1 0xA0 SHL SUB DUP1 SWAP7 AND SWAP3 DUP4 DUP2 MSTORE PUSH1 0x20 DUP2 ADD DUP6 DUP2 MSTORE PUSH1 0x40 DUP3 ADD SWAP1 PUSH0 DUP3 MSTORE PUSH1 0x60 DUP4 ADD PUSH0 DUP2 MSTORE PUSH1 0x40 MLOAD SWAP2 PUSH2 0x207 DUP4 PUSH2 0xD2F JUMP JUMPDEST PUSH0 DUP4 MSTORE PUSH1 0x80 DUP6 ADD SWAP3 DUP4 MSTORE PUSH1 0x40 MLOAD PUSH2 0x21D DUP2 PUSH2 0xD2F JUMP JUMPDEST PUSH0 DUP2 MSTORE PUSH1 0xA0 DUP7 ADD MSTORE TIMESTAMP PUSH1 0xC0 DUP7 ADD MSTORE PUSH1 0x1 PUSH1 0xE0 DUP7 ADD MSTORE DUP10 PUSH0 MSTORE PUSH1 0x1 PUSH1 0x20 MSTORE PUSH1 0x40 PUSH0 KECCAK256 SWAP11 DUP6 MLOAD AND PUSH12 0xFFFFFFFFFFFFFFFFFFFFFFFF PUSH1 0xA0 SHL DUP13 SLOAD AND OR DUP12 SSTORE MLOAD PUSH1 0x1 DUP12 ADD SSTORE PUSH1 0xFF PUSH1 0x2 DUP12 ADD SWAP4 MLOAD AND SWAP3 PUSH1 0xFF NOT SWAP4 DUP5 DUP3 SLOAD AND OR SWAP1 SSTORE MLOAD PUSH1 0x3 DUP11 ADD SSTORE MLOAD DUP1 MLOAD SWAP1 PUSH1 0x1 PUSH1 0x1 PUSH1 0x40 SHL SUB DUP3 GT PUSH2 0x461 JUMPI PUSH2 0x2A5 DUP3 PUSH2 0x29C PUSH1 0x4 DUP14 ADD SLOAD PUSH2 0xC66 JUMP JUMPDEST PUSH1 0x4 DUP14 ADD PUSH2 0xD6B JUMP JUMPDEST PUSH1 0x20 SWAP1 PUSH1 0x1F DUP4 GT PUSH1 0x1 EQ PUSH2 0x480 JUMPI PUSH2 0x2D4 SWAP3 SWAP2 PUSH0 SWAP2 DUP4 PUSH2 0x475 JUMPI JUMPDEST POP POP DUP2 PUSH1 0x1 SHL SWAP2 PUSH0 NOT SWAP1 PUSH1 0x3 SHL SHR NOT AND OR SWAP1 JUMP JUMPDEST PUSH1 0x4 DUP10 ADD SSTORE JUMPDEST PUSH1 0x5 DUP9 ADD PUSH1 0xA0 DUP4 ADD MLOAD DUP1 MLOAD SWAP1 PUSH1 0x1 PUSH1 0x1 PUSH1 0x40 SHL SUB DUP3 GT PUSH2 0x461 JUMPI PUSH2 0x308 DUP3 PUSH2 0x302 DUP6 SLOAD PUSH2 0xC66 JUMP JUMPDEST DUP6 PUSH2 0xD6B JUMP JUMPDEST PUSH1 0x20 SWAP1 PUSH1 0x1F DUP4 GT PUSH1 0x1 EQ PUSH2 0x3D1 JUMPI SWAP11 PUSH1 0xFF SWAP4 PUSH2 0x364 DUP5 PUSH1 0xE0 SWAP6 PUSH32 0x530436C3634A98E1E626B0898BE2F1E9980CC1BD2A78C07A0ABA52D0A48A5059 SWAP13 SWAP14 SWAP15 SWAP16 SWAP6 PUSH1 0x7 SWAP7 PUSH0 SWAP3 PUSH2 0x3C6 JUMPI POP POP DUP2 PUSH1 0x1 SHL SWAP2 PUSH0 NOT SWAP1 PUSH1 0x3 SHL SHR NOT AND OR SWAP1 JUMP JUMPDEST SWAP1 SSTORE JUMPDEST PUSH1 0xC0 DUP7 ADD MLOAD PUSH1 0x6 DUP3 ADD SSTORE ADD SWAP4 ADD MLOAD ISZERO ISZERO SWAP2 DUP4 SLOAD AND SWAP2 AND OR SWAP1 SSTORE DUP5 PUSH0 MSTORE PUSH1 0x2 PUSH1 0x20 MSTORE PUSH2 0x395 DUP7 PUSH1 0x40 PUSH0 KECCAK256 PUSH2 0xDDA JUMP JUMPDEST DUP4 PUSH0 MSTORE PUSH1 0x3 PUSH1 0x20 MSTORE PUSH2 0x3AA DUP7 PUSH1 0x40 PUSH0 KECCAK256 PUSH2 0xDDA JUMP JUMPDEST PUSH2 0x3C1 PUSH1 0x40 MLOAD SWAP3 DUP4 SWAP3 PUSH1 0x20 DUP5 MSTORE PUSH1 0x20 DUP5 ADD SWAP2 PUSH2 0xDBA JUMP JUMPDEST SUB SWAP1 LOG4 STOP JUMPDEST ADD MLOAD SWAP1 POP PUSH0 DUP1 PUSH2 0x2C0 JUMP JUMPDEST SWAP1 PUSH1 0x1F NOT DUP4 AND SWAP2 DUP5 PUSH0 MSTORE PUSH1 0x20 PUSH0 KECCAK256 SWAP3 PUSH0 JUMPDEST DUP2 DUP2 LT PUSH2 0x449 JUMPI POP DUP5 PUSH1 0x7 SWAP5 PUSH32 0x530436C3634A98E1E626B0898BE2F1E9980CC1BD2A78C07A0ABA52D0A48A5059 SWAP13 SWAP14 SWAP15 SWAP16 SWAP5 PUSH1 0xFF SWAP9 SWAP5 PUSH1 0xE0 SWAP9 PUSH1 0x1 SWAP6 LT PUSH2 0x431 JUMPI JUMPDEST POP POP POP DUP2 SHL ADD SWAP1 SSTORE PUSH2 0x367 JUMP JUMPDEST ADD MLOAD PUSH0 NOT PUSH1 0xF8 DUP5 PUSH1 0x3 SHL AND SHR NOT AND SWAP1 SSTORE DUP16 DUP1 DUP1 PUSH2 0x424 JUMP JUMPDEST SWAP3 SWAP4 PUSH1 0x20 PUSH1 0x1 DUP2 SWAP3 DUP8 DUP7 ADD MLOAD DUP2 SSTORE ADD SWAP6 ADD SWAP4 ADD PUSH2 0x3E2 JUMP JUMPDEST PUSH4 0x4E487B71 PUSH1 0xE0 SHL PUSH0 MSTORE PUSH1 0x41 PUSH1 0x4 MSTORE PUSH1 0x24 PUSH0 REVERT JUMPDEST ADD MLOAD SWAP1 POP DUP12 DUP1 PUSH2 0x2C0 JUMP JUMPDEST SWAP2 SWAP1 PUSH1 0x4 DUP12 ADD PUSH0 MSTORE PUSH1 0x20 PUSH0 KECCAK256 SWAP1 PUSH0 SWAP4 JUMPDEST PUSH1 0x1F NOT DUP5 AND DUP6 LT PUSH2 0x4D3 JUMPI PUSH1 0x1 SWAP5 POP DUP4 PUSH1 0x1F NOT DUP2 AND LT PUSH2 0x4BB JUMPI JUMPDEST POP POP POP DUP2 SHL ADD PUSH1 0x4 DUP10 ADD SSTORE PUSH2 0x2DA JUMP JUMPDEST ADD MLOAD PUSH0 NOT PUSH1 0xF8 DUP5 PUSH1 0x3 SHL AND SHR NOT AND SWAP1 SSTORE DUP11 DUP1 DUP1 PUSH2 0x4AB JUMP JUMPDEST DUP2 DUP2 ADD MLOAD DUP4 SSTORE PUSH1 0x20 SWAP5 DUP6 ADD SWAP5 PUSH1 0x1 SWAP1 SWAP4 ADD SWAP3 SWAP1 SWAP2 ADD SWAP1 PUSH2 0x490 JUMP JUMPDEST PUSH1 0x40 MLOAD PUSH3 0x461BCD PUSH1 0xE5 SHL DUP2 MSTORE PUSH1 0x20 PUSH1 0x4 DUP3 ADD MSTORE PUSH1 0x16 PUSH1 0x24 DUP3 ADD MSTORE PUSH22 0x5265717565737420616C726561647920657869737473 PUSH1 0x50 SHL PUSH1 0x44 DUP3 ADD MSTORE PUSH1 0x64 SWAP1 REVERT JUMPDEST CALLVALUE PUSH2 0x134 JUMPI PUSH1 0x20 DUP1 PUSH1 0x3 NOT CALLDATASIZE ADD SLT PUSH2 0x134 JUMPI PUSH1 0x4 CALLDATALOAD PUSH0 MSTORE PUSH1 0x2 PUSH1 0x20 MSTORE PUSH1 0x40 PUSH0 KECCAK256 SWAP1 PUSH1 0x40 MLOAD SWAP1 DUP2 PUSH1 0x20 DUP5 SLOAD SWAP2 DUP3 DUP2 MSTORE ADD SWAP4 PUSH0 MSTORE PUSH1 0x20 PUSH0 KECCAK256 SWAP2 PUSH0 SWAP1 JUMPDEST DUP3 DUP3 LT PUSH2 0x58D JUMPI PUSH2 0x589 DUP6 PUSH2 0x57D DUP2 DUP10 SUB DUP3 PUSH2 0xD4A JUMP JUMPDEST PUSH1 0x40 MLOAD SWAP2 DUP3 SWAP2 DUP3 PUSH2 0xC02 JUMP JUMPDEST SUB SWAP1 RETURN JUMPDEST DUP4 SLOAD DUP7 MSTORE SWAP5 DUP6 ADD SWAP5 PUSH1 0x1 SWAP4 DUP5 ADD SWAP4 SWAP1 SWAP2 ADD SWAP1 PUSH2 0x566 JUMP JUMPDEST CALLVALUE PUSH2 0x134 JUMPI PUSH1 0x20 DUP1 PUSH1 0x3 NOT CALLDATASIZE ADD SLT PUSH2 0x134 JUMPI PUSH1 0x1 PUSH1 0x1 PUSH1 0xA0 SHL SUB PUSH2 0x5C6 PUSH2 0xBEC JUMP JUMPDEST AND PUSH0 MSTORE PUSH1 0x3 PUSH1 0x20 MSTORE PUSH1 0x40 PUSH0 KECCAK256 SWAP1 PUSH1 0x40 MLOAD SWAP1 DUP2 PUSH1 0x20 DUP5 SLOAD SWAP2 DUP3 DUP2 MSTORE ADD SWAP4 PUSH0 MSTORE PUSH1 0x20 PUSH0 KECCAK256 SWAP2 PUSH0 SWAP1 JUMPDEST DUP3 DUP3 LT PUSH2 0x603 JUMPI PUSH2 0x589 DUP6 PUSH2 0x57D DUP2 DUP10 SUB DUP3 PUSH2 0xD4A JUMP JUMPDEST DUP4 SLOAD DUP7 MSTORE SWAP5 DUP6 ADD SWAP5 PUSH1 0x1 SWAP4 DUP5 ADD SWAP4 SWAP1 SWAP2 ADD SWAP1 PUSH2 0x5EC JUMP JUMPDEST CALLVALUE PUSH2 0x134 JUMPI PUSH1 0xA0 CALLDATASIZE PUSH1 0x3 NOT ADD SLT PUSH2 0x134 JUMPI PUSH1 0x4 CALLDATALOAD PUSH1 0x24 CALLDATALOAD PUSH1 0xFF DUP2 AND DUP2 SUB PUSH2 0x134 JUMPI PUSH1 0x44 CALLDATALOAD PUSH1 0x1 PUSH1 0x1 PUSH1 0x40 SHL SUB DUP2 GT PUSH2 0x134 JUMPI PUSH2 0x65A SWAP1 CALLDATASIZE SWAP1 PUSH1 0x4 ADD PUSH2 0xBBF JUMP JUMPDEST SWAP2 PUSH1 0x84 CALLDATALOAD PUSH1 0x1 PUSH1 0x1 PUSH1 0x40 SHL SUB DUP2 GT PUSH2 0x134 JUMPI PUSH2 0x67A SWAP1 CALLDATASIZE SWAP1 PUSH1 0x4 ADD PUSH2 0xBBF JUMP JUMPDEST SWAP1 SWAP3 DUP6 PUSH0 MSTORE PUSH1 0x1 PUSH1 0x20 MSTORE PUSH1 0x40 PUSH0 KECCAK256 PUSH1 0xFF PUSH1 0x7 DUP3 ADD SLOAD AND ISZERO PUSH2 0x92D JUMPI DUP1 SLOAD PUSH1 0x1 PUSH1 0x1 PUSH1 0xA0 SHL SUB AND CALLER SUB PUSH2 0x8E8 JUMPI PUSH1 0x2 DUP2 ADD DUP1 SLOAD PUSH1 0xFF NOT AND PUSH1 0xFF DUP7 AND OR SWAP1 SSTORE PUSH1 0x1 PUSH1 0x1 PUSH1 0x40 SHL SUB DUP7 GT PUSH2 0x461 JUMPI PUSH2 0x6DF DUP7 PUSH2 0x6D6 PUSH1 0x4 DUP5 ADD SLOAD PUSH2 0xC66 JUMP JUMPDEST PUSH1 0x4 DUP5 ADD PUSH2 0xD6B JUMP JUMPDEST PUSH0 DUP7 PUSH1 0x1F DUP2 GT PUSH1 0x1 EQ PUSH2 0x87F JUMPI DUP1 PUSH2 0x70B SWAP3 PUSH0 SWAP2 PUSH2 0x874 JUMPI JUMPDEST POP DUP2 PUSH1 0x1 SHL SWAP2 PUSH0 NOT SWAP1 PUSH1 0x3 SHL SHR NOT AND OR SWAP1 JUMP JUMPDEST PUSH1 0x4 DUP3 ADD SSTORE JUMPDEST PUSH1 0x64 CALLDATALOAD PUSH1 0x3 DUP3 ADD SSTORE PUSH1 0x5 DUP2 ADD PUSH1 0x1 PUSH1 0x1 PUSH1 0x40 SHL SUB DUP5 GT PUSH2 0x461 JUMPI PUSH2 0x73F DUP5 PUSH2 0x739 DUP4 SLOAD PUSH2 0xC66 JUMP JUMPDEST DUP4 PUSH2 0xD6B JUMP JUMPDEST PUSH0 PUSH1 0x1F DUP6 GT PUSH1 0x1 EQ PUSH2 0x7E3 JUMPI PUSH32 0xAFDDF629E874CCC3963B6A888C477BD464A6C8525024FC88759EA3B2326349AE SWAP6 SWAP4 PUSH1 0x1 PUSH2 0x3C1 SWAP5 DUP8 SWAP5 PUSH2 0x79A DUP7 PUSH1 0xFF SWAP11 PUSH2 0x7C0 SWAP8 PUSH0 SWAP2 PUSH2 0x7D8 JUMPI POP DUP2 PUSH1 0x1 SHL SWAP2 PUSH0 NOT SWAP1 PUSH1 0x3 SHL SHR NOT AND OR SWAP1 JUMP JUMPDEST SWAP1 SSTORE JUMPDEST TIMESTAMP PUSH1 0x6 DUP3 ADD SSTORE ADD SLOAD SWAP9 PUSH1 0x40 MLOAD SWAP7 DUP8 SWAP7 AND DUP7 MSTORE PUSH1 0x80 PUSH1 0x20 DUP8 ADD MSTORE PUSH1 0x80 DUP7 ADD SWAP2 PUSH2 0xDBA JUMP JUMPDEST SWAP1 PUSH1 0x64 CALLDATALOAD PUSH1 0x40 DUP6 ADD MSTORE DUP4 DUP3 SUB PUSH1 0x60 DUP6 ADD MSTORE CALLER SWAP7 PUSH2 0xDBA JUMP JUMPDEST SWAP1 POP DUP14 ADD CALLDATALOAD PUSH0 PUSH2 0x6F8 JUMP JUMPDEST PUSH1 0x1F NOT DUP6 AND SWAP1 DUP3 PUSH0 MSTORE PUSH1 0x20 PUSH0 KECCAK256 SWAP2 PUSH0 JUMPDEST DUP2 DUP2 LT PUSH2 0x85C JUMPI POP PUSH2 0x3C1 SWAP5 DUP8 SWAP5 PUSH2 0x7C0 SWAP5 PUSH32 0xAFDDF629E874CCC3963B6A888C477BD464A6C8525024FC88759EA3B2326349AE SWAP11 SWAP9 SWAP5 PUSH1 0xFF SWAP11 PUSH1 0x1 SWAP6 LT PUSH2 0x843 JUMPI JUMPDEST POP POP DUP3 DUP7 DUP2 SHL ADD SWAP1 SSTORE PUSH2 0x79D JUMP JUMPDEST DUP13 ADD CALLDATALOAD PUSH0 NOT PUSH1 0x3 DUP10 SWAP1 SHL PUSH1 0xF8 AND SHR NOT AND SWAP1 SSTORE DUP14 DUP1 PUSH2 0x835 JUMP JUMPDEST SWAP2 SWAP3 PUSH1 0x20 PUSH1 0x1 DUP2 SWAP3 DUP7 DUP14 ADD CALLDATALOAD DUP2 SSTORE ADD SWAP5 ADD SWAP3 ADD PUSH2 0x7F3 JUMP JUMPDEST SWAP1 POP DUP5 ADD CALLDATALOAD DUP11 PUSH2 0x6F8 JUMP JUMPDEST POP PUSH1 0x4 DUP3 ADD PUSH0 MSTORE PUSH1 0x20 PUSH0 KECCAK256 SWAP1 PUSH0 JUMPDEST PUSH1 0x1F NOT DUP10 AND DUP2 LT PUSH2 0x8D0 JUMPI POP DUP8 PUSH1 0x1F NOT DUP2 AND LT PUSH2 0x8B7 JUMPI JUMPDEST POP POP PUSH1 0x1 DUP7 DUP2 SHL ADD PUSH1 0x4 DUP3 ADD SSTORE PUSH2 0x711 JUMP JUMPDEST DUP4 ADD CALLDATALOAD PUSH0 NOT PUSH1 0x3 DUP10 SWAP1 SHL PUSH1 0xF8 AND SHR NOT AND SWAP1 SSTORE DUP8 DUP1 PUSH2 0x8A5 JUMP JUMPDEST SWAP1 SWAP2 PUSH1 0x20 PUSH1 0x1 DUP2 SWAP3 DUP6 DUP9 ADD CALLDATALOAD DUP2 SSTORE ADD SWAP4 ADD SWAP2 ADD PUSH2 0x88D JUMP JUMPDEST PUSH1 0x40 MLOAD PUSH3 0x461BCD PUSH1 0xE5 SHL DUP2 MSTORE PUSH1 0x20 PUSH1 0x4 DUP3 ADD MSTORE PUSH1 0x17 PUSH1 0x24 DUP3 ADD MSTORE PUSH32 0x4F6E6C792061737369676E65642076616C696461746F72000000000000000000 PUSH1 0x44 DUP3 ADD MSTORE PUSH1 0x64 SWAP1 REVERT JUMPDEST PUSH1 0x40 MLOAD PUSH3 0x461BCD PUSH1 0xE5 SHL DUP2 MSTORE PUSH1 0x20 PUSH1 0x4 DUP3 ADD MSTORE PUSH1 0x16 PUSH1 0x24 DUP3 ADD MSTORE PUSH22 0x14995C5D595CDD08191BD95CC81B9BDD08195E1A5CDD PUSH1 0x52 SHL PUSH1 0x44 DUP3 ADD MSTORE PUSH1 0x64 SWAP1 REVERT JUMPDEST CALLVALUE PUSH2 0x134 JUMPI PUSH1 0x60 CALLDATASIZE PUSH1 0x3 NOT ADD SLT PUSH2 0x134 JUMPI PUSH1 0x1 PUSH1 0x1 PUSH1 0x40 SHL SUB PUSH1 0x24 CALLDATALOAD GT PUSH2 0x134 JUMPI CALLDATASIZE PUSH1 0x23 PUSH1 0x24 CALLDATALOAD ADD SLT ISZERO PUSH2 0x134 JUMPI PUSH1 0x1 PUSH1 0x1 PUSH1 0x40 SHL SUB PUSH1 0x24 CALLDATALOAD PUSH1 0x4 ADD CALLDATALOAD GT PUSH2 0x134 JUMPI CALLDATASIZE PUSH1 0x24 DUP1 CALLDATALOAD PUSH1 0x4 ADD CALLDATALOAD PUSH1 0x5 SHL DUP2 CALLDATALOAD ADD ADD GT PUSH2 0x134 JUMPI PUSH1 0x44 CALLDATALOAD PUSH1 0x1 PUSH1 0x1 PUSH1 0x40 SHL SUB DUP2 GT PUSH2 0x134 JUMPI PUSH2 0x9E1 SWAP1 CALLDATASIZE SWAP1 PUSH1 0x4 ADD PUSH2 0xBBF JUMP JUMPDEST SWAP1 PUSH0 SWAP2 PUSH1 0x4 CALLDATALOAD PUSH0 MSTORE PUSH1 0x2 PUSH1 0x20 MSTORE PUSH1 0x40 PUSH0 KECCAK256 SWAP1 PUSH0 SWAP2 PUSH0 SWAP4 PUSH0 SWAP3 DUP3 SLOAD SWAP3 JUMPDEST DUP4 DUP6 LT PUSH2 0xA55 JUMPI DUP8 DUP8 DUP8 DUP2 ISZERO DUP1 ISZERO PUSH2 0xA2B JUMPI JUMPDEST PUSH1 0x40 DUP1 MLOAD PUSH1 0x1 PUSH1 0x1 PUSH1 0x40 SHL SUB DUP6 AND DUP2 MSTORE PUSH1 0xFF DUP7 AND PUSH1 0x20 DUP3 ADD MSTORE RETURN JUMPDEST SWAP1 SWAP3 POP PUSH2 0xA41 JUMPI PUSH1 0xFF DUP1 DUP3 PUSH1 0x40 SWAP5 DIV AND SWAP3 PUSH2 0xA10 JUMP JUMPDEST PUSH4 0x4E487B71 PUSH1 0xE0 SHL PUSH0 MSTORE PUSH1 0x12 PUSH1 0x4 MSTORE PUSH1 0x24 PUSH0 REVERT JUMPDEST SWAP1 SWAP2 SWAP3 SWAP4 SWAP6 SWAP5 PUSH2 0xA65 DUP8 DUP4 PUSH2 0xC3D JUMP JUMPDEST SWAP1 SLOAD SWAP1 PUSH1 0x3 SHL SHR PUSH0 MSTORE PUSH1 0x1 PUSH1 0x20 MSTORE PUSH1 0x40 PUSH0 KECCAK256 PUSH1 0xFF PUSH1 0x2 DUP3 ADD SLOAD AND SWAP1 DUP2 ISZERO PUSH2 0xB7A JUMPI PUSH1 0x24 CALLDATALOAD PUSH1 0x4 ADD CALLDATALOAD PUSH2 0xB56 JUMPI JUMPDEST DUP5 ISZERO ISZERO SWAP1 DUP2 PUSH2 0xAE3 JUMPI JUMPDEST POP PUSH2 0xAD8 JUMPI DUP2 ADD DUP1 SWAP2 GT PUSH2 0xAC4 JUMPI SWAP5 PUSH0 NOT DUP2 EQ PUSH2 0xAC4 JUMPI PUSH1 0x1 DUP1 SWAP2 ADD SWAP7 JUMPDEST ADD SWAP4 SWAP3 SWAP2 SWAP1 PUSH2 0x9FD JUMP JUMPDEST PUSH4 0x4E487B71 PUSH1 0xE0 SHL PUSH0 MSTORE PUSH1 0x11 PUSH1 0x4 MSTORE PUSH1 0x24 PUSH0 REVERT JUMPDEST POP SWAP5 SWAP6 PUSH1 0x1 SWAP1 PUSH2 0xABA JUMP JUMPDEST PUSH1 0x5 SWAP2 POP PUSH2 0xB02 SWAP1 PUSH2 0xAFB PUSH1 0x40 MLOAD DUP1 SWAP5 DUP2 SWAP4 ADD PUSH2 0xC9E JUMP JUMPDEST SUB DUP3 PUSH2 0xD4A JUMP JUMPDEST PUSH1 0x20 DUP2 MLOAD SWAP2 ADD KECCAK256 PUSH1 0x1 PUSH1 0x1 PUSH1 0x40 SHL SUB DUP6 GT PUSH2 0x461 JUMPI PUSH1 0x40 MLOAD PUSH2 0xB2E PUSH1 0x1F DUP8 ADD PUSH1 0x1F NOT AND PUSH1 0x20 ADD DUP3 PUSH2 0xD4A JUMP JUMPDEST DUP6 DUP2 MSTORE PUSH1 0x20 DUP2 ADD SWAP1 CALLDATASIZE DUP8 DUP10 ADD GT PUSH2 0x134 JUMPI DUP7 DUP9 DUP4 CALLDATACOPY PUSH0 PUSH1 0x20 DUP9 DUP4 ADD ADD MSTORE MLOAD SWAP1 KECCAK256 EQ ISZERO DUP11 PUSH2 0xA9C JUMP JUMPDEST DUP1 SLOAD PUSH0 SWAP1 PUSH1 0x1 PUSH1 0x1 PUSH1 0xA0 SHL SUB AND DUP2 JUMPDEST PUSH1 0x24 CALLDATALOAD PUSH1 0x4 ADD CALLDATALOAD DUP2 LT PUSH2 0xB86 JUMPI JUMPDEST POP POP PUSH2 0xA92 JUMPI JUMPDEST POP POP SWAP5 SWAP6 PUSH1 0x1 SWAP1 PUSH2 0xABA JUMP JUMPDEST PUSH1 0x1 PUSH1 0x1 PUSH1 0xA0 SHL SUB PUSH1 0x24 DUP1 CALLDATALOAD PUSH1 0x5 DUP5 SWAP1 SHL ADD ADD CALLDATALOAD SWAP1 DUP2 AND SWAP1 DUP2 SWAP1 SUB PUSH2 0x134 JUMPI DUP3 EQ PUSH2 0xBB3 JUMPI PUSH1 0x1 ADD PUSH2 0xB65 JUMP JUMPDEST POP POP POP PUSH1 0x1 DUP12 DUP1 PUSH2 0xB73 JUMP JUMPDEST SWAP2 DUP2 PUSH1 0x1F DUP5 ADD SLT ISZERO PUSH2 0x134 JUMPI DUP3 CALLDATALOAD SWAP2 PUSH1 0x1 PUSH1 0x1 PUSH1 0x40 SHL SUB DUP4 GT PUSH2 0x134 JUMPI PUSH1 0x20 DUP4 DUP2 DUP7 ADD SWAP6 ADD ADD GT PUSH2 0x134 JUMPI JUMP JUMPDEST PUSH1 0x4 CALLDATALOAD SWAP1 PUSH1 0x1 PUSH1 0x1 PUSH1 0xA0 SHL SUB DUP3 AND DUP3 SUB PUSH2 0x134 JUMPI JUMP JUMPDEST PUSH1 0x20 SWAP1 PUSH1 0x20 PUSH1 0x40 DUP2 DUP4 ADD SWAP3 DUP3 DUP2 MSTORE DUP6 MLOAD DUP1 SWAP5 MSTORE ADD SWAP4 ADD SWAP2 PUSH0 JUMPDEST DUP3 DUP2 LT PUSH2 0xC29 JUMPI POP POP POP POP SWAP1 JUMP JUMPDEST DUP4 MLOAD DUP6 MSTORE SWAP4 DUP2 ADD SWAP4 SWAP3 DUP2 ADD SWAP3 PUSH1 0x1 ADD PUSH2 0xC1B JUMP JUMPDEST DUP1 SLOAD DUP3 LT ISZERO PUSH2 0xC52 JUMPI PUSH0 MSTORE PUSH1 0x20 PUSH0 KECCAK256 ADD SWAP1 PUSH0 SWAP1 JUMP JUMPDEST PUSH4 0x4E487B71 PUSH1 0xE0 SHL PUSH0 MSTORE PUSH1 0x32 PUSH1 0x4 MSTORE PUSH1 0x24 PUSH0 REVERT JUMPDEST SWAP1 PUSH1 0x1 DUP3 DUP2 SHR SWAP3 AND DUP1 ISZERO PUSH2 0xC94 JUMPI JUMPDEST PUSH1 0x20 DUP4 LT EQ PUSH2 0xC80 JUMPI JUMP JUMPDEST PUSH4 0x4E487B71 PUSH1 0xE0 SHL PUSH0 MSTORE PUSH1 0x22 PUSH1 0x4 MSTORE PUSH1 0x24 PUSH0 REVERT JUMPDEST SWAP2 PUSH1 0x7F AND SWAP2 PUSH2 0xC75 JUMP JUMPDEST DUP1 SLOAD PUSH0 SWAP4 SWAP3 PUSH2 0xCAC DUP3 PUSH2 0xC66 JUMP JUMPDEST SWAP2 DUP3 DUP3 MSTORE PUSH1 0x20 SWAP4 PUSH1 0x1 SWAP2 PUSH1 0x1 DUP2 AND SWAP1 DUP2 PUSH0 EQ PUSH2 0xD10 JUMPI POP PUSH1 0x1 EQ PUSH2 0xCD2 JUMPI JUMPDEST POP POP POP POP POP JUMP JUMPDEST SWAP1 SWAP4 SWAP5 SWAP6 POP PUSH0 SWAP3 SWAP2 SWAP3 MSTORE DUP4 PUSH0 KECCAK256 SWAP3 DUP5 PUSH0 SWAP5 JUMPDEST DUP4 DUP7 LT PUSH2 0xCFC JUMPI POP POP POP POP ADD ADD SWAP1 PUSH0 DUP1 DUP1 DUP1 DUP1 PUSH2 0xCCB JUMP JUMPDEST DUP1 SLOAD DUP6 DUP8 ADD DUP4 ADD MSTORE SWAP5 ADD SWAP4 DUP6 SWAP1 DUP3 ADD PUSH2 0xCE4 JUMP JUMPDEST PUSH1 0xFF NOT AND DUP7 DUP6 ADD MSTORE POP POP POP SWAP1 ISZERO ISZERO PUSH1 0x5 SHL ADD ADD SWAP2 POP PUSH0 DUP1 DUP1 DUP1 DUP1 PUSH2 0xCCB JUMP JUMPDEST PUSH1 0x20 DUP2 ADD SWAP1 DUP2 LT PUSH1 0x1 PUSH1 0x1 PUSH1 0x40 SHL SUB DUP3 GT OR PUSH2 0x461 JUMPI PUSH1 0x40 MSTORE JUMP JUMPDEST SWAP1 PUSH1 0x1F DUP1 NOT SWAP2 ADD AND DUP2 ADD SWAP1 DUP2 LT PUSH1 0x1 PUSH1 0x1 PUSH1 0x40 SHL SUB DUP3 GT OR PUSH2 0x461 JUMPI PUSH1 0x40 MSTORE JUMP JUMPDEST PUSH1 0x1F DUP3 GT PUSH2 0xD78 JUMPI POP POP POP JUMP JUMPDEST PUSH0 MSTORE PUSH1 0x20 PUSH0 KECCAK256 SWAP1 PUSH1 0x20 PUSH1 0x1F DUP5 ADD PUSH1 0x5 SHR DUP4 ADD SWAP4 LT PUSH2 0xDB0 JUMPI JUMPDEST PUSH1 0x1F ADD PUSH1 0x5 SHR ADD SWAP1 JUMPDEST DUP2 DUP2 LT PUSH2 0xDA5 JUMPI POP POP JUMP JUMPDEST PUSH0 DUP2 SSTORE PUSH1 0x1 ADD PUSH2 0xD9A JUMP JUMPDEST SWAP1 SWAP2 POP DUP2 SWAP1 PUSH2 0xD91 JUMP JUMPDEST SWAP1 DUP1 PUSH1 0x20 SWAP4 SWAP3 DUP2 DUP5 MSTORE DUP5 DUP5 ADD CALLDATACOPY PUSH0 DUP3 DUP3 ADD DUP5 ADD MSTORE PUSH1 0x1F ADD PUSH1 0x1F NOT AND ADD ADD SWAP1 JUMP JUMPDEST DUP1 SLOAD PUSH9 0x10000000000000000 DUP2 LT ISZERO PUSH2 0x461 JUMPI PUSH2 0xDFC SWAP2 PUSH1 0x1 DUP3 ADD DUP2 SSTORE PUSH2 0xC3D JUMP JUMPDEST DUP2 SWAP3 SWAP2 SLOAD SWAP1 PUSH1 0x3 SHL SWAP2 DUP3 SHL SWAP2 PUSH0 NOT SWAP1 SHL NOT AND OR SWAP1 SSTORE JUMP INVALID LOG2 PUSH5 0x6970667358 0x22 SLT KECCAK256 GT SGT SWAP5 0xEA PUSH22 0x7386ADD59148E527B9E8B9C9CFDE215EACF108CB0D2B 0xDA 0xDC SWAP12 DUP3 0xBB PUSH5 0x736F6C6343 STOP ADDMOD XOR STOP CALLER "},"methodIdentifiers":{"getAgentValidations(uint256)":"8d5d0c2d","getIdentityRegistry()":"bc4d861b","getSummary(uint256,address[],string)":"1b7cabd6","getValidationStatus(bytes32)":"ff2febfc","getValidatorRequests(address)":"4bf3158c","validationRequest(address,uint256,string,bytes32)":"aaf400c4","validationResponse(bytes32,uint8,string,bytes32,string)":"3d659a96"}}}}}