{"project/contracts/erc8004/IdentityRegistry.sol":{"IdentityRegistry":{"abi":[{"anonymous":false,"inputs":[{"indexed":true,"internalType":"uint256","name":"agentId","type":"uint256"},{"indexed":true,"internalType":"string","name":"indexedMetadataKey","type":"string"},{"indexed":false,"internalType":"string","name":"metadataKey","type":"string"},{"indexed":false,"internalType":"bytes","name":"metadataValue","type":"bytes"}],"name":"MetadataSet","type":"event"},{"anonymous":false,"inputs":[{"indexed":true,"internalType":"uint256","name":"agentId","type":"uint256"},{"indexed":false,"internalType":"string","name":"agentURI","type":"string"},{"indexed":true,"internalType":"address","name":"owner","type":"address"}],"name":"Registered","type":"event"},{"anonymous":false,"inputs":[{"indexed":true,"internalType":"uint256","name":"agentId","type":"uint256"},{"indexed":false,"internalType":"string","name":"newURI","type":"string"},{"indexed":true,"internalType":"address","name":"updatedBy","type":"address"}],"name":"URIUpdated","type":"event"},{"inputs":[{"internalType":"address","name":"owner","type":"address"}],"name":"balanceOf","outputs":[{"internalType":"uint256","name":"","type":"uint256"}],"stateMutability":"view","type":"function"},{"inputs":[{"internalType":"uint256","name":"agentId","type":"uint256"}],"name":"getAgentWallet","outputs":[{"internalType":"address","name":"","type":"address"}],"stateMutability":"view","type":"function"},{"inputs":[{"internalType":"uint256","name":"agentId","type":"uint256"},{"internalType":"string","name":"metadataKey","type":"string"}],"name":"getMetadata","outputs":[{"internalType":"bytes","name":"","type":"bytes"}],"stateMutability":"view","type":"function"},{"inputs":[{"internalType":"uint256","name":"tokenId","type":"uint256"}],"name":"ownerOf","outputs":[{"internalType":"address","name":"","type":"address"}],"stateMutability":"view","type":"function"},{"inputs":[],"name":"register","outputs":[{"internalType":"uint256","name":"agentId","type":"uint256"}],"stateMutability":"nonpayable","type":"function"},{"inputs":[{"internalType":"string","name":"agentURI","type":"string"},{"components":[{"internalType":"string","name":"metadataKey","type":"string"},{"internalType":"bytes","name":"metadataValue","type":"bytes"}],"internalType":"struct IdentityRegistry.MetadataEntry[]","name":"metadata","type":"tuple[]"}],"name":"register","outputs":[{"internalType":"uint256","name":"agentId","type":"uint256"}],"stateMutability":"nonpayable","type":"function"},{"inputs":[{"internalType":"string","name":"agentURI","type":"string"}],"name":"register","outputs":[{"internalType":"uint256","name":"agentId","type":"uint256"}],"stateMutability":"nonpayable","type":"function"},{"inputs":[{"internalType":"uint256","name":"agentId","type":"uint256"},{"internalType":"string","name":"newURI","type":"string"}],"name":"setAgentURI","outputs":[],"stateMutability":"nonpayable","type":"function"},{"inputs":[{"internalType":"uint256","name":"agentId","type":"uint256"},{"internalType":"address","name":"newWallet","type":"address"},{"internalType":"uint256","name":"","type":"uint256"},{"internalType":"bytes","name":"","type":"bytes"}],"name":"setAgentWallet","outputs":[],"stateMutability":"nonpayable","type":"function"},{"inputs":[{"internalType":"uint256","name":"agentId","type":"uint256"},{"internalType":"string","name":"metadataKey","type":"string"},{"internalType":"bytes","name":"metadataValue","type":"bytes"}],"name":"setMetadata","outputs":[],"stateMutability":"nonpayable","type":"function"},{"inputs":[{"internalType":"uint256","name":"tokenId","type":"uint256"}],"name":"tokenURI","outputs":[{"internalType":"string","name":"","type":"string"}],"stateMutability":"view","type":"function"},{"inputs":[{"internalType":"uint256","name":"agentId","type":"uint256"}],"name":"unsetAgentWallet","outputs":[],"stateMutability":"nonpayable","type":"function"}],"evm":{"bytecode":{"linkReferences":{},"object":"6080806040523461001657610e99908161001b8239f35b5f80fdfe6080604081815260049182361015610015575f80fd5b5f3560e01c90816233950914610937575080630af28bd3146107d75780631aa3a008146107985780632d1ef5ae146107165780633fddcf19146106c8578063466648da146105255780636352211e146104af57806370a082311461043c5780638ea42286146101eb578063c87b56dd14610147578063cb4799f2146100f15763f2c298be146100a2575f80fd5b346100ed5760203660031901126100ed57813567ffffffffffffffff81116100ed576100e06100d96020946100e693369101610965565b3691610b63565b33610cc5565b9051908152f35b5f80fd5b50346100ed5761012a6101439161013161011f61010d36610993565b90915f526005602052845f2091610b20565b825193848092610c12565b0383610aea565b519182916020835260208301906109c7565b0390f35b5090346100ed57602090816003193601126100ed5780355f81815260018452849020549091906001600160a01b0316156101b1575061019b92610143915f52600383526101a2815f20825195868092610c12565b0385610aea565b519282849384528301906109c7565b835162461bcd60e51b815290810183905260146024820152731059d95b9d08191bd95cc81b9bdd08195e1a5cdd60621b6044820152606490fd5b5090346100ed57816003193601126100ed5767ffffffffffffffff9181358381116100ed5761021d9036908401610965565b9390602494602435928084116100ed57366023850112156100ed5783860135928184116100ed576024850192600595602436918760051b0101116100ed5761026a916100e0913691610b63565b955f5b84811061027e576020888851908152f35b610289818686610ba9565b61029860209182810190610bdf565b8a5f528883526102be8a5f206102b86102b2878c8c610ba9565b80610bdf565b90610b20565b9186821161042a5788949383838a938f958f97906102df6102e59254610a43565b85610a7b565b5f90601f831160011461039757935f80516020610e44833981519152959361032e84610383956103659560019e995f9261038c575b50508160011b915f199060031b1c19161790565b90555b61033f6102b28a8787610ba9565b92909161035c8b6103546102b2828b8b610ba9565b999098610ba9565b90810190610bdf565b929091818a51928392833781015f8152039020975194859485610b39565b0390a30161026d565b013590505f8061031a565b601f19831691845f52855f20925f5b8181106103fb5750936103659360019c97935f80516020610e448339815191529997938361038398106103e2575b5050508b1b8b019055610331565b01355f19600384901b60f8161c191690555f80806103d4565b95995093975095509380989950600181928787013581550195019201938f9591938f97938e9a99958e976103a6565b8c604187634e487b7160e01b5f52525ffd5b50346100ed5760203660031901126100ed5781356001600160a01b038116908190036100ed57801561047d57602092505f5260028252805f20549051908152f35b815162461bcd60e51b8152602081850152600c60248201526b5a65726f206164647265737360a01b6044820152606490fd5b5090346100ed5760203660031901126100ed5780355f9081526001602052829020546001600160a01b03169081156104eb575060209151908152f35b606490602084519162461bcd60e51b83528201526014602482015273151bdad95b88191bd95cc81b9bdd08195e1a5cdd60621b6044820152fd5b5090346100ed5760603660031901126100ed5780359067ffffffffffffffff906024358281116100ed5761055c9036908301610965565b9290916044358281116100ed576105769036908301610965565b929091865f526001602091600160205261059c60018060a01b038b5f2054163314610a05565b885f5260056020526105b18a5f208989610b20565b9386116106b557506105c7856102df8554610a43565b5f91601f861160011461063a57505091839161060c835f80516020610e4483398151915298979661062a965f9161062f575b508160011b915f199060031b1c19161790565b90555b875185858237808681015f8152039020975194859485610b39565b0390a3005b90508401355f6105f9565b5f848152602081209392601f19881692905b83831061069e57505050918593915f80516020610e4483398151915298979661062a969410610685575b5050600183811b01905561060f565b8301355f19600386901b60f8161c191690555f80610676565b87850135865594850194938101939181019161064c565b604190634e487b7160e01b5f525260245ffd5b5090346100ed5760203660031901126100ed578035805f5260016020526106fb60018060a01b03845f2054163314610a05565b5f526020525f206001600160601b0360a01b81541690555f80f35b50346100ed5760803660031901126100ed576001600160a01b0360243581811693918235918590036100ed576064359067ffffffffffffffff82116100ed5761076561077b9236908601610965565b5050825f526001602052845f2054163314610a05565b5f526020525f20906001600160601b0360a01b8254161790555f80f35b50346100ed575f3660031901126100ed57805191602083019083821067ffffffffffffffff8311176106b557506020926100e69183525f815233610cc5565b50346100ed576107e636610993565b825f526001946020956001875261080960018060a01b03875f2054163314610a05565b845f5260038752855f209167ffffffffffffffff84116106b55750610838836108328454610a43565b84610a7b565b5f90601f84116001146108ab57509461062a9161088c84807f3a2c7fffc2cba7582c690e3b82c453ea02a308326a98a3ad7576c606336409fb98995f916108a057508160011b915f199060031b1c19161790565b90555b519283928784523397840191610aca565b90508701355f6105f9565b90601f198416835f52885f20925f905b8a83831061091f575050509161062a9391857f3a2c7fffc2cba7582c690e3b82c453ea02a308326a98a3ad7576c606336409fb98999410610906575b5050600184811b01905561088f565b8601355f19600387901b60f8161c191690555f806108f7565b888501358655948101949384019391909101906108bb565b919050346100ed5760203660031901126100ed5782355f908152602093845220546001600160a01b03168152f35b9181601f840112156100ed5782359167ffffffffffffffff83116100ed57602083818601950101116100ed57565b9060406003198301126100ed57600435916024359067ffffffffffffffff82116100ed576109c391600401610965565b9091565b91908251928382525f5b8481106109f1575050825f602080949584010152601f8019910116010190565b6020818301810151848301820152016109d1565b15610a0c57565b60405162461bcd60e51b815260206004820152600f60248201526e2737ba1030b3b2b73a1037bbb732b960891b6044820152606490fd5b90600182811c92168015610a71575b6020831014610a5d57565b634e487b7160e01b5f52602260045260245ffd5b91607f1691610a52565b601f8211610a8857505050565b5f5260205f20906020601f840160051c83019310610ac0575b601f0160051c01905b818110610ab5575050565b5f8155600101610aaa565b9091508190610aa1565b908060209392818452848401375f828201840152601f01601f1916010190565b90601f8019910116810190811067ffffffffffffffff821117610b0c57604052565b634e487b7160e01b5f52604160045260245ffd5b6020919283604051948593843782019081520301902090565b9290610b5290610b609593604086526040860191610aca565b926020818503910152610aca565b90565b92919267ffffffffffffffff8211610b0c5760405191610b8d601f8201601f191660200184610aea565b8294818452818301116100ed578281602093845f960137010152565b9190811015610bcb5760051b81013590603e19813603018212156100ed570190565b634e487b7160e01b5f52603260045260245ffd5b903590601e19813603018212156100ed570180359067ffffffffffffffff82116100ed576020019181360383136100ed57565b80545f9392610c2082610a43565b918282526020936001916001811690815f14610c845750600114610c46575b5050505050565b90939495505f92919252835f2092845f945b838610610c7057505050500101905f80808080610c3f565b805485870183015294019385908201610c58565b60ff19168685015250505090151560051b010191505f80808080610c3f565b5f198114610cb15760010190565b634e487b7160e01b5f52601160045260245ffd5b9190915f54610cd381610ca3565b5f558093815f5260016020906001825260405f209460018060a01b031694856001600160601b0360a01b825416179055845f526002825260405f20610d188154610ca3565b9055835f526003825260405f209083519067ffffffffffffffff8211610b0c57610d46826102df8554610a43565b8390601f8311600114610dbe5750817fca52e62c367d81bb2e328eb795f7c7ba24afb478408a26c0e201d155c449bc4a95949392610d97925f91610db357508160011b915f199060031b1c19161790565b90555b610dae6040519282849384528301906109c7565b0390a3565b90508501515f6105f9565b90601f198316845f52855f20925f905b828210610e2c5750509183917fca52e62c367d81bb2e328eb795f7c7ba24afb478408a26c0e201d155c449bc4a9796959460019410610e14575b5050811b019055610d9a565b8601515f1960f88460031b161c191690555f80610e08565b888401518555938401939287019290870190610dce56fe2c149ed548c6d2993cd73efe187df6eccabe4538091b33adbd25fafdb8a1468ba2646970667358221220ebc62caf3cd79c62c57dc2fb93db9127781feb84f3d59af09ecf2a5d6f7955c764736f6c63430008180033","opcodes":"PUSH1 0x80 DUP1 PUSH1 0x40 MSTORE CALLVALUE PUSH2 0x16 JUMPI PUSH2 0xE99 SWAP1 DUP2 PUSH2 0x1B DUP3 CODECOPY RETURN JUMPDEST PUSH0 DUP1 REVERT INVALID PUSH1 0x80 PUSH1 0x40 DUP2 DUP2 MSTORE PUSH1 0x4 SWAP2 DUP3 CALLDATASIZE LT ISZERO PUSH2 0x15 JUMPI PUSH0 DUP1 REVERT JUMPDEST PUSH0 CALLDATALOAD PUSH1 0xE0 SHR SWAP1 DUP2 PUSH3 0x339509 EQ PUSH2 0x937 JUMPI POP DUP1 PUSH4 0xAF28BD3 EQ PUSH2 0x7D7 JUMPI DUP1 PUSH4 0x1AA3A008 EQ PUSH2 0x798 JUMPI DUP1 PUSH4 0x2D1EF5AE EQ PUSH2 0x716 JUMPI DUP1 PUSH4 0x3FDDCF19 EQ PUSH2 0x6C8 JUMPI DUP1 PUSH4 0x466648DA EQ PUSH2 0x525 JUMPI DUP1 PUSH4 0x6352211E EQ PUSH2 0x4AF JUMPI DUP1 PUSH4 0x70A08231 EQ PUSH2 0x43C JUMPI DUP1 PUSH4 0x8EA42286 EQ PUSH2 0x1EB JUMPI DUP1 PUSH4 0xC87B56DD EQ PUSH2 0x147 JUMPI DUP1 PUSH4 0xCB4799F2 EQ PUSH2 0xF1 JUMPI PUSH4 0xF2C298BE EQ PUSH2 0xA2 JUMPI PUSH0 DUP1 REVERT JUMPDEST CALLVALUE PUSH2 0xED JUMPI PUSH1 0x20 CALLDATASIZE PUSH1 0x3 NOT ADD SLT PUSH2 0xED JUMPI DUP2 CALLDATALOAD PUSH8 0xFFFFFFFFFFFFFFFF DUP2 GT PUSH2 0xED JUMPI PUSH2 0xE0 PUSH2 0xD9 PUSH1 0x20 SWAP5 PUSH2 0xE6 SWAP4 CALLDATASIZE SWAP2 ADD PUSH2 0x965 JUMP JUMPDEST CALLDATASIZE SWAP2 PUSH2 0xB63 JUMP JUMPDEST CALLER PUSH2 0xCC5 JUMP JUMPDEST SWAP1 MLOAD SWAP1 DUP2 MSTORE RETURN JUMPDEST PUSH0 DUP1 REVERT JUMPDEST POP CALLVALUE PUSH2 0xED JUMPI PUSH2 0x12A PUSH2 0x143 SWAP2 PUSH2 0x131 PUSH2 0x11F PUSH2 0x10D CALLDATASIZE PUSH2 0x993 JUMP JUMPDEST SWAP1 SWAP2 PUSH0 MSTORE PUSH1 0x5 PUSH1 0x20 MSTORE DUP5 PUSH0 KECCAK256 SWAP2 PUSH2 0xB20 JUMP JUMPDEST DUP3 MLOAD SWAP4 DUP5 DUP1 SWAP3 PUSH2 0xC12 JUMP JUMPDEST SUB DUP4 PUSH2 0xAEA JUMP JUMPDEST MLOAD SWAP2 DUP3 SWAP2 PUSH1 0x20 DUP4 MSTORE PUSH1 0x20 DUP4 ADD SWAP1 PUSH2 0x9C7 JUMP JUMPDEST SUB SWAP1 RETURN JUMPDEST POP SWAP1 CALLVALUE PUSH2 0xED JUMPI PUSH1 0x20 SWAP1 DUP2 PUSH1 0x3 NOT CALLDATASIZE ADD SLT PUSH2 0xED JUMPI DUP1 CALLDATALOAD PUSH0 DUP2 DUP2 MSTORE PUSH1 0x1 DUP5 MSTORE DUP5 SWAP1 KECCAK256 SLOAD SWAP1 SWAP2 SWAP1 PUSH1 0x1 PUSH1 0x1 PUSH1 0xA0 SHL SUB AND ISZERO PUSH2 0x1B1 JUMPI POP PUSH2 0x19B SWAP3 PUSH2 0x143 SWAP2 PUSH0 MSTORE PUSH1 0x3 DUP4 MSTORE PUSH2 0x1A2 DUP2 PUSH0 KECCAK256 DUP3 MLOAD SWAP6 DUP7 DUP1 SWAP3 PUSH2 0xC12 JUMP JUMPDEST SUB DUP6 PUSH2 0xAEA JUMP JUMPDEST MLOAD SWAP3 DUP3 DUP5 SWAP4 DUP5 MSTORE DUP4 ADD SWAP1 PUSH2 0x9C7 JUMP JUMPDEST DUP4 MLOAD PUSH3 0x461BCD PUSH1 0xE5 SHL DUP2 MSTORE SWAP1 DUP2 ADD DUP4 SWAP1 MSTORE PUSH1 0x14 PUSH1 0x24 DUP3 ADD MSTORE PUSH20 0x1059D95B9D08191BD95CC81B9BDD08195E1A5CDD PUSH1 0x62 SHL PUSH1 0x44 DUP3 ADD MSTORE PUSH1 0x64 SWAP1 REVERT JUMPDEST POP SWAP1 CALLVALUE PUSH2 0xED JUMPI DUP2 PUSH1 0x3 NOT CALLDATASIZE ADD SLT PUSH2 0xED JUMPI PUSH8 0xFFFFFFFFFFFFFFFF SWAP2 DUP2 CALLDATALOAD DUP4 DUP2 GT PUSH2 0xED JUMPI PUSH2 0x21D SWAP1 CALLDATASIZE SWAP1 DUP5 ADD PUSH2 0x965 JUMP JUMPDEST SWAP4 SWAP1 PUSH1 0x24 SWAP5 PUSH1 0x24 CALLDATALOAD SWAP3 DUP1 DUP5 GT PUSH2 0xED JUMPI CALLDATASIZE PUSH1 0x23 DUP6 ADD SLT ISZERO PUSH2 0xED JUMPI DUP4 DUP7 ADD CALLDATALOAD SWAP3 DUP2 DUP5 GT PUSH2 0xED JUMPI PUSH1 0x24 DUP6 ADD SWAP3 PUSH1 0x5 SWAP6 PUSH1 0x24 CALLDATASIZE SWAP2 DUP8 PUSH1 0x5 SHL ADD ADD GT PUSH2 0xED JUMPI PUSH2 0x26A SWAP2 PUSH2 0xE0 SWAP2 CALLDATASIZE SWAP2 PUSH2 0xB63 JUMP JUMPDEST SWAP6 PUSH0 JUMPDEST DUP5 DUP2 LT PUSH2 0x27E JUMPI PUSH1 0x20 DUP9 DUP9 MLOAD SWAP1 DUP2 MSTORE RETURN JUMPDEST PUSH2 0x289 DUP2 DUP7 DUP7 PUSH2 0xBA9 JUMP JUMPDEST PUSH2 0x298 PUSH1 0x20 SWAP2 DUP3 DUP2 ADD SWAP1 PUSH2 0xBDF JUMP JUMPDEST DUP11 PUSH0 MSTORE DUP9 DUP4 MSTORE PUSH2 0x2BE DUP11 PUSH0 KECCAK256 PUSH2 0x2B8 PUSH2 0x2B2 DUP8 DUP13 DUP13 PUSH2 0xBA9 JUMP JUMPDEST DUP1 PUSH2 0xBDF JUMP JUMPDEST SWAP1 PUSH2 0xB20 JUMP JUMPDEST SWAP2 DUP7 DUP3 GT PUSH2 0x42A JUMPI DUP9 SWAP5 SWAP4 DUP4 DUP4 DUP11 SWAP4 DUP16 SWAP6 DUP16 SWAP8 SWAP1 PUSH2 0x2DF PUSH2 0x2E5 SWAP3 SLOAD PUSH2 0xA43 JUMP JUMPDEST DUP6 PUSH2 0xA7B JUMP JUMPDEST PUSH0 SWAP1 PUSH1 0x1F DUP4 GT PUSH1 0x1 EQ PUSH2 0x397 JUMPI SWAP4 PUSH0 DUP1 MLOAD PUSH1 0x20 PUSH2 0xE44 DUP4 CODECOPY DUP2 MLOAD SWAP2 MSTORE SWAP6 SWAP4 PUSH2 0x32E DUP5 PUSH2 0x383 SWAP6 PUSH2 0x365 SWAP6 PUSH1 0x1 SWAP15 SWAP10 PUSH0 SWAP3 PUSH2 0x38C JUMPI JUMPDEST POP POP DUP2 PUSH1 0x1 SHL SWAP2 PUSH0 NOT SWAP1 PUSH1 0x3 SHL SHR NOT AND OR SWAP1 JUMP JUMPDEST SWAP1 SSTORE JUMPDEST PUSH2 0x33F PUSH2 0x2B2 DUP11 DUP8 DUP8 PUSH2 0xBA9 JUMP JUMPDEST SWAP3 SWAP1 SWAP2 PUSH2 0x35C DUP12 PUSH2 0x354 PUSH2 0x2B2 DUP3 DUP12 DUP12 PUSH2 0xBA9 JUMP JUMPDEST SWAP10 SWAP1 SWAP9 PUSH2 0xBA9 JUMP JUMPDEST SWAP1 DUP2 ADD SWAP1 PUSH2 0xBDF JUMP JUMPDEST SWAP3 SWAP1 SWAP2 DUP2 DUP11 MLOAD SWAP3 DUP4 SWAP3 DUP4 CALLDATACOPY DUP2 ADD PUSH0 DUP2 MSTORE SUB SWAP1 KECCAK256 SWAP8 MLOAD SWAP5 DUP6 SWAP5 DUP6 PUSH2 0xB39 JUMP JUMPDEST SUB SWAP1 LOG3 ADD PUSH2 0x26D JUMP JUMPDEST ADD CALLDATALOAD SWAP1 POP PUSH0 DUP1 PUSH2 0x31A JUMP JUMPDEST PUSH1 0x1F NOT DUP4 AND SWAP2 DUP5 PUSH0 MSTORE DUP6 PUSH0 KECCAK256 SWAP3 PUSH0 JUMPDEST DUP2 DUP2 LT PUSH2 0x3FB JUMPI POP SWAP4 PUSH2 0x365 SWAP4 PUSH1 0x1 SWAP13 SWAP8 SWAP4 PUSH0 DUP1 MLOAD PUSH1 0x20 PUSH2 0xE44 DUP4 CODECOPY DUP2 MLOAD SWAP2 MSTORE SWAP10 SWAP8 SWAP4 DUP4 PUSH2 0x383 SWAP9 LT PUSH2 0x3E2 JUMPI JUMPDEST POP POP POP DUP12 SHL DUP12 ADD SWAP1 SSTORE PUSH2 0x331 JUMP JUMPDEST ADD CALLDATALOAD PUSH0 NOT PUSH1 0x3 DUP5 SWAP1 SHL PUSH1 0xF8 AND SHR NOT AND SWAP1 SSTORE PUSH0 DUP1 DUP1 PUSH2 0x3D4 JUMP JUMPDEST SWAP6 SWAP10 POP SWAP4 SWAP8 POP SWAP6 POP SWAP4 DUP1 SWAP9 SWAP10 POP PUSH1 0x1 DUP2 SWAP3 DUP8 DUP8 ADD CALLDATALOAD DUP2 SSTORE ADD SWAP6 ADD SWAP3 ADD SWAP4 DUP16 SWAP6 SWAP2 SWAP4 DUP16 SWAP8 SWAP4 DUP15 SWAP11 SWAP10 SWAP6 DUP15 SWAP8 PUSH2 0x3A6 JUMP JUMPDEST DUP13 PUSH1 0x41 DUP8 PUSH4 0x4E487B71 PUSH1 0xE0 SHL PUSH0 MSTORE MSTORE PUSH0 REVERT JUMPDEST POP CALLVALUE PUSH2 0xED JUMPI PUSH1 0x20 CALLDATASIZE PUSH1 0x3 NOT ADD SLT PUSH2 0xED JUMPI DUP2 CALLDATALOAD PUSH1 0x1 PUSH1 0x1 PUSH1 0xA0 SHL SUB DUP2 AND SWAP1 DUP2 SWAP1 SUB PUSH2 0xED JUMPI DUP1 ISZERO PUSH2 0x47D JUMPI PUSH1 0x20 SWAP3 POP PUSH0 MSTORE PUSH1 0x2 DUP3 MSTORE DUP1 PUSH0 KECCAK256 SLOAD SWAP1 MLOAD SWAP1 DUP2 MSTORE RETURN JUMPDEST DUP2 MLOAD PUSH3 0x461BCD PUSH1 0xE5 SHL DUP2 MSTORE PUSH1 0x20 DUP2 DUP6 ADD MSTORE PUSH1 0xC PUSH1 0x24 DUP3 ADD MSTORE PUSH12 0x5A65726F2061646472657373 PUSH1 0xA0 SHL PUSH1 0x44 DUP3 ADD MSTORE PUSH1 0x64 SWAP1 REVERT JUMPDEST POP SWAP1 CALLVALUE PUSH2 0xED JUMPI PUSH1 0x20 CALLDATASIZE PUSH1 0x3 NOT ADD SLT PUSH2 0xED JUMPI DUP1 CALLDATALOAD PUSH0 SWAP1 DUP2 MSTORE PUSH1 0x1 PUSH1 0x20 MSTORE DUP3 SWAP1 KECCAK256 SLOAD PUSH1 0x1 PUSH1 0x1 PUSH1 0xA0 SHL SUB AND SWAP1 DUP2 ISZERO PUSH2 0x4EB JUMPI POP PUSH1 0x20 SWAP2 MLOAD SWAP1 DUP2 MSTORE RETURN JUMPDEST PUSH1 0x64 SWAP1 PUSH1 0x20 DUP5 MLOAD SWAP2 PUSH3 0x461BCD PUSH1 0xE5 SHL DUP4 MSTORE DUP3 ADD MSTORE PUSH1 0x14 PUSH1 0x24 DUP3 ADD MSTORE PUSH20 0x151BDAD95B88191BD95CC81B9BDD08195E1A5CDD PUSH1 0x62 SHL PUSH1 0x44 DUP3 ADD MSTORE REVERT JUMPDEST POP SWAP1 CALLVALUE PUSH2 0xED JUMPI PUSH1 0x60 CALLDATASIZE PUSH1 0x3 NOT ADD SLT PUSH2 0xED JUMPI DUP1 CALLDATALOAD SWAP1 PUSH8 0xFFFFFFFFFFFFFFFF SWAP1 PUSH1 0x24 CALLDATALOAD DUP3 DUP2 GT PUSH2 0xED JUMPI PUSH2 0x55C SWAP1 CALLDATASIZE SWAP1 DUP4 ADD PUSH2 0x965 JUMP JUMPDEST SWAP3 SWAP1 SWAP2 PUSH1 0x44 CALLDATALOAD DUP3 DUP2 GT PUSH2 0xED JUMPI PUSH2 0x576 SWAP1 CALLDATASIZE SWAP1 DUP4 ADD PUSH2 0x965 JUMP JUMPDEST SWAP3 SWAP1 SWAP2 DUP7 PUSH0 MSTORE PUSH1 0x1 PUSH1 0x20 SWAP2 PUSH1 0x1 PUSH1 0x20 MSTORE PUSH2 0x59C PUSH1 0x1 DUP1 PUSH1 0xA0 SHL SUB DUP12 PUSH0 KECCAK256 SLOAD AND CALLER EQ PUSH2 0xA05 JUMP JUMPDEST DUP9 PUSH0 MSTORE PUSH1 0x5 PUSH1 0x20 MSTORE PUSH2 0x5B1 DUP11 PUSH0 KECCAK256 DUP10 DUP10 PUSH2 0xB20 JUMP JUMPDEST SWAP4 DUP7 GT PUSH2 0x6B5 JUMPI POP PUSH2 0x5C7 DUP6 PUSH2 0x2DF DUP6 SLOAD PUSH2 0xA43 JUMP JUMPDEST PUSH0 SWAP2 PUSH1 0x1F DUP7 GT PUSH1 0x1 EQ PUSH2 0x63A JUMPI POP POP SWAP2 DUP4 SWAP2 PUSH2 0x60C DUP4 PUSH0 DUP1 MLOAD PUSH1 0x20 PUSH2 0xE44 DUP4 CODECOPY DUP2 MLOAD SWAP2 MSTORE SWAP9 SWAP8 SWAP7 PUSH2 0x62A SWAP7 PUSH0 SWAP2 PUSH2 0x62F JUMPI JUMPDEST POP DUP2 PUSH1 0x1 SHL SWAP2 PUSH0 NOT SWAP1 PUSH1 0x3 SHL SHR NOT AND OR SWAP1 JUMP JUMPDEST SWAP1 SSTORE JUMPDEST DUP8 MLOAD DUP6 DUP6 DUP3 CALLDATACOPY DUP1 DUP7 DUP2 ADD PUSH0 DUP2 MSTORE SUB SWAP1 KECCAK256 SWAP8 MLOAD SWAP5 DUP6 SWAP5 DUP6 PUSH2 0xB39 JUMP JUMPDEST SUB SWAP1 LOG3 STOP JUMPDEST SWAP1 POP DUP5 ADD CALLDATALOAD PUSH0 PUSH2 0x5F9 JUMP JUMPDEST PUSH0 DUP5 DUP2 MSTORE PUSH1 0x20 DUP2 KECCAK256 SWAP4 SWAP3 PUSH1 0x1F NOT DUP9 AND SWAP3 SWAP1 JUMPDEST DUP4 DUP4 LT PUSH2 0x69E JUMPI POP POP POP SWAP2 DUP6 SWAP4 SWAP2 PUSH0 DUP1 MLOAD PUSH1 0x20 PUSH2 0xE44 DUP4 CODECOPY DUP2 MLOAD SWAP2 MSTORE SWAP9 SWAP8 SWAP7 PUSH2 0x62A SWAP7 SWAP5 LT PUSH2 0x685 JUMPI JUMPDEST POP POP PUSH1 0x1 DUP4 DUP2 SHL ADD SWAP1 SSTORE PUSH2 0x60F JUMP JUMPDEST DUP4 ADD CALLDATALOAD PUSH0 NOT PUSH1 0x3 DUP7 SWAP1 SHL PUSH1 0xF8 AND SHR NOT AND SWAP1 SSTORE PUSH0 DUP1 PUSH2 0x676 JUMP JUMPDEST DUP8 DUP6 ADD CALLDATALOAD DUP7 SSTORE SWAP5 DUP6 ADD SWAP5 SWAP4 DUP2 ADD SWAP4 SWAP2 DUP2 ADD SWAP2 PUSH2 0x64C JUMP JUMPDEST PUSH1 0x41 SWAP1 PUSH4 0x4E487B71 PUSH1 0xE0 SHL PUSH0 MSTORE MSTORE PUSH1 0x24 PUSH0 REVERT JUMPDEST POP SWAP1 CALLVALUE PUSH2 0xED JUMPI PUSH1 0x20 CALLDATASIZE PUSH1 0x3 NOT ADD SLT PUSH2 0xED JUMPI DUP1 CALLDATALOAD DUP1 PUSH0 MSTORE PUSH1 0x1 PUSH1 0x20 MSTORE PUSH2 0x6FB PUSH1 0x1 DUP1 PUSH1 0xA0 SHL SUB DUP5 PUSH0 KECCAK256 SLOAD AND CALLER EQ PUSH2 0xA05 JUMP JUMPDEST PUSH0 MSTORE PUSH1 0x20 MSTORE PUSH0 KECCAK256 PUSH1 0x1 PUSH1 0x1 PUSH1 0x60 SHL SUB PUSH1 0xA0 SHL DUP2 SLOAD AND SWAP1 SSTORE PUSH0 DUP1 RETURN JUMPDEST POP CALLVALUE PUSH2 0xED JUMPI PUSH1 0x80 CALLDATASIZE PUSH1 0x3 NOT ADD SLT PUSH2 0xED JUMPI PUSH1 0x1 PUSH1 0x1 PUSH1 0xA0 SHL SUB PUSH1 0x24 CALLDATALOAD DUP2 DUP2 AND SWAP4 SWAP2 DUP3 CALLDATALOAD SWAP2 DUP6 SWAP1 SUB PUSH2 0xED JUMPI PUSH1 0x64 CALLDATALOAD SWAP1 PUSH8 0xFFFFFFFFFFFFFFFF DUP3 GT PUSH2 0xED JUMPI PUSH2 0x765 PUSH2 0x77B SWAP3 CALLDATASIZE SWAP1 DUP7 ADD PUSH2 0x965 JUMP JUMPDEST POP POP DUP3 PUSH0 MSTORE PUSH1 0x1 PUSH1 0x20 MSTORE DUP5 PUSH0 KECCAK256 SLOAD AND CALLER EQ PUSH2 0xA05 JUMP JUMPDEST PUSH0 MSTORE PUSH1 0x20 MSTORE PUSH0 KECCAK256 SWAP1 PUSH1 0x1 PUSH1 0x1 PUSH1 0x60 SHL SUB PUSH1 0xA0 SHL DUP3 SLOAD AND OR SWAP1 SSTORE PUSH0 DUP1 RETURN JUMPDEST POP CALLVALUE PUSH2 0xED JUMPI PUSH0 CALLDATASIZE PUSH1 0x3 NOT ADD SLT PUSH2 0xED JUMPI DUP1 MLOAD SWAP2 PUSH1 0x20 DUP4 ADD SWAP1 DUP4 DUP3 LT PUSH8 0xFFFFFFFFFFFFFFFF DUP4 GT OR PUSH2 0x6B5 JUMPI POP PUSH1 0x20 SWAP3 PUSH2 0xE6 SWAP2 DUP4 MSTORE PUSH0 DUP2 MSTORE CALLER PUSH2 0xCC5 JUMP JUMPDEST POP CALLVALUE PUSH2 0xED JUMPI PUSH2 0x7E6 CALLDATASIZE PUSH2 0x993 JUMP JUMPDEST DUP3 PUSH0 MSTORE PUSH1 0x1 SWAP5 PUSH1 0x20 SWAP6 PUSH1 0x1 DUP8 MSTORE PUSH2 0x809 PUSH1 0x1 DUP1 PUSH1 0xA0 SHL SUB DUP8 PUSH0 KECCAK256 SLOAD AND CALLER EQ PUSH2 0xA05 JUMP JUMPDEST DUP5 PUSH0 MSTORE PUSH1 0x3 DUP8 MSTORE DUP6 PUSH0 KECCAK256 SWAP2 PUSH8 0xFFFFFFFFFFFFFFFF DUP5 GT PUSH2 0x6B5 JUMPI POP PUSH2 0x838 DUP4 PUSH2 0x832 DUP5 SLOAD PUSH2 0xA43 JUMP JUMPDEST DUP5 PUSH2 0xA7B JUMP JUMPDEST PUSH0 SWAP1 PUSH1 0x1F DUP5 GT PUSH1 0x1 EQ PUSH2 0x8AB JUMPI POP SWAP5 PUSH2 0x62A SWAP2 PUSH2 0x88C DUP5 DUP1 PUSH32 0x3A2C7FFFC2CBA7582C690E3B82C453EA02A308326A98A3AD7576C606336409FB SWAP9 SWAP10 PUSH0 SWAP2 PUSH2 0x8A0 JUMPI POP DUP2 PUSH1 0x1 SHL SWAP2 PUSH0 NOT SWAP1 PUSH1 0x3 SHL SHR NOT AND OR SWAP1 JUMP JUMPDEST SWAP1 SSTORE JUMPDEST MLOAD SWAP3 DUP4 SWAP3 DUP8 DUP5 MSTORE CALLER SWAP8 DUP5 ADD SWAP2 PUSH2 0xACA JUMP JUMPDEST SWAP1 POP DUP8 ADD CALLDATALOAD PUSH0 PUSH2 0x5F9 JUMP JUMPDEST SWAP1 PUSH1 0x1F NOT DUP5 AND DUP4 PUSH0 MSTORE DUP9 PUSH0 KECCAK256 SWAP3 PUSH0 SWAP1 JUMPDEST DUP11 DUP4 DUP4 LT PUSH2 0x91F JUMPI POP POP POP SWAP2 PUSH2 0x62A SWAP4 SWAP2 DUP6 PUSH32 0x3A2C7FFFC2CBA7582C690E3B82C453EA02A308326A98A3AD7576C606336409FB SWAP9 SWAP10 SWAP5 LT PUSH2 0x906 JUMPI JUMPDEST POP POP PUSH1 0x1 DUP5 DUP2 SHL ADD SWAP1 SSTORE PUSH2 0x88F JUMP JUMPDEST DUP7 ADD CALLDATALOAD PUSH0 NOT PUSH1 0x3 DUP8 SWAP1 SHL PUSH1 0xF8 AND SHR NOT AND SWAP1 SSTORE PUSH0 DUP1 PUSH2 0x8F7 JUMP JUMPDEST DUP9 DUP6 ADD CALLDATALOAD DUP7 SSTORE SWAP5 DUP2 ADD SWAP5 SWAP4 DUP5 ADD SWAP4 SWAP2 SWAP1 SWAP2 ADD SWAP1 PUSH2 0x8BB JUMP JUMPDEST SWAP2 SWAP1 POP CALLVALUE PUSH2 0xED JUMPI PUSH1 0x20 CALLDATASIZE PUSH1 0x3 NOT ADD SLT PUSH2 0xED JUMPI DUP3 CALLDATALOAD PUSH0 SWAP1 DUP2 MSTORE PUSH1 0x20 SWAP4 DUP5 MSTORE KECCAK256 SLOAD PUSH1 0x1 PUSH1 0x1 PUSH1 0xA0 SHL SUB AND DUP2 MSTORE RETURN JUMPDEST SWAP2 DUP2 PUSH1 0x1F DUP5 ADD SLT ISZERO PUSH2 0xED JUMPI DUP3 CALLDATALOAD SWAP2 PUSH8 0xFFFFFFFFFFFFFFFF DUP4 GT PUSH2 0xED JUMPI PUSH1 0x20 DUP4 DUP2 DUP7 ADD SWAP6 ADD ADD GT PUSH2 0xED JUMPI JUMP JUMPDEST SWAP1 PUSH1 0x40 PUSH1 0x3 NOT DUP4 ADD SLT PUSH2 0xED JUMPI PUSH1 0x4 CALLDATALOAD SWAP2 PUSH1 0x24 CALLDATALOAD SWAP1 PUSH8 0xFFFFFFFFFFFFFFFF DUP3 GT PUSH2 0xED JUMPI PUSH2 0x9C3 SWAP2 PUSH1 0x4 ADD PUSH2 0x965 JUMP JUMPDEST SWAP1 SWAP2 JUMP JUMPDEST SWAP2 SWAP1 DUP3 MLOAD SWAP3 DUP4 DUP3 MSTORE PUSH0 JUMPDEST DUP5 DUP2 LT PUSH2 0x9F1 JUMPI POP POP DUP3 PUSH0 PUSH1 0x20 DUP1 SWAP5 SWAP6 DUP5 ADD ADD MSTORE PUSH1 0x1F DUP1 NOT SWAP2 ADD AND ADD ADD SWAP1 JUMP JUMPDEST PUSH1 0x20 DUP2 DUP4 ADD DUP2 ADD MLOAD DUP5 DUP4 ADD DUP3 ADD MSTORE ADD PUSH2 0x9D1 JUMP JUMPDEST ISZERO PUSH2 0xA0C JUMPI JUMP JUMPDEST PUSH1 0x40 MLOAD PUSH3 0x461BCD PUSH1 0xE5 SHL DUP2 MSTORE PUSH1 0x20 PUSH1 0x4 DUP3 ADD MSTORE PUSH1 0xF PUSH1 0x24 DUP3 ADD MSTORE PUSH15 0x2737BA1030B3B2B73A1037BBB732B9 PUSH1 0x89 SHL PUSH1 0x44 DUP3 ADD MSTORE PUSH1 0x64 SWAP1 REVERT JUMPDEST SWAP1 PUSH1 0x1 DUP3 DUP2 SHR SWAP3 AND DUP1 ISZERO PUSH2 0xA71 JUMPI JUMPDEST PUSH1 0x20 DUP4 LT EQ PUSH2 0xA5D JUMPI JUMP JUMPDEST PUSH4 0x4E487B71 PUSH1 0xE0 SHL PUSH0 MSTORE PUSH1 0x22 PUSH1 0x4 MSTORE PUSH1 0x24 PUSH0 REVERT JUMPDEST SWAP2 PUSH1 0x7F AND SWAP2 PUSH2 0xA52 JUMP JUMPDEST PUSH1 0x1F DUP3 GT PUSH2 0xA88 JUMPI POP POP POP JUMP JUMPDEST PUSH0 MSTORE PUSH1 0x20 PUSH0 KECCAK256 SWAP1 PUSH1 0x20 PUSH1 0x1F DUP5 ADD PUSH1 0x5 SHR DUP4 ADD SWAP4 LT PUSH2 0xAC0 JUMPI JUMPDEST PUSH1 0x1F ADD PUSH1 0x5 SHR ADD SWAP1 JUMPDEST DUP2 DUP2 LT PUSH2 0xAB5 JUMPI POP POP JUMP JUMPDEST PUSH0 DUP2 SSTORE PUSH1 0x1 ADD PUSH2 0xAAA JUMP JUMPDEST SWAP1 SWAP2 POP DUP2 SWAP1 PUSH2 0xAA1 JUMP JUMPDEST SWAP1 DUP1 PUSH1 0x20 SWAP4 SWAP3 DUP2 DUP5 MSTORE DUP5 DUP5 ADD CALLDATACOPY PUSH0 DUP3 DUP3 ADD DUP5 ADD MSTORE PUSH1 0x1F ADD PUSH1 0x1F NOT AND ADD ADD SWAP1 JUMP JUMPDEST SWAP1 PUSH1 0x1F DUP1 NOT SWAP2 ADD AND DUP2 ADD SWAP1 DUP2 LT PUSH8 0xFFFFFFFFFFFFFFFF DUP3 GT OR PUSH2 0xB0C JUMPI PUSH1 0x40 MSTORE JUMP JUMPDEST PUSH4 0x4E487B71 PUSH1 0xE0 SHL PUSH0 MSTORE PUSH1 0x41 PUSH1 0x4 MSTORE PUSH1 0x24 PUSH0 REVERT JUMPDEST PUSH1 0x20 SWAP2 SWAP3 DUP4 PUSH1 0x40 MLOAD SWAP5 DUP6 SWAP4 DUP5 CALLDATACOPY DUP3 ADD SWAP1 DUP2 MSTORE SUB ADD SWAP1 KECCAK256 SWAP1 JUMP JUMPDEST SWAP3 SWAP1 PUSH2 0xB52 SWAP1 PUSH2 0xB60 SWAP6 SWAP4 PUSH1 0x40 DUP7 MSTORE PUSH1 0x40 DUP7 ADD SWAP2 PUSH2 0xACA JUMP JUMPDEST SWAP3 PUSH1 0x20 DUP2 DUP6 SUB SWAP2 ADD MSTORE PUSH2 0xACA JUMP JUMPDEST SWAP1 JUMP JUMPDEST SWAP3 SWAP2 SWAP3 PUSH8 0xFFFFFFFFFFFFFFFF DUP3 GT PUSH2 0xB0C JUMPI PUSH1 0x40 MLOAD SWAP2 PUSH2 0xB8D PUSH1 0x1F DUP3 ADD PUSH1 0x1F NOT AND PUSH1 0x20 ADD DUP5 PUSH2 0xAEA JUMP JUMPDEST DUP3 SWAP5 DUP2 DUP5 MSTORE DUP2 DUP4 ADD GT PUSH2 0xED JUMPI DUP3 DUP2 PUSH1 0x20 SWAP4 DUP5 PUSH0 SWAP7 ADD CALLDATACOPY ADD ADD MSTORE JUMP JUMPDEST SWAP2 SWAP1 DUP2 LT ISZERO PUSH2 0xBCB JUMPI PUSH1 0x5 SHL DUP2 ADD CALLDATALOAD SWAP1 PUSH1 0x3E NOT DUP2 CALLDATASIZE SUB ADD DUP3 SLT ISZERO PUSH2 0xED JUMPI ADD SWAP1 JUMP JUMPDEST PUSH4 0x4E487B71 PUSH1 0xE0 SHL PUSH0 MSTORE PUSH1 0x32 PUSH1 0x4 MSTORE PUSH1 0x24 PUSH0 REVERT JUMPDEST SWAP1 CALLDATALOAD SWAP1 PUSH1 0x1E NOT DUP2 CALLDATASIZE SUB ADD DUP3 SLT ISZERO PUSH2 0xED JUMPI ADD DUP1 CALLDATALOAD SWAP1 PUSH8 0xFFFFFFFFFFFFFFFF DUP3 GT PUSH2 0xED JUMPI PUSH1 0x20 ADD SWAP2 DUP2 CALLDATASIZE SUB DUP4 SGT PUSH2 0xED JUMPI JUMP JUMPDEST DUP1 SLOAD PUSH0 SWAP4 SWAP3 PUSH2 0xC20 DUP3 PUSH2 0xA43 JUMP JUMPDEST SWAP2 DUP3 DUP3 MSTORE PUSH1 0x20 SWAP4 PUSH1 0x1 SWAP2 PUSH1 0x1 DUP2 AND SWAP1 DUP2 PUSH0 EQ PUSH2 0xC84 JUMPI POP PUSH1 0x1 EQ PUSH2 0xC46 JUMPI JUMPDEST POP POP POP POP POP JUMP JUMPDEST SWAP1 SWAP4 SWAP5 SWAP6 POP PUSH0 SWAP3 SWAP2 SWAP3 MSTORE DUP4 PUSH0 KECCAK256 SWAP3 DUP5 PUSH0 SWAP5 JUMPDEST DUP4 DUP7 LT PUSH2 0xC70 JUMPI POP POP POP POP ADD ADD SWAP1 PUSH0 DUP1 DUP1 DUP1 DUP1 PUSH2 0xC3F JUMP JUMPDEST DUP1 SLOAD DUP6 DUP8 ADD DUP4 ADD MSTORE SWAP5 ADD SWAP4 DUP6 SWAP1 DUP3 ADD PUSH2 0xC58 JUMP JUMPDEST PUSH1 0xFF NOT AND DUP7 DUP6 ADD MSTORE POP POP POP SWAP1 ISZERO ISZERO PUSH1 0x5 SHL ADD ADD SWAP2 POP PUSH0 DUP1 DUP1 DUP1 DUP1 PUSH2 0xC3F JUMP JUMPDEST PUSH0 NOT DUP2 EQ PUSH2 0xCB1 JUMPI PUSH1 0x1 ADD SWAP1 JUMP JUMPDEST PUSH4 0x4E487B71 PUSH1 0xE0 SHL PUSH0 MSTORE PUSH1 0x11 PUSH1 0x4 MSTORE PUSH1 0x24 PUSH0 REVERT JUMPDEST SWAP2 SWAP1 SWAP2 PUSH0 SLOAD PUSH2 0xCD3 DUP2 PUSH2 0xCA3 JUMP JUMPDEST PUSH0 SSTORE DUP1 SWAP4 DUP2 PUSH0 MSTORE PUSH1 0x1 PUSH1 0x20 SWAP1 PUSH1 0x1 DUP3 MSTORE PUSH1 0x40 PUSH0 KECCAK256 SWAP5 PUSH1 0x1 DUP1 PUSH1 0xA0 SHL SUB AND SWAP5 DUP6 PUSH1 0x1 PUSH1 0x1 PUSH1 0x60 SHL SUB PUSH1 0xA0 SHL DUP3 SLOAD AND OR SWAP1 SSTORE DUP5 PUSH0 MSTORE PUSH1 0x2 DUP3 MSTORE PUSH1 0x40 PUSH0 KECCAK256 PUSH2 0xD18 DUP2 SLOAD PUSH2 0xCA3 JUMP JUMPDEST SWAP1 SSTORE DUP4 PUSH0 MSTORE PUSH1 0x3 DUP3 MSTORE PUSH1 0x40 PUSH0 KECCAK256 SWAP1 DUP4 MLOAD SWAP1 PUSH8 0xFFFFFFFFFFFFFFFF DUP3 GT PUSH2 0xB0C JUMPI PUSH2 0xD46 DUP3 PUSH2 0x2DF DUP6 SLOAD PUSH2 0xA43 JUMP JUMPDEST DUP4 SWAP1 PUSH1 0x1F DUP4 GT PUSH1 0x1 EQ PUSH2 0xDBE JUMPI POP DUP2 PUSH32 0xCA52E62C367D81BB2E328EB795F7C7BA24AFB478408A26C0E201D155C449BC4A SWAP6 SWAP5 SWAP4 SWAP3 PUSH2 0xD97 SWAP3 PUSH0 SWAP2 PUSH2 0xDB3 JUMPI POP DUP2 PUSH1 0x1 SHL SWAP2 PUSH0 NOT SWAP1 PUSH1 0x3 SHL SHR NOT AND OR SWAP1 JUMP JUMPDEST SWAP1 SSTORE JUMPDEST PUSH2 0xDAE PUSH1 0x40 MLOAD SWAP3 DUP3 DUP5 SWAP4 DUP5 MSTORE DUP4 ADD SWAP1 PUSH2 0x9C7 JUMP JUMPDEST SUB SWAP1 LOG3 JUMP JUMPDEST SWAP1 POP DUP6 ADD MLOAD PUSH0 PUSH2 0x5F9 JUMP JUMPDEST SWAP1 PUSH1 0x1F NOT DUP4 AND DUP5 PUSH0 MSTORE DUP6 PUSH0 KECCAK256 SWAP3 PUSH0 SWAP1 JUMPDEST DUP3 DUP3 LT PUSH2 0xE2C JUMPI POP POP SWAP2 DUP4 SWAP2 PUSH32 0xCA52E62C367D81BB2E328EB795F7C7BA24AFB478408A26C0E201D155C449BC4A SWAP8 SWAP7 SWAP6 SWAP5 PUSH1 0x1 SWAP5 LT PUSH2 0xE14 JUMPI JUMPDEST POP POP DUP2 SHL ADD SWAP1 SSTORE PUSH2 0xD9A JUMP JUMPDEST DUP7 ADD MLOAD PUSH0 NOT PUSH1 0xF8 DUP5 PUSH1 0x3 SHL AND SHR NOT AND SWAP1 SSTORE PUSH0 DUP1 PUSH2 0xE08 JUMP JUMPDEST DUP9 DUP5 ADD MLOAD DUP6 SSTORE SWAP4 DUP5 ADD SWAP4 SWAP3 DUP8 ADD SWAP3 SWAP1 DUP8 ADD SWAP1 PUSH2 0xDCE JUMP INVALID 0x2C EQ SWAP15 0xD5 BASEFEE 0xC6 0xD2 SWAP10 EXTCODECOPY 0xD7 RETURNDATACOPY INVALID XOR PUSH30 0xF6ECCABE4538091B33ADBD25FAFDB8A1468BA2646970667358221220EBC6 0x2C 0xAF EXTCODECOPY 0xD7 SWAP13 PUSH3 0xC57DC2 0xFB SWAP4 0xDB SWAP2 0x27 PUSH25 0x1FEB84F3D59AF09ECF2A5D6F7955C764736F6C634300081800 CALLER "},"methodIdentifiers":{"balanceOf(address)":"70a08231","getAgentWallet(uint256)":"00339509","getMetadata(uint256,string)":"cb4799f2","ownerOf(uint256)":"6352211e","register()":"1aa3a008","register(string)":"f2c298be","register(string,(string,bytes)[])":"8ea42286","setAgentURI(uint256,string)":"0af28bd3","setAgentWallet(uint256,address,uint256,bytes)":"2d1ef5ae","setMetadata(uint256,string,bytes)":"466648da","tokenURI(uint256)":"c87b56dd","unsetAgentWallet(uint256)":"3fddcf19"}}}}}