{
  "_format": "hh3-artifact-1",
  "contractName": "IdentityRegistry",
  "sourceName": "contracts/erc8004/IdentityRegistry.sol",
  "abi": [
    {
      "anonymous": false,
      "inputs": [
        {
          "indexed": true,
          "internalType": "uint256",
          "name": "agentId",
          "type": "uint256"
        },
        {
          "indexed": true,
          "internalType": "string",
          "name": "indexedMetadataKey",
          "type": "string"
        },
        {
          "indexed": false,
          "internalType": "string",
          "name": "metadataKey",
          "type": "string"
        },
        {
          "indexed": false,
          "internalType": "bytes",
          "name": "metadataValue",
          "type": "bytes"
        }
      ],
      "name": "MetadataSet",
      "type": "event"
    },
    {
      "anonymous": false,
      "inputs": [
        {
          "indexed": true,
          "internalType": "uint256",
          "name": "agentId",
          "type": "uint256"
        },
        {
          "indexed": false,
          "internalType": "string",
          "name": "agentURI",
          "type": "string"
        },
        {
          "indexed": true,
          "internalType": "address",
          "name": "owner",
          "type": "address"
        }
      ],
      "name": "Registered",
      "type": "event"
    },
    {
      "anonymous": false,
      "inputs": [
        {
          "indexed": true,
          "internalType": "uint256",
          "name": "agentId",
          "type": "uint256"
        },
        {
          "indexed": false,
          "internalType": "string",
          "name": "newURI",
          "type": "string"
        },
        {
          "indexed": true,
          "internalType": "address",
          "name": "updatedBy",
          "type": "address"
        }
      ],
      "name": "URIUpdated",
      "type": "event"
    },
    {
      "inputs": [
        {
          "internalType": "address",
          "name": "owner",
          "type": "address"
        }
      ],
      "name": "balanceOf",
      "outputs": [
        {
          "internalType": "uint256",
          "name": "",
          "type": "uint256"
        }
      ],
      "stateMutability": "view",
      "type": "function"
    },
    {
      "inputs": [
        {
          "internalType": "uint256",
          "name": "agentId",
          "type": "uint256"
        }
      ],
      "name": "getAgentWallet",
      "outputs": [
        {
          "internalType": "address",
          "name": "",
          "type": "address"
        }
      ],
      "stateMutability": "view",
      "type": "function"
    },
    {
      "inputs": [
        {
          "internalType": "uint256",
          "name": "agentId",
          "type": "uint256"
        },
        {
          "internalType": "string",
          "name": "metadataKey",
          "type": "string"
        }
      ],
      "name": "getMetadata",
      "outputs": [
        {
          "internalType": "bytes",
          "name": "",
          "type": "bytes"
        }
      ],
      "stateMutability": "view",
      "type": "function"
    },
    {
      "inputs": [
        {
          "internalType": "uint256",
          "name": "tokenId",
          "type": "uint256"
        }
      ],
      "name": "ownerOf",
      "outputs": [
        {
          "internalType": "address",
          "name": "",
          "type": "address"
        }
      ],
      "stateMutability": "view",
      "type": "function"
    },
    {
      "inputs": [],
      "name": "register",
      "outputs": [
        {
          "internalType": "uint256",
          "name": "agentId",
          "type": "uint256"
        }
      ],
      "stateMutability": "nonpayable",
      "type": "function"
    },
    {
      "inputs": [
        {
          "internalType": "string",
          "name": "agentURI",
          "type": "string"
        },
        {
          "components": [
            {
              "internalType": "string",
              "name": "metadataKey",
              "type": "string"
            },
            {
              "internalType": "bytes",
              "name": "metadataValue",
              "type": "bytes"
            }
          ],
          "internalType": "struct IdentityRegistry.MetadataEntry[]",
          "name": "metadata",
          "type": "tuple[]"
        }
      ],
      "name": "register",
      "outputs": [
        {
          "internalType": "uint256",
          "name": "agentId",
          "type": "uint256"
        }
      ],
      "stateMutability": "nonpayable",
      "type": "function"
    },
    {
      "inputs": [
        {
          "internalType": "string",
          "name": "agentURI",
          "type": "string"
        }
      ],
      "name": "register",
      "outputs": [
        {
          "internalType": "uint256",
          "name": "agentId",
          "type": "uint256"
        }
      ],
      "stateMutability": "nonpayable",
      "type": "function"
    },
    {
      "inputs": [
        {
          "internalType": "uint256",
          "name": "agentId",
          "type": "uint256"
        },
        {
          "internalType": "string",
          "name": "newURI",
          "type": "string"
        }
      ],
      "name": "setAgentURI",
      "outputs": [],
      "stateMutability": "nonpayable",
      "type": "function"
    },
    {
      "inputs": [
        {
          "internalType": "uint256",
          "name": "agentId",
          "type": "uint256"
        },
        {
          "internalType": "address",
          "name": "newWallet",
          "type": "address"
        },
        {
          "internalType": "uint256",
          "name": "",
          "type": "uint256"
        },
        {
          "internalType": "bytes",
          "name": "",
          "type": "bytes"
        }
      ],
      "name": "setAgentWallet",
      "outputs": [],
      "stateMutability": "nonpayable",
      "type": "function"
    },
    {
      "inputs": [
        {
          "internalType": "uint256",
          "name": "agentId",
          "type": "uint256"
        },
        {
          "internalType": "string",
          "name": "metadataKey",
          "type": "string"
        },
        {
          "internalType": "bytes",
          "name": "metadataValue",
          "type": "bytes"
        }
      ],
      "name": "setMetadata",
      "outputs": [],
      "stateMutability": "nonpayable",
      "type": "function"
    },
    {
      "inputs": [
        {
          "internalType": "uint256",
          "name": "tokenId",
          "type": "uint256"
        }
      ],
      "name": "tokenURI",
      "outputs": [
        {
          "internalType": "string",
          "name": "",
          "type": "string"
        }
      ],
      "stateMutability": "view",
      "type": "function"
    },
    {
      "inputs": [
        {
          "internalType": "uint256",
          "name": "agentId",
          "type": "uint256"
        }
      ],
      "name": "unsetAgentWallet",
      "outputs": [],
      "stateMutability": "nonpayable",
      "type": "function"
    }
  ],
  "bytecode": "0x6080806040523461001657610e99908161001b8239f35b5f80fdfe6080604081815260049182361015610015575f80fd5b5f3560e01c90816233950914610937575080630af28bd3146107d75780631aa3a008146107985780632d1ef5ae146107165780633fddcf19146106c8578063466648da146105255780636352211e146104af57806370a082311461043c5780638ea42286146101eb578063c87b56dd14610147578063cb4799f2146100f15763f2c298be146100a2575f80fd5b346100ed5760203660031901126100ed57813567ffffffffffffffff81116100ed576100e06100d96020946100e693369101610965565b3691610b63565b33610cc5565b9051908152f35b5f80fd5b50346100ed5761012a6101439161013161011f61010d36610993565b90915f526005602052845f2091610b20565b825193848092610c12565b0383610aea565b519182916020835260208301906109c7565b0390f35b5090346100ed57602090816003193601126100ed5780355f81815260018452849020549091906001600160a01b0316156101b1575061019b92610143915f52600383526101a2815f20825195868092610c12565b0385610aea565b519282849384528301906109c7565b835162461bcd60e51b815290810183905260146024820152731059d95b9d08191bd95cc81b9bdd08195e1a5cdd60621b6044820152606490fd5b5090346100ed57816003193601126100ed5767ffffffffffffffff9181358381116100ed5761021d9036908401610965565b9390602494602435928084116100ed57366023850112156100ed5783860135928184116100ed576024850192600595602436918760051b0101116100ed5761026a916100e0913691610b63565b955f5b84811061027e576020888851908152f35b610289818686610ba9565b61029860209182810190610bdf565b8a5f528883526102be8a5f206102b86102b2878c8c610ba9565b80610bdf565b90610b20565b9186821161042a5788949383838a938f958f97906102df6102e59254610a43565b85610a7b565b5f90601f831160011461039757935f80516020610e44833981519152959361032e84610383956103659560019e995f9261038c575b50508160011b915f199060031b1c19161790565b90555b61033f6102b28a8787610ba9565b92909161035c8b6103546102b2828b8b610ba9565b999098610ba9565b90810190610bdf565b929091818a51928392833781015f8152039020975194859485610b39565b0390a30161026d565b013590505f8061031a565b601f19831691845f52855f20925f5b8181106103fb5750936103659360019c97935f80516020610e448339815191529997938361038398106103e2575b5050508b1b8b019055610331565b01355f19600384901b60f8161c191690555f80806103d4565b95995093975095509380989950600181928787013581550195019201938f9591938f97938e9a99958e976103a6565b8c604187634e487b7160e01b5f52525ffd5b50346100ed5760203660031901126100ed5781356001600160a01b038116908190036100ed57801561047d57602092505f5260028252805f20549051908152f35b815162461bcd60e51b8152602081850152600c60248201526b5a65726f206164647265737360a01b6044820152606490fd5b5090346100ed5760203660031901126100ed5780355f9081526001602052829020546001600160a01b03169081156104eb575060209151908152f35b606490602084519162461bcd60e51b83528201526014602482015273151bdad95b88191bd95cc81b9bdd08195e1a5cdd60621b6044820152fd5b5090346100ed5760603660031901126100ed5780359067ffffffffffffffff906024358281116100ed5761055c9036908301610965565b9290916044358281116100ed576105769036908301610965565b929091865f526001602091600160205261059c60018060a01b038b5f2054163314610a05565b885f5260056020526105b18a5f208989610b20565b9386116106b557506105c7856102df8554610a43565b5f91601f861160011461063a57505091839161060c835f80516020610e4483398151915298979661062a965f9161062f575b508160011b915f199060031b1c19161790565b90555b875185858237808681015f8152039020975194859485610b39565b0390a3005b90508401355f6105f9565b5f848152602081209392601f19881692905b83831061069e57505050918593915f80516020610e4483398151915298979661062a969410610685575b5050600183811b01905561060f565b8301355f19600386901b60f8161c191690555f80610676565b87850135865594850194938101939181019161064c565b604190634e487b7160e01b5f525260245ffd5b5090346100ed5760203660031901126100ed578035805f5260016020526106fb60018060a01b03845f2054163314610a05565b5f526020525f206001600160601b0360a01b81541690555f80f35b50346100ed5760803660031901126100ed576001600160a01b0360243581811693918235918590036100ed576064359067ffffffffffffffff82116100ed5761076561077b9236908601610965565b5050825f526001602052845f2054163314610a05565b5f526020525f20906001600160601b0360a01b8254161790555f80f35b50346100ed575f3660031901126100ed57805191602083019083821067ffffffffffffffff8311176106b557506020926100e69183525f815233610cc5565b50346100ed576107e636610993565b825f526001946020956001875261080960018060a01b03875f2054163314610a05565b845f5260038752855f209167ffffffffffffffff84116106b55750610838836108328454610a43565b84610a7b565b5f90601f84116001146108ab57509461062a9161088c84807f3a2c7fffc2cba7582c690e3b82c453ea02a308326a98a3ad7576c606336409fb98995f916108a057508160011b915f199060031b1c19161790565b90555b519283928784523397840191610aca565b90508701355f6105f9565b90601f198416835f52885f20925f905b8a83831061091f575050509161062a9391857f3a2c7fffc2cba7582c690e3b82c453ea02a308326a98a3ad7576c606336409fb98999410610906575b5050600184811b01905561088f565b8601355f19600387901b60f8161c191690555f806108f7565b888501358655948101949384019391909101906108bb565b919050346100ed5760203660031901126100ed5782355f908152602093845220546001600160a01b03168152f35b9181601f840112156100ed5782359167ffffffffffffffff83116100ed57602083818601950101116100ed57565b9060406003198301126100ed57600435916024359067ffffffffffffffff82116100ed576109c391600401610965565b9091565b91908251928382525f5b8481106109f1575050825f602080949584010152601f8019910116010190565b6020818301810151848301820152016109d1565b15610a0c57565b60405162461bcd60e51b815260206004820152600f60248201526e2737ba1030b3b2b73a1037bbb732b960891b6044820152606490fd5b90600182811c92168015610a71575b6020831014610a5d57565b634e487b7160e01b5f52602260045260245ffd5b91607f1691610a52565b601f8211610a8857505050565b5f5260205f20906020601f840160051c83019310610ac0575b601f0160051c01905b818110610ab5575050565b5f8155600101610aaa565b9091508190610aa1565b908060209392818452848401375f828201840152601f01601f1916010190565b90601f8019910116810190811067ffffffffffffffff821117610b0c57604052565b634e487b7160e01b5f52604160045260245ffd5b6020919283604051948593843782019081520301902090565b9290610b5290610b609593604086526040860191610aca565b926020818503910152610aca565b90565b92919267ffffffffffffffff8211610b0c5760405191610b8d601f8201601f191660200184610aea565b8294818452818301116100ed578281602093845f960137010152565b9190811015610bcb5760051b81013590603e19813603018212156100ed570190565b634e487b7160e01b5f52603260045260245ffd5b903590601e19813603018212156100ed570180359067ffffffffffffffff82116100ed576020019181360383136100ed57565b80545f9392610c2082610a43565b918282526020936001916001811690815f14610c845750600114610c46575b5050505050565b90939495505f92919252835f2092845f945b838610610c7057505050500101905f80808080610c3f565b805485870183015294019385908201610c58565b60ff19168685015250505090151560051b010191505f80808080610c3f565b5f198114610cb15760010190565b634e487b7160e01b5f52601160045260245ffd5b9190915f54610cd381610ca3565b5f558093815f5260016020906001825260405f209460018060a01b031694856001600160601b0360a01b825416179055845f526002825260405f20610d188154610ca3565b9055835f526003825260405f209083519067ffffffffffffffff8211610b0c57610d46826102df8554610a43565b8390601f8311600114610dbe5750817fca52e62c367d81bb2e328eb795f7c7ba24afb478408a26c0e201d155c449bc4a95949392610d97925f91610db357508160011b915f199060031b1c19161790565b90555b610dae6040519282849384528301906109c7565b0390a3565b90508501515f6105f9565b90601f198316845f52855f20925f905b828210610e2c5750509183917fca52e62c367d81bb2e328eb795f7c7ba24afb478408a26c0e201d155c449bc4a9796959460019410610e14575b5050811b019055610d9a565b8601515f1960f88460031b161c191690555f80610e08565b888401518555938401939287019290870190610dce56fe2c149ed548c6d2993cd73efe187df6eccabe4538091b33adbd25fafdb8a1468ba2646970667358221220ebc62caf3cd79c62c57dc2fb93db9127781feb84f3d59af09ecf2a5d6f7955c764736f6c63430008180033",
  "linkReferences": {},
  "deployedLinkReferences": {},
  "immutableReferences": {},
  "inputSourceName": "project/contracts/erc8004/IdentityRegistry.sol",
  "buildInfoId": "solc-0_8_24-1ce0cf2c02fe3c26626a2e003f9d3f139b2f3659"
}